:400000000080002011000000ED000000ED00000008B5044B1A6803F53F5302331A6000F06DF800BFFA46004010B5054C237833B9044B13B10448AFF300800123237010BD38
:400040008881FF1F00000000D8110000084B10B51BB108480849AFF300800848036803B910BD074B002BFBD0BDE81040184700BF00000000D81100008C81FF1F0881FF1F6F
:400080000000000010B562B600F088FE0020014600F092FE012000F035FE124800F024FE00F0E4FC00F0F6FC002000F0FBFC00F011FD00F045FD0446012000F023FE0020D1
:4000C000014600F079FE084800F00EFE0120002100F072FEA0B200F08DFE4FF47A7000F0DFFFE1E7DC110000E811000008B501F033F803680C2B00D1FEE7FEE708B5104EBD
:40010000104D16E029686B68AC68002204E051F8040B43F8040B0432A242F8D1E868002203E0002143F8041B04328242F9D11035013E002EE6D101F015F8FFF7A3FFFEE7F1
:40014000010000006012000008B5124A124B1A60124A136843F40073136000230AE0032B03D80F4A52F8231000E00E490E4A42F8231001332F2BF2D90C4B1A780C4B1A701D
:40018000094A0C4B1A6000F0EDF800220A4B1A6008BD00BF0004FA050CED00E014ED00E000000000ED0000000080FF1FBC7600400481FF1F08ED00E00081FF1FFEE700BF5C
:4001C000F0B40022174611E050F82760F3B226F0FF0608E001EB420511F812406D78A5550132013BDBB2002BF4D101370C2FEBD9F0BC70470A4B1B78DBB203F00701094ABE
:4002000011701B09013213708022074B1A700823064A1370583213704422054B1A707047CF0100496E5800401D510040005B00407658004008B50A46002100F0C4FF08BDC7
:4002400008B500F0B5FF08BD38B500242C4B1C80502202331A702B482B490422FFF7F0FF02222A4B1A7008224FF040231A70032103F500731970264B1B78DBB225490B7006
:40028000254B1A8041F25122023B1A8019250CE0224B1B7803F0010343EA440404F003044FF4F07000F048FF013D0DB1032CEFD115B90320FFF782FF194B4FF480721A80C6
:4002C00007221A70002217490A704820023108701A700222033B1A7004220A331A70124A137843F001031370013A137843F001031370013A137843F08003137038BD00BF05
:400300008040004000410040740000480043004008010049A146004022420040254200400440004006400040A2430040012807D8044B53F820201844017A13780B431370F5
:40034000704700BFF4110000012808D8044B53F820201844017A137823EA010313707047F411000070B572B6284A137843F00403137000240AE0264963001A1952000A44B3
:40038000D068118AFFF756FF0134E4B2082CF2D94FF090401F49FFF713FF0A221E4B1A701E4A137843F0020313701032137843F0020313701A4C237843F040032370A2F5E0
:4003C0008632513A137843F010031370154816490822FFF735FF154815490822FFF730FF144A137843F008031370134E01253570FFF72AFF81233370104B1D70FFF7FAFE3A
:400400000F4821460E22FFF71BFF70BDE8460040F4110000340000488358004003500140A04300401251004064000048225100406C000048224300400048004004000840A1
:40044000B043004038B59DF81040651EEDB2032D4AD80138092826D8DFE800F00525250525250D15251D0F2B02D9214800781BE02048007818E00F2B02D91F48007813E032
:400480001E48007810E00F2B02D91D4800780BE01C48007808E00F2B02D91B48007803E01A48007800E0002040B201EB401101FB02F2D20B91B20D2B0BD8C3F10E0192B2BF
:4004C0000A4191B2124A02EB8402013302F8023C05E00F4B03EB84030F2203F8022C013C0B4B23F8241038BD002000F0D7FD38BD180100491C010049190100491D010049E3
:400500001A0100491E0100491B0100491F010049A481FF1FF8B5074600F016FE06460D4D2B7843F003032B700B4C237843F0030323700A4B1F70032000F0C8FD2B7803F0B3
:40054000FC032B70237803F0FC032370304600F0FFFDF8BDF8460040F946004092580040F8B504460022C14B1A7401285DD13822BF4B1A70042202331A70062201331A70C0
:40058000002501331D7001331D703F2201331A7002331D7001331D7001331D7001260A331E70502203F527631A700A2201331A702C2201331A7001331D70442203331A70E4
:4005C000482201331A7001331E7002331E70112201331A70192201331A70972201331A705220FFF797FF5822A24B1A7001331D70052205331A70022201331A7001331D70B1
:4006000001331D70284600F035FC43F233329A4B1A601220314600F051FC4A20314600F0D1FC1D20954900F05BFD022C5DD138228F4B1A70042202331A70062201331A70A5
:40064000002501331D7001331D703F2201331A7002331D7001331D7001331D7001260A331E70502203F527631A70272201331A702C2201331A7001331D70552203331A70F5
:400680005A2201331A70052701331F7002331E70112201331A70192201331A70972201331A704420FFF736FF5822724B1A7001331D7005331F70022201331A7001331D7072
:4006C00001331D70284600F0D5FB4FF47A426A4B1A600820314600F0F1FB2520314600F071FC1D20664900F0FBFC032C5DD138225F4B1A70042202331A70062201331A70C0
:40070000002501331D7001331D703F2201331A7002331D7001331D7001331D7001260A331E70502203F527631A70272201331A702C2201331A7001331D70552203331A7034
:400740005A2201331A70052701331F7002331E70112201331A70192201331A70972201331A704420FFF7D6FE5822424B1A7001331D7005331F70022201331A7001331D7042
:4007800001331D70284600F075FB4FF47A423A4B1A600820314600F091FB2520314600F011FC1D20374900F09BFC042C5DD138222F4B1A70042202331A70062201331A700D
:4007C000002401331C7001331C703F2201331A7002331C7001331C7001331C7001250A331D70502203F527631A70272201331A702C2201331A7001331C70552203331A707D
:400800005A2201331A70052601331E7002331D70112201331A70192201331A70972201331A704420FFF776FE5822124B1A7001331C7005331E70022201331A7001331C7017
:4008400001331C70204600F015FB4FF47A420A4B1A600820294600F031FB2520294600F0B1FB1D20084900F03BFCF8BDA481FF1F004E004094580040C081FF1F650B00004B
:40088000690B00006D0B0000710B00002DE9F04182B0394D4FF0010885F80080374E00247474102000F0F8FA102000F079FB1D20072100F029FC0427314B1F7001331C70E5
:4008C00007331C702F4A137843F0180313702E4B1C7003F2F5231C7001331C700A22A3F209331A7001331C7002331C705B2205331A705E2201331A7004331C701422A3F6E8
:400900008C231A70CDF80080022048F6F0514FF400421023FFF796FD02230093204649F2DA014FF400421023FFF78CFD03230093204649F2DA014FF400421023FFF782FD8A
:400940000097204649F2DA014FF400421023FFF779FD2B7806EB830313F8022C0B4B1A702B78013B36F82320094B1A802878FFF7F7FD02B0BDE8F0810C81FF1FA481FF1F8F
:4009800096580040075B0040935800400E4E00400C4E004070B500F0D7FB06462A4B1B782A4B1A7842F001021A701A7842F010021A7010331A7842F001021A701A7842F04D
:4009C00010021A70224D2B7843F002032B70214C237843F0020323701F4A137843F003031370032000F072FB2B7803F0FD032B70237803F0FD032370184A137843F00603F8
:400A000013707A22164B1A70164A137843F0010313701032137843F0010313700F3A137843F0010313701032137843F0010313704FF000530C4A1360A2F5C072136030465E
:400A400000F086FB70BD00BF0C81FF1FAA430040F8460040F9460040915800407758004082580040A143004080E200E008B5084B9B7C4BB9064BDB7C13F0FF0F01D1FFF7E0
:400A800005FF0122024B9A74FFF784FF08BD00BFA481FF1F024A137843F0010313707047004E0040094B1B7C13F0FF0F03D0074B5B7CDBB203E0064B1B7803F00103012B2F
:400AC00001D00028EED01846704700BFA481FF1F014E0040154B1B7803F00303012B07D8134B1888023B1B889BB243EA004013E0022B0AD10E4B1888023B1B7843EA0043D6
:400B00000C4A107843EA002006E00B4B188883B2074A108843EA0040084B1B7C13F0FF0F02D00022054B5A74704700BF144E0040124E0040114E0040104E0040A481FF1FDE
:400B4000064B1B68C01A4FF47A7303FB00F0044B1B6890FBF3F000B2704700BFBC81FF1FC081FF1F704700BF704700BF704700BF704700BF10B50B4C237803F09F032370D0
:400B8000237803F0F00323702378184340F010002070012000F09AFA237803F0EF03237010BD00BF2051004038B505460E4C237843F020032370237803F0BF03237000204D
:400BC00000F084FA237803F0F003237023781D4345F010052570012000F078FA237803F0EF03237038BD00BF2051004070B5354B1A7802F08002D2B21A7033490A7802F0F5
:400C0000F00242F00F020A7001310A7802F0F0020A7001310A7802F0F0020A701A7802F0DF021A701A7842F040021A704FF4CA76002000F04BFA234D2B7843F010032B7096
:400C4000012000F043FA214B1C78E4B22B7803F0EF032B70002000F039FA04F00804E4B22B7843F010032B70012000F02FFA2B7803F0EF032B7014B90A2000F027FA013E6C
:400C80000CB1002ED4D10F4A137803F0BF031370137803F08003DBB213700232137803F0F00313700132137803F0F00343F00F0313700132137803F0F00343F00F03137077
:400CC00070BD00BF20510040225100402151004010B50446FFF78AFF2009FFF765FF04F00F00FFF761FF10BD38B505460078012404E0FFF7EDFF285D0134E4B20028F8D1DF
:400D000038BD00BF10B50446FFF770FF2009FFF731FF04F00F00FFF72DFF10BD08B5282000F0BEF90320FFF725FF052000F0B8F90320FFF71FFF0F2000F0B2F90320FFF781
:400D400019FF012000F0ACF90220FFF713FF052000F0A6F90620FFF7D5FF0E20FFF7D2FF2C20FFF7CFFF0820FFF7CCFF0120FFF7C9FF0C20FFF7C6FF0320FFF7C3FF052023
:400D800000F08EF908BD00BF08B50C20FFF7BAFF0122014B1A7008BDB881FF1F08B5054B5B7823B9FFF7BAFF0122024B5A70FFF7EBFF08BDB881FF1F08B5032819D8DFE84A
:400DC00000F002070D1381F08000FFF79BFF08BDA1F14000C0B2FFF795FF08BDA1F16C00C0B2FFF78FFF08BDA1F12C00C0B2FFF789FF08BD00B585B000238DF80E300922DA
:400E000010E0134BA3FB0013DB08194603EB83035B00C31A303304A8104400F80C3C0846013AD2B20928ECD8094BA3FB0013DB0803EB83035B00C31A303304A9114401F82E
:400E40000C3C01AB9818FFF74FFF05B05DF804FBCDCCCCCC10B5002404E02046FFF774FA0134E4B2012CF8D9FF22014B1A7010BD0D81FF1F10B50446FFF7ECFF2046FFF734
:400E800055FA014B1C7010BD0D81FF1F014B188880B2704780400040034B1A7800F0F80010431870704700BF82400040024B187800F00700704700BF8240004070B50546E6
:400EC0000E46FFF7F3FF0446FFF7E0FF854256D02B4B1B7803F0010294B900B185B938B9284B1D80284A137803F0BF03137070BD254A137843F040031370224B1D8070BDE2
:400F000022B3002321490B7001240F310C7004310B700C390B7803F07F030B701A4B1B7813F0080F00D08DB9194B18800721013B1970164B1B7813F0010FFAD110490B78CC
:400F400003F0FE030B700021104B19700C4B1B7813F0010F0DD00E4B1D800EB1032200E001220A4B1A70094B1B7813F0010FFAD170BD044B1D8002490B7813430B7070BDBD
:400F8000A243004080400040824000400140004002400040014B188880B2704700410040034B1A7800F0F80010431870704700BF02410040024B187800F00700704700BFCB
:400FC0000241004070B505460E46FFF7F3FF0446FFF7E0FF854256D02B4B1B7803F0010294B900B185B938B9284B1D80284A137803F0BF03137070BD254A137843F04003A8
:401000001370224B1D8070BD22B3002321490B70012413310C7004390B7008390B7803F07F030B701A4B1B7813F0080F00D08DB9194B18800721013B1970164B1B7813F0C0
:40104000010FFAD110490B7803F0FE030B700021104B19700C4B1B7813F0010F0DD00E4B1D800EB1032200E001220A4B1A70094B1B7813F0010FFAD170BD044B1D80024986
:401080000B7813430B7070BDA14300400041004002410040014000400240004001BE704710B5044605E0084B186800F045F8A4F50044B4F5004FF6D8034B586800FB04F07A
:4010C00000F03AF810BD00BF1081FF1F08B5034B1B7A03FB00F000F02FF808BD1081FF1F70B504460E46074B1D681F2802D90020FFF7D4FF04F01F04103455F8240045F8CC
:40110000246070BD08ED00E038B504460D46072902D90020FFF7C2FF1F2C02D90020FFF7BDFF04F01F0000F1604000F564406D01EDB2057038BD00BF0230800803D000BF06
:4011400001380046FCD17047EFF3108072B6704780F31088704700BF014B1868704700BF8081FF1F0E4B70B51E460E4C0025E41AA410A54204D056F8253098470135F8E7D4
:4011800000F05CF8084B094C1E46E41AA4100025A54204D056F8253098470135F8E770BD4812000048120000481200005012000010B5431E0A44914204D011F8014B03F8AE
:4011C000014FF8E710BD03460244934202D003F8011BFAE77047000000000000566F6C74696D6574726F00004D65646963696F6E3A200000035B00402443004040000000D2
:40120000005100401000305100404000C05100401000F0510040100000000140001000140140000800400140000A004C01400002005001402000000043000000F8B500BFF2
:40124000F8BC08BC9E4670474D00000049010000F8B500BFF8BC08BC9E46704729000000701200000881FF1F80000000400000000000000001FF00000000E02EC05D000008
:401280001800000000366E01000000000000000000000000000000000000000000000000000000000000000038120000000000000000000000000000000000000000000027
:4012C000000000000000000000000000000000000000000000000000000000000000000000000000000000002081FF1F00000000000000000000000000000000000000002F
:4013000000000000000000000000000000000000000000000000000000000000000000000000000000000000000000000000000000000000000000000000000000000000AD
:40134000000000000000000000000000000000000000000000000000000000000000000000000000000000000000000000000000000000000000000000000000000000006D
:40138000000000000000000000000000000000000000000000000000000000000000000000000000000000000000000000000000000000000000000000000000000000002D
:4013C00000000000000000000000000000000000000000000000000000000000000000000000000000000000000000000000000000000000000000000000000000000000ED
:020000040003F7
:0200000480007A
:4000000001090140040A0140010B014001150140011B0140024401400145014003460140034701400248014001490140014C0140024D0140B502B802BE01D804DF011D02C3
:40004000EC10EC107C01DE01940145089401D001A508B401EC082510C820B510A508B508EC080000000B0B0000008000007F7F00000000004A001801000000000000000057
:400080000000000000000000000000000000000000000000000000000000000000000000000000000000000000000000000000000000000000000000000000000000000040
:4000C0000000000000000000000000000000000000000000000000000000000000000000000000000000000000000000000000000000000000000000000000000000000000
:4001000000000000000000000000000000000000000000000000000000000000000000000000000000000000000000000000000000000000000000000000000000000000BF
:40014000000000000000000000000000000000000000000000000000000000000000000000000000000000000000000000000000000000000000000000000000000000007F
:0200000490006A
:0400000000004005B7
:0200000490105A
:04000000BC90ACAF55
:0200000490303A
:0200000042BEFE
:0200000490402A
:4000000000000000000000000000000000000000000000000000000000000000000000000000000000000000000000000000000000000000000000000000000000000000C0
:400040000000000000000000000000000000000000000000000000000000000000000000000000000000000000000000000000000000000000000000000000000000000080
:400080000000000000000000000000000000000000000000000000000000000000000000000000000000000000000000000000000000000000000000000000000000000040
:4000C0000000000000000000000000000000000000000000000000000000000000000000000000000000000000000000000000000000000000000000000000000000000000
:0200000490501A
:0C00000000012E12306900012E18732739
:00000001FF