:400000000080002011000000AD030000AD03000008B5044B1A6803F53F5302331A6000F0CDF900BFFA46004010B5054C237833B9044B13B10448AFF300800123237010BD51
:40004000B081FF1F0000000048460000084B10B51BB108480849AFF300800848036803B910BD074B002BFBD0BDE81040184700BF0000000048460000B481FF1F0881FF1FD5
:400080000000000080B562B602F006F80020012100F08AFC02F022F900F0C4FC20B100F0BBFC08B100F0E8FD00F0B6FC0028F3D000F07CFE0028EFD000F090FE934B1870C6
:4000C000A0F14103392B00F28C80DFE803F01D8A8A8A8A8A8A8A8A8A8A8A8A8A8A8A8A8A41758A8A8A5F8A2F8A8A8A8A8A8A1D8A8A8A8A8A8A8A8A8A8A8A8A8A8A8A8A8AD9
:4001000041758A8A8A5F8A2F814A137805331370804800F0FDFD012002F094F80020014602F0EAF87C4802F07FF867E0784A1378053B1370794800F0EBFD012002F082F80C
:400140000020014602F0D8F8754802F06DF855E000F0B4FA013001280ADD00F0AFFA013000EBD0704010013880B2012100F0B4FA6C4800F0CDFD012002F064F8002001467A
:4001800002F0BAF8684802F04FF837E000F096FA4000013080B2012100F09EFA634800F0B7FD012002F04EF80020014602F0A4F85F4802F039F821E05E4B1B78013303F003
:4001C00003035C4A13705C4800F0A2FD012002F039F80020014602F08FF8584802F024F80CE0574800F094FD012002F02BF80020014602F081F8534802F016F84D4B1B78F1
:40020000032B00F2BE80DFE803F0022F5C7D0022484B5A8022E03E4D287803F00FFC06460F46204604F00CF8696804F05DF803F017FC02F061F902460B463046394603F0F6
:4002400063FC02460B463046394603F0ABFA03F01DFF3D4B18550134364B5C80354B5C88B4F57A6FD7D38CE00022324B5A8022E0274E3578204603F0E3FF716804F034F886
:4002800003F0EEFB02F038F906460F46284603F0D5FB32463B4603F037FC0022002303F0B9FE10B16B00DBB200E00023264A13550134204B5C801F4B5C88B4F57A6FD7D3C5
:4002C0005FE000221B4B5A8016E0114B1D786D001E48A0FB0430000A03F0B2FF0646284603F0AEFF314603F0FFFF04F04DF9164B185501340F4B5C800E4B5C88B4F57A6F22
:40030000E3D33EE000220B4B5A8035E0E081FF1F0C81FF1F50460000684600007C46000094460000AC460000C4460000DC460000F8460000CC81FF1F1047000028470000EB
:400340004047000058470000E481FF1FD34D6210134B1978880092FBF0F300FB13204B005B420344002BB8BF5B42C3EB41030D498B5401320C4B5A800B4B5A88B2F57A6F6C
:40038000E6D301F01BFE07484FF47A6101F024FE01F082FE00F016FD0028FBD07CE600BF0C81FF1FE481FF1FCC81FF1F08B504F00BF903680C2B00D1FEE7FEE708B5104ECC
:4003C000104D16E029686B68AC68002204E051F8040B43F8040B0432A242F8D1E868002203E0002143F8041B04328242F9D11035013E002EE6D104F0EDF8FFF743FEFEE7B5
:4004000001000000185B000008B5134A134B1A60134A136843F40073136000230AE0032B03D8104A52F8231000E00F490F4A42F8231001332F2BF2D90D4B1A780D4B1A7051
:400440000A4A0D4B1A6000F0BBF801F03FFC00220A4B1A6008BD00BF0004FA050CED00E014ED00E000000000AD0300000080FF1FBC7600400481FF1F08ED00E00081FF1F7E
:40048000FEE700BFF0B40022174611E050F82760F3B226F0FF0608E001EB420511F812406D78A5550132013BDBB2002BF4D10137112FEBD9F0BC70470A4B1B78DBB203F0AD
:4004C0000701094A11701B09013213708022074B1A70012203F667131A704422A3F21D231A707047CF0100496E5800402C51004008B50A46002104F09EF808BD38B540F2B4
:40050000E732244B1A80192502331D70062203F27E231A705222A3F580731A701E4B1B78DBB21E4A13704FF4E2621D4B1A8041F25122023B1A8000240CE01A4B1B7803F053
:40054000010343EA440404F003044FF4F07001F097FF013D0DB1032CEFD115B90320FFF78FFF114A4FF4807313800723137000230E490B7048200231087013700532137067
:4005800002220B4B1A700B4A137843F00103137038BD00BF804000400F010049A14600402242004025420040044000400640004001400040A243004008B504F031F808BDCF
:4005C00038B572B62D4A137843F00403137000240CE02B4963001A1952000A4423445B00C8589188FFF784FF0134E4B2072CF0D94FF090402349FFF745FF23480421FFF7F7
:4006000077FF22480421FFF773FF214A137843F0020313701032137843F0020313701D4C237843F040032370A2F58632513A137843F010031370184818490A22FFF7BCFF3B
:40064000174818490822FFF7B7FF174817490822FFF7B2FF164A137843F008031370154D01232B70FFF74AFFC1232B70FFF724FF114821460E22FFF79FFF38BDE8460040C9
:400680006C47000048000048007600400876004003500140A0430040F0510040A800004812510040B400004822510040BC0000482243004000480040B0430040014B1888B9
:4006C00080B2704780400040024B187800F00700704700BF8240004070B505460E46FFF7F3FF0446FFF7EAFF854256D02B4B1B7803F0010294B900B185B938B9284B1D80C7
:40070000284A137803F0BF03137070BD254A137843F040031370224B1D8070BD22B3002321490B7001240F310C7004310B700C390B7803F07F030B701A4B1B7813F0080FF5
:4007400000D08DB9194B18800721013B1970164B1B7813F0010FFAD110490B7803F0FE030B700021104B19700C4B1B7813F0010F0DD00E4B1D800EB1032200E001220A4B4C
:400780001A70094B1B7813F0010FFAD170BD044B1D8002490B7813430B7070BDA243004080400040824000400140004002400040F8B501F06DFE0746404A137843F0010339
:4007C00013701032137843F00103137001263C4B1E700225943B1D7002F5E2521B32137803F07F031370002001F068FB354C237803F0F9032370344A137803F0DF031370C2
:40080000237833432370304601F058FB282001F055FB2E4B1A7802F07F021A701A7802F0BF021A7023782B432370284601F046FB237843F0040323700024254B1C70013302
:400840001C70384601F028FE1720072101F054FB1720204901F03CFB1820072101F04CFB18201D4901F034FB1520072101F044FB15201A4901F02CFB2046072101F03CFBA7
:400880002046174901F024FB3046072101F034FB3046144901F01CFB2846072101F02CFB2846114901F014FB0C20072101F024FB0C200E4901F00CFBF8BD00BFA5430040D8
:4008C0009D6000409443004012600040F851004084600040791300004911000075130000BD120000F5120000311300008113000008B5214B18700023204A1370204A13707B
:40090000204A1370204A1370204A1370204A1370204A1370204B4FF400021A604FF080721A604FF400121A6001221A6002221A6004221A6011B1012906D00BE0174A1378FE
:4009400003F0FE0313700AE0144A137843F00103137004E0114A137843F00103137003220F4B1A708022203B1A70012001F088FD04220C4B1A7008BD9D91FF1FA091FF1F61
:40098000BC91FF1FBF91FF1FB491FF1FBE91FF1FC191FF1F9C91FF1F00E100E009600040286000401260004038B505460C46064B1B7823B9FFF7FCFE0122034B1A7028464C
:4009C0002146FFF795FF38BDD281FF1F00230A4A13700A4A13700A4A13700A4A13700A4A13700A4A13700A4A13700322094B1A708022203B1A707047A091FF1FBC91FF1FA1
:400A0000BF91FF1FB491FF1FBE91FF1FC191FF1F9C91FF1F28600040014B1878704700BFBF91FF1F064B1B7813F0FF0F05D0044B1878C0B200221A7070470020704700BF21
:400A4000BC91FF1F00EB40008000024B18444078704700BFC491FF1F431EDBB2072B0BD8064B00011A18185C00F00F00537843EA0020023880B2704700207047FC5F00406F
:400A8000431EDBB2072B3BD8F0B4074600EB40039B001C4C2344DB889BB2C3F500739A4207D900EB40039B002344DA88C2F5007292B200EB40039B00124C2344DB7843EAD6
:400AC0001223114D04012E192B55D3B2737039B909E0CE5C3D010D4C665501339BB200E000239342F5D3430003449B00054A134400225A705A79D2B20001054B1A54F0BC3E
:400B0000704700BFC491FF1FFC5F004078600040FE5F0040431EDBB2072B0BD8430003449B00054A134400225A705A79D2B20001024B1A54704700BFC491FF1FFE5F004029
:400B400070B5D9B1054614460E46C8B1082819D8FFF782FFA04203D22846FFF77DFF0446002305E02901094A525CF25401339BB2A342F7D32846FFF7CDFF04E0002402E018
:400B8000002400E00024204670BD00BF786000400246002001E0013080B2135C002BFAD1704700BF10B4FF2400220EE00A4B9B5C03EB43039B0009490B449B78DBB2834204
:400BC00001D1144602220132D2B2012AEED920465DF8044B704700BF8C91FF1FCC91FF1F10B5204C2079FFF7DDFF237813F0800F0ED06378DBB2212B2FD11B4B07221A8042
:400C0000C0EBC000194A1044586000F00BFB10BD144B5B78DBB2202B02D0222B10D01EE0114A07231380C0EBC00310490B4453600F4A135C43F00103135400F01BFB10BDF6
:400C4000084B9B780B4A22F81030094A135C43F00203135400F0A6F910BD002010BD002010BD00BF00600040A891FF1F1481FF1F8491FF1F9891FF1F10B500241F4B1C7006
:400C80001F4B1C705C700AE01E4B185DC0B2431EDBB2072B01D8FFF73DFF0134E4B2012CF2D9194B1B7813F0FF0F1AD0154B1B7813F0FF0F17D0154B1B7813F0FF0F14D085
:400CC000114B1B78DBB2082B11D80E4B1B78DBB2082B0ED80D4B1B78DBB2082B0BD8002010BD012010BD012010BD012010BD012010BD012010BD012010BD00BFD381FF1F8A
:400D00008491FF1F9091FF1F8891FF1F8C91FF1F2DE9F8438046224B1B78224AD65CF6B2FFF736FF05460027344606EB46039B001D4A13441B899BB2AB4208D206EB4603D6
:400D40009B001344B3F808901FFA89F900E0A946304608EB07014A46FFF792FEC9EB0505ADB245B906EB46039B000F4A13441B899BB2994510D14F44BFB204EB44039B0028
:400D8000094A13445B7813F0FF0FF6D025B9304600210A46FFF774FE002DC5D1BDE8F883D381FF1F8891FF1FC491FF1F08B5034B1B78034AD05CFFF745FE08BDD381FF1F2C
:400DC0009091FF1F08B5034B1B78034AD05CFFF739FE08BDD381FF1F8891FF1F00B583B0064B1B78064AD05C0DF107010122FFF7A7FE9DF8070003B05DF804FBD381FF1FE1
:400E00009091FF1FC37803F0030390F9020000280FDA032B06D002F001030B48C15442F001020EE0C2F380030848C15442F0040207E0032B05D0C2F340030548C15442F0D3
:400E400002021046704700BF8891FF1F8C91FF1F9091FF1F1C4B19781C4A13880B449BB2138000230EE01A4A51680978C9B21948C1545168013151600133DBB211880139F9
:400E800089B21180124A128892B20AB1072BEAD90D4A1278D2B2082A00D05BB10E490A7882F080020A700F210C4A117002210C4A117004E0022209490A7009490A70094ACE
:400EC0001370014A137070479C91FF1F9E91FF1FA891FF1F006000403292FF1FBD91FF1FA091FF1FC091FF1F0222074B1A708022064B1A700F22064B1A700023054A1370D1
:400F0000054A137001207047A091FF1F3292FF1FBD91FF1F9C91FF1FC091FF1F08B5FFF799FF08BD10B4184B197801F00F010239C9B2164A13880B449BB21380002010E0F7
:400F4000134B5C68134A125CD2B222705A6801325A600130C0B20139C9B21A88013A92B21A800B4B1B889BB20BB10029E8D10A4B19700A4A137883F0800313700B22084B12
:400F80001A705DF8044B7047296000409E91FF1FA891FF1F00600040C091FF1F3292FF1FBD91FF1F0623064A1370064A13708022054B1A700022054B1A700120704700BFA4
:400FC000A091FF1FBD91FF1F3292FF1FC091FF1F064B9B6843B1054B9A6810709A6804490988518000229A60704700BFA891FF1F9E91FF1F08B5134B1A78D2B21A701B7896
:40100000DBB213F0800F02D00F4A137008BD0220FFF7DEFF0D4B1B7803F06003202B05D0402B06D043B900F095FC06E001F038FA03E000F037FE00E0002010B90322024BBE
:401040001A7008BD28600040BD91FF1F0060004008B5084B1978084A13880B449BB213800022064B1A700120FFF7B2FF0322044B1A7008BD9C91FF1F9E91FF1FA091FF1F21
:40108000BD91FF1F08B50B4B1B78DBB2042B06D0062B07D0022B0BD1FFF7DAFF08BDFFF741FF08BD0320FFF793FF0322024B1A7008BD00BFA091FF1FBD91FF1F08B5002227
:4010C000044B1A700120FFF783FF0322024B1A7008BD00BFA091FF1FBD91FF1F08B50B4B1B7813F0FF0F07D0084A137843F0800307490B70002313700022064B1A70012093
:40110000FFF766FF0322044B1A7008BDBE91FF1F08600040A091FF1FBD91FF1F08B5094B1B78DBB2042B06D0062B07D0022B07D1FFF7F4FE08BDFFF7C1FF08BDFFF7CEFF93
:4011400008BD00BFA091FF1F08B5284B1B78DBB213F0100F48D013F0800F0CD003F00F03012B16D1FFF746FF214B1B7813F0800F11D1012312E013F0400F03D0FFF7CEFFE0
:4011800001230BE013F0200F07D0FFF77BFF012304E0002302E0002300E0002323B3134B1B7813F0800F1FD1124B1B78124A12781343124A13701278D2B29A4214D10C4BFA
:4011C0001B78DBB2094A127812F0800F07D1084B1B78DBB2054A1370137803F00F03044A1278D2B29342EAD108BD00BF28600040BD91FF1F3292FF1FC091FF1F29600040F6
:401200000022064B1A80064B9B682BB1044A916800230B7092685380704700BF9E91FF1FA891FF1F08B50F4B1B889BB213B9FFF75BFE15E002220C4B1A7000220B4B1A7087
:40124000FFF7DEFF0A4AD179937943EA0123054A128892B29A4201D9024A1380FFF7FAFD012008BDA891FF1FA091FF1F3292FF1F0060004008B504220B4B1A7080220B4B28
:401280001A70FFF7BDFF0A4AD179937943EA0123084A128892B29A4201D9064A13800B22054B1A70012008BDA091FF1F3292FF1F00600040A891FF1FBD91FF1F0A4A1378CE
:4012C00003F0FE031370094B9B7C094B1B7B03F00303012B04D0064AD37B83F08003D3730122034B5A7370470B600040FC5F0040C491FF1F0B4A137803F0FD0313700A4BF6
:4013000093F82230094B1B7E03F00303012B04D0064AD37E83F08003D3760122034B5A76704700BF0B600040FC5F0040C491FF1F0D4A137803F0FB0313700C4B93F8323000
:401340000B4B93F8243003F00303012B06D0084A92F8273083F0800382F827300122044B83F82520704700BF0B600040FC5F0040C491FF1F704700BF08B5FFF727FB08BDD2
:4013800008B500F09BFC08BD70B588B0054603AC174E0FCE0FC43368237035B322232B7003236B7001A800F0BFFD002402231AE008AA224412F81C2C08A901EB121111F8F6
:4013C000141CE954581C00212954981C02F00F0208AE324412F8142C2A54DA1CA9540134E4B20433DBB2212BE2D908B070BD00BF9C47000010B401223DE0114613010C2414
:401400002148C45402EB42039B00204803445B7913F0FF0F12D002EB42039B0003441B7913F0800F04D01001194B03449C700AE01001174B03440820987004E01001144BEA
:401440000344802098704B000B449B000F480344DC88E4B208010C4901448C71D888C0F30720C871D888C0B20871DB88C3F307234B710132D2B2082ABFD9FF22054B1A70D7
:401480005DF8044B704700BF70600040C491FF1FFC5F00400A600040074B1B78074A02EBC30253681A7C824203D903EBC003586970470020704700BF9D91FF1FB45700005B
:4014C000F8B5404B1B7813F0FF0F79D03D4B18780138C0B2FFF7E0FF047AC2683A4B1878C0B200236AE01178814264D13749095CC9B25578A9425ED1917801F07F01D67803
:4015000006F00306DFF8C8E04D000D44AD000EEB05074FF0000C87F803C092F802C087F804C092F803C00EF805C095883D8192F90250002D0DDA012E01D1072700E00D279A
:401540004D000D44AD00224E35446F7101266E700CE0012E01D1052700E009274D000D44AD001B4E35446F7100266E70DFF868E00F010EEB07060125B57001FA05F5294436
:401580008900134D29440D89C5F307250EF807500D89EDB27570CE88F6B20E4D3D44AE71CE88C6F30726EE71CE88F6B22E71C988C1F30721697108320133DBB2A34292D367
:4015C000F8BD00BFBF91FF1FB491FF1F3092FF1FC491FF1F70600040FC5F0040034B1A78034B03EBC2035868704700BF9D91FF1FB457000008B5074B18780138C0B2FFF7FA
:401600004BFF28B14268127900EBC203586908BD002008BDBF91FF1F2DE9F84300220EE06F4E53009D18AD00741900217155A170E1702181A172617061710132D2B2082ADF
:40164000EED940B90AE000226649CA546649CA540133DBB200E00023012BF4D9634B1B7813F0FF0F00F0B980604B18780138C0B2FFF712FF80464368DB7913F0400F05D0F3
:401680005B4A137843F00103137004E0584A137803F0FE03137098F808704FF0000901266CE0D8F80C50002464E0AB7803F07F039E425CD1314606EB46039B004848034499
:4016C0001B899BB2A888834205D206EB46039B00434A134418812B784248C35CDBB26878834244D195F802C03D484B000B449B0000EB030E8EF804C095F803E000F803E0AE
:40170000EB7803F0030395F90200002811DA012B02D14FF0070C01E04FF00D0CDFF8C0E04B0058188000704480F805C00123437012E0012B02D14FF0050C01E04FF0090C30
:4017400027484FEA410E0EEB01039B00034483F805C0194600234B70AB790A2B01D0022B05D1284631464A46FFF74CFB814608350134E4B2BC4298D30136F6B2082E90D981
:40178000D8F80C0000220CE0837803F07F0310F8084B03EB43039B0016490B449C700132D2B2BA42F0D3FFF725FF134B1860002301210EE00A4C4A00501880002044C38023
:4017C000028913449BB203F0010213449BB20131C9B20829EED9FFF70DFEBDE8F88300BFC491FF1F3092FF1FA491FF1FBF91FF1FC191FF1FCC91FF1FB891FF1F08B5154B18
:401800001A7902F07F02531EDBB2072B20D8530013449B0010490B44997841F0010199700021D970597841F0020159701B7913F0800F05D01201094B13448D229A7004E0B2
:401840001201064B134489229A70FFF7ABFB08BD002008BD00600040C491FF1FFC5F0040264B1B7903F07F035A1ED2B2072A43D810B55A001A44920021490A44917801F081
:40188000FE0191700021D17019017F241D484454517801F0FD015170127912F0800F14D003EB4302920016490A445278D2B2012A05D11B0102461A440C23937019E01B01C9
:4018C000104A1A440D23937013E003EB430292000B490A445278D2B2012A05D11B01094A1A440823937004E01B01064A1A4409239370FFF757FB10BD0020704700600040F0
:40190000C491FF1FFC5F004010B50E4B1C79E4B20D4B18780138C0B2FFF7BEFD43681B799C4201D9022C0AD8084A135DDBB208490B55044B9B78DBB21355012010BD0020A0
:4019400010BD00BF00600040BF91FF1F3092FF1FA491FF1F10B59B4B1B78DBB200219A4A118013F0800F00F0AD80964A5278D2B20A2A00F27281DFE812F06900700170012F
:401980007001700170010B007001920070019A008C4BDB78DBB2012B09D1FFF71FFE4268894B5A6012221A80FFF73CFC10BD854BDB78DBB2022B13D1824B9878FFF76CFDED
:4019C000002800F04C8142687F4B5A605A68D1785A68927842EA01221A80FFF723FC10BD784BDB78DBB2032B05D02CE00A7811440133DBB201E000237449724A9278D2B2DD
:401A00009A4203D90A7812F0FF0FEFD16D4B9B7813F0FF0F0BD06B4B9B78DBB26C4A127C934204D16B4C2046FFF7AEFC21460B7813F0FF0F00F015810B78634A13805160EF
:401A4000FFF7F0FB10BD00F02BFD10BD13F0030317D0022B40F007815B490B80594B1B7903F07F0303EB43039B005B4A13449A78D2B25A4B1A7000225A704B60FFF7D2FB38
:401A800010BD514902230B80554B1A78D2B2534B1A7000225A704B60FFF7C4FB10BD4A4B01221A804F4A5A60FFF7BCFB10BD464A01231380434B1B794B490B445360FFF704
:401AC000B1FB10BD3F4A5278013A0A2A00F2CD80DFE812F04B00CB009600CB000B00CB00CB00CB001300CB003000364B9B78DBB23E4A1370FFF756FA10BD324B9B7803F0F0
:401B0000FF041BB1601EC0B2FFF7C6FC04B110B9002C40F0AC80334B1B78DBB29C4206D0304B1C700120324B1870FFF775FDFFF739FA10BDFFF7E8FE002800F09A80214AD2
:401B40001379DBB21279D2B22A490A702A4AD25C2549C95CD3B28B4204D00122244B1A70FFF7AEFCFFF71EFA10BD03F00303012B17D04BB1022B7ED1124B9B7813F0FF0F59
:401B80007BD1FFF76DFE10BD0E4B9B78DBB2012B75D1134A137803F0FD031370FFF702FA10BD084B1B79DBB2012B6AD8054B98781B79DBB21149CA5C22EA0002CA54FFF71E
:401BC000F1F910BD00600040A891FF1F1C580000005900003892FF1FC491FF1FD481FF1FC191FF1FBF91FF1F3092FF1FBE91FF1FBC91FF1FB491FF1FA491FF1F3492FF1F6C
:401C000003F00303012B17D04BB1022B3BD1224B9B7813F0FF0F38D1FFF7F0FD10BD1E4B9B78DBB2012B32D11C4A137843F002031370FFF7B7F910BD174B1B79DBB2012B13
:401C400027D8154B98781B79DBB21549CA5C22EA0002CA54FFF7A6F910BD002010BD002010BD002010BD002010BD002010BD002010BD002010BD002010BD002010BD00204D
:401C800010BD002010BD002010BD002010BD002010BD002010BD00BF00600040C191FF1F3492FF1F044B1B7813F0800F01D0024B5B780020704700BF00600040024B18788B
:401CC000C0F38010704700BF8F4500400B4A7F2313708021517007E0DA0002F1804202F5F042013BDBB21370002BF5D1DB0003F1804303F5F04300221A7070473081FF1F70
:401D0000172815D831B103010A495A5C42F020025A5405E0030107495A5C02F0DF025A540001044A835C43F00103835400207047012070471070004017280BD80001064BF7
:401D4000C25C02F0FE02C254C25C02F0DF02C25400207047012070471070004017280BD80001064A835C03F0F10301F0070143EA41018154002070470120704710700040E2
:401D800041F6FF73994201D14FF4005141F6FF739A4201D14FF40052172808D8C00000F1804000F5EC408180C280002070470120704700BF172805D8034B03EB00104172D0
:401DC00000207047012070471070004017281BD810B4C00000F1804404F5EC44D201D2B201F07F01114321709DF804201201D2B203F00F03134363709DF8083003F00F03E3
:401E0000A3700020E07001E0012070475DF8044B704700BF10B500F03BFB0A4B5B78182B0BD9084A1478013B5370E30003F1804303F5F0431B78137000E0FF2400F02CFB40
:401E4000204610BD3081FF1F10F0800F0CD111F4704F0BD1C00000F1804000F5F04001808270C37000207047012070470120704710F0800F08D1C00000F1804000F5F04093
:401E80008180C280002070470120704701BE704710B5044605E0084B186800F0F1FAA4F50044B4F5004FF6D8034B586800FB04F000F0E6FA10BD00BF3881FF1F08B5034B3A
:401EC0001B7A03FB00F000F0DBFA08BD3881FF1F70B504460E46074B1D681F2802D90020FFF7D4FF04F01F04103455F8240045F8246070BD08ED00E038B504460D46072910
:401F000002D90020FFF7C2FF1F2C02D90020FFF7BDFF04F01F0000F1604000F564406D01EDB2057038BD00BF134B1B78DBB20360124A127843EA02230360114A127843EAF6
:401F4000024303600F4A127843EA026303600E4B1B78DBB243600D4A127843EA022343600B4A127843EA024343600A4A127843EA02634360704700BF0301004904010049D7
:401F8000EC460040020100490101004900010049050100490601004910B500F007FA064C20780121FFF7ACFE60780121FFF7A8FE002000F025FA10BDD881FF1F10B5054CAE
:401FC0002078FFF7B9FE6078FFF7B6FE00F0FCF910BD00BFD881FF1F70B505460E46012001462A0C4FF4804300F0A4F9094C2070A278104631460123FFF726FFA078A9B2BF
:4020000045F68232FFF734FF2078A178FFF7D2FE70BD00BFD881FF1F70B505460E46012001462A0C4FF4804300F0A2F9094C6070E278104631460123FFF706FFE078A9B29D
:4020400045F68232FFF714FF6078E178FFF7B2FE70BD00BFD881FF1F10B500F0F9F9022000F0C0F9042000F0E3F9FFF7D3FE084CA070FFF7CFFEE070064C20464FF47A61B8
:40208000FFF7AAFF04F57A606421FFF7C5FF10BDD881FF1FB047000008B5054B1B7923B9FFF7DAFF0122024B1A71FFF775FF08BDD881FF1F10B50B4C237803F09F03237068
:4020C000237803F0F00323702378184340F0100020700120FFF7F2FE237803F0EF03237010BD00BF2051004038B505460E4C237843F020032370237803F0BF032370002096
:40210000FFF7DCFE237803F0F003237023781D4345F0100525700120FFF7D0FE237803F0EF03237038BD00BF2051004070B5354B1A7802F08002D2B21A7033490A7802F0DB
:40214000F00242F00F020A7001310A7802F0F0020A7001310A7802F0F0020A701A7802F0DF021A701A7842F040021A704FF4CA760020FFF7A3FE234D2B7843F010032B70DF
:402180000120FFF79BFE214B1C78E4B22B7803F0EF032B700020FFF791FE04F00804E4B22B7843F010032B700120FFF787FE2B7803F0EF032B7014B90A20FFF77FFE013E8F
:4021C0000CB1002ED4D10F4A137803F0BF031370137803F08003DBB213700232137803F0F00313700132137803F0F00343F00F0313700132137803F0F00343F00F03137022
:4022000070BD00BF20510040225100402151004010B50446FFF78AFF2009FFF765FF04F00F00FFF761FF10BD38B505460078012404E0FFF7EDFF285D0134E4B20028F8D189
:4022400038BD00BF10B50446FFF770FF2009FFF731FF04F00F00FFF72DFF10BD08B52820FFF716FE0320FFF725FF0520FFF710FE0320FFF71FFF0F20FFF70AFE0320FFF703
:4022800019FF0120FFF704FE0220FFF713FF0520FFF7FEFD0620FFF7D5FF0E20FFF7D2FF2C20FFF7CFFF0820FFF7CCFF0120FFF7C9FF0C20FFF7C6FF0320FFF7C3FF052009
:4022C000FFF7E6FD08BD00BF08B50C20FFF7BAFF0122014B1A7008BDDD81FF1F08B5054B5B7823B9FFF7BAFF0122024B5A70FFF7EBFF08BDDD81FF1F08B5032819D8DFE849
:4023000000F002070D1381F08000FFF79BFF08BDA1F14000C0B2FFF795FF08BDA1F16C00C0B2FFF78FFF08BDA1F12C00C0B2FFF789FF08BDF0B583B086460F4616461D46C7
:402340000A4C0023237000930193184671463A46FFF73CFD207831462A46FFF711FD20780221FFF7FBFC207803B0F0BD4881FF1FF0B583B086460F4616461D460A4C01202D
:40238000207000230093019371463A46FFF71EFD207831462A46FFF7F3FC20780221FFF7DDFC207803B0F0BD4981FF1F054A137843F0040313701032137843F0040313700C
:4023C000704700BFA8430040054A137803F0FB0313701032137803F0FB031370704700BFA8430040054B1A7802F0FD021A701A7800F0020010431870704700BF285800401A
:40240000014B1870704700BF825B0040064B1B78C3F3810303F19243063393F82831DBB2024A1370704700BF285800400A46004008B5064B1A7802F0F3021A701A7800F07C
:402440000C0010431870FFF7E1FF08BD2858004008B50020074B187001331870064A137843F008031370FFF7E3FF0220FFF7BAFF08BD00BF28580040975A004000000000ED
:402480000230800803D000BF01380046FCD17047EFF3108072B6704780F31088704700BF08B5124B1B7803F00303012B02D0022B04D00FE00D4B1B79DBB20CE00B4B1B7918
:4024C00003F07F0303EB43039B00094A13449B78DBB200E00023074A1268D35C022B02D1FEF77EFB08BD002008BD00BF00600040CC91FF1FB891FF1F30B5224A21F0004353
:40250000934287B01BDD204A934205DD02460B4601F046F907B030BD02AA00F039F800F0030001281ED0022811D010B3DDE90201DDE9042300F040FA01F10041EAE700235D
:4025400000930022002300F05FFF07B030BD01230093DDE90201DDE9042300F055FF01F10041D7E7DDE90201DDE9042300F024FAD0E70124DDE90201DDE90423009400F015
:4025800043FFC7E7FB21E93FFFFFEF7F000000002DE9F04F924C21F00047A7428FB00E467FDD14468F4A974226DC83A3D3E90023002940F39D8101F0F3F88B4B80469F4232
:4025C000894600F083807EA3D3E9002301F0E8F802460B464046C4E90023494601F0E0F877A3D3E9002301F0DBF80125C4E9020128460FB0BDE8F08F7C4A974240F3838048
:402600007B4A974258DC3D15A5F21645A7EB05518B46824601F012FD01F010FA8046894642464B4650465946CDE9088901F0B8F80022704B01F068FA8B46824601F0FEFC89
:4026400001F0FCF98046894642464B4650465946CDE90A8901F0A4F80022664B01F054FA00220023CDE90C0101F0B6FC002800F06781002340464946002201F0ADFC0028E2
:4026800014BF012302235C480221019000912A4608A8214600F0B4FA002EC0F24781054606E0C2E9000100250024C2E90245002528460FB0BDE8F08F02460B4601F070F8C8
:4026C0000025C4E90201C4E90001F1E73EA3D3E9002301F065F83EA3D3E9002306460F4601F05EF802460B463046C4E90023394601F056F836A3D3E9002301F051F8012514
:40270000C4E90201D4E700F037FF33A3D3E900238046894601F0F8F90022384B01F042F801F08CFC054601F089F923A3D3E90023CDE9040101F0E8F902460B4640464946F5
:4027400001F02EF81EA3D3E9002382468B46DDE9040101F0D9F91F2DCDE902015046594650DC274B6A1E53F82230BB424AD0DDE9022301F015F802460B4681468846C4E9A3
:4027800000234A4643465046594601F009F8DDE9022301F005F802460B46002EC4E9022386DA4A4608F1004301F1004184E80C00E160A0606D427BE700004054FB21F93F33
:4027C0003163621A61B4D03D0000601A61B4D03D7370032E8A19A33B83C8C96D305FE43FFB21E93F7BD90240FB21F93FFB213941FFFFEF7F00007041945900000000E03F56
:4028000014590000DDE9022300F0CAFF88463F15C8F30A53FB1A102B8146C4E90001B0DD59A3D3E90023DDE9040101F06DF98046894642464B465046594600F0B1FFCDE9C5
:402840000601DDE906235046594600F0A9FF42464B4600F0A5FF4EA3D3E9002380468946DDE9040101F050F942464B4600F098FFCDE90201DDE90223DDE9060100F090FFEE
:402880000B4602468846C1F30A517F1A312F8146C4E9002374DD40A3D3E90023DDE9040101F032F980468946DDE9060142464B4600F076FF82468B46DDE9060152465B4699
:4028C00000F06EFF42464B4600F06AFF34A3D3E9002380468946DDE9040101F015F942464B4600F05DFFCDE90201504659463EE700F058FF2E4B80469F42894622D02AA387
:40290000D3E9002300F04EFF02460B464046C4E90023494600F044FF23A3D3E9002300F041FF4FF0FF35C4E90201C1E66268E36802F1004203F1004345426260E360B7E681
:402940000323A0E610A3D3E9002300F02BFF10A3D3E9002306460F4600F024FF02460B463046C4E90023394600F01AFF08A3D3E9002300F017FF4FF0FF35C4E9020197E622
:40298000DDE906ABFDE600BF0000601A61B4D03D7370032E8A19A33B0000002E8A19A33BC14920259A837B393163621A61B4D03DFB21F93FAFF300802DE9F04F21F00047A9
:4029C000B7F1795F85B00C4692469B4605466BDA01F034FB002800F0E7802A4623462846214601F091F874A3D3E900238046894601F08AF872A3D3E9002300F0D3FE424685
:402A00004B4601F081F870A3D3E9002300F0C8FE42464B4601F078F86DA3D3E9002300F0C1FE42464B4601F06FF86BA3D3E9002300F0B6FE42464B4601F066F868A3D3E9AA
:402A4000002300F0AFFE42464B4601F05DF8CDE90001404649460022634B01F055F8DDE9002306460F464046494601F04DF85246804689465B462846214601F045F802466F
:402A80000B464046494600F08BFE02460B463046394600F085FE02460B460020534900F07FFE05B0BDE8F08F02460B4601F02CF841A3D3E900238046894601F025F840A3A4
:402AC000D3E9002300F06EFE42464B4601F01CF83DA3D3E9002300F063FE42464B4601F013F83BA3D3E9002300F05CFE42464B4601F00AF838A3D3E9002300F051FE4246C4
:402B00004B4601F001F836A3D3E9002300F04AFE4B46424600F0F8FF354BCDE900019F4297DD344B00229F4238DCA7F5001300202E4916461F4600F033FECDE902014046A1
:402B400049460022284B00F0DFFF32463B4600F027FEDDE9002306460F464046494600F0D3FF5246804689465B462846214600F0CBFF02460B464046494600F011FE0246A2
:402B80000B463046394600F00BFE02460B46DDE9020100F005FE05B0BDE8F08F164B0026CDE90223154FCAE71049002005B0BDE8F08F00BFAFF30080D43888BEE9FAA8BD64
:402BC000C4B1B4BD9EEE213EAD529C804F7E923E9015CB19A001FA3E7751C1166CC1563F4C5555555555A53F0000E03F0000F03F3233D33F0000E93F0000E73F0000D23F8C
:402C00002DE9F04F9E467E4DD41E85FB0465E417C4EBA504ADF51D7D24EAE4742546A69E0D940C93E343774C03EB430354F8264002EBC303274609940EF1FF342646039410
:402C4000F41904900A910893A5EB060516D42C44013422AEA79F08E057F8250000F0EEFE0135A542E6E9020108D0002DF4DA013500200021A542E6E90201F6D1099B002B7D
:402C800031DB099A0C9B74A901EBC20BC3EB4373039A24A9DB0001EBC20800930DF5E479039B002BC0F297814446049B0026A3F1080A009B002708EB0305FAE9022374E8EE
:402CC000020100F021FF02460B463046394600F069FDAC4206460F46EFD1E9E90267D94508F10808DCD1099B10A99B4603F18043013B9B001A1D0A440B440F920E934FEA64
:402D0000CB039CA91A460693BBF1000F0B4453E9284528DD0DF5E87A0AEB02060FAF0022394B2046294600F0EFFE01F087F900F085FE0022354B8046894600F0E5FE024622
:402D40000B462046294600F02BFD01F077F976E9022347F8040F4946404600F023FD564504460D46DBD1DDF82090204629464A4600F092FC00224FF07F5304460D4600F0AD
:402D8000C3FE00F0FDFB0022214B00F0BDFE02460B462046294600F003FD04460D4601F04DF9804600F04AFE02460B46204629464C4600F0F5FC002C06460F4640F3F180AF
:402DC0000BF1FF3110AB53F82130C9F1180043FA00F202FA00F55D1B10A8C9F1170340F8215090441D41002D3FDDBBF1000F08F1010840F38482002214460FA912E000BF5B
:402E0000ABAAAA2A9C5A00000000703E0000704100002040C3F180700BB108600124013293450DDD51F8043F002CF3D0C3F1FF13013203F57F4393450B604FF00104F1DC50
:402E4000089B002B0EDD012B00F0B380022B09D10BF1FF3210AB53F8223010A9C3F3150341F82230022D00F08380304639460022002301F0B1F8002800F0C980099B0BF1B5
:402E8000FF3A53450DDC10AB0F9803EB8B03002253F8041D834242EA0102F9D1002A40F01482099B10AA013B52F82330002B40F024820E9A012352F8041D01330029FAD0A8
:402EC0005B441A460B930BF1010393424DDC0D9A4FF0000803EB02090B9A0C9B09F180495B44CBEB020BA79A09F1FF3902EB890200924FEACB02DB00059224AA02EB030B21
:402F00000793069B74AA02EB030A009B002653F8040F0027009300F091FD039BEBE80201002B1BDB079B03EB0804069B08EB030524AB1C441D44049BA3F10809F9E902233F
:402F400074E8020100F0E0FD02460B463046394600F028FCAC4206460F46EFD1059B08F108089845EAE90267CFD1DDF82CB0C6E632463B460020BF4900F012FC06460F46B5
:402F8000002C3FF472AF089A0020BA4900F084FB02460B463046394600F002FC06460F4663E711D10BF1FF3310AA52F82350ED1519E70BF1FF3210AB53F8223010A9C3F379
:402FC000160341F822304DE70022AB4B01F022F858B9054649E700260027E9E90267D94508F108087FF45CAE7DE6BBF1000F08F10108C8BF02253FF7FEAE32463B46002055
:403000009C4900F0CDFB022506460F462DE7089B30465A4239460395CDF8148000F03CFB0022964B04460D4600F0F4FF002800F0E1810022924B2046294600F065FD00F0B8
:40304000FDFF064600F0FAFC00228C4B00F05CFD0B4602462946204600F0A2FB00F0EEFF089B0BF1010A1833089310AB43F82B0043F82A60089A00207E4900F00DFBBAF166
:40308000000F04460D46C0F2CA800AF101034FEAC30874AF10AA009302EB830907EB080659F8040D00F0CAFC22462B4600F02CFD002266E90201724B2046294600F024FD5B
:4030C000BE4204460D46EBD1A8F1080806EB08039B460DF59879CDF818A0DDF824A04FF00008CDF81090BAF1000FC0F29580B8F1000FC0F29180DFF88C915D46002600273C
:40310000002401E0444510DCF9E90223F5E8020100F0FAFC02460B463046394600F042FB0134A24506460F46ECDA049BABF1080B03EBC803C3E90067009B08F10108984576
:40314000D1D1A69BDDF818A0DDF81090032B3BD8DFE813F0410004000400D70000273E46009B09EBC304384674E90223314600F019FB4C4507460E46F5D1039B002B00F012
:403180008B80D9E900010A9D334606F100463A466E602F6000F004FBBAF1000F03460CDD01261C46F9E90223204600F0FBFA0136B2450346F5DA039A0AB101F100411C461E
:4031C0000D460A9BC3E90245059B03F007000DF51D7DBDE8F08F00231946009A09EBC2091C4679E90223204600F0DCFA0AF1FF3ABAF1FF3F0346F3D1039A0AB101F10041E5
:403200001C460D460A9BC3E90045059B03F007000DF51D7DBDE8F08F0026002785E7A69B032BD1D8DFE803F04E3030020DF59879039A00231E46002A00F0C8800A9FD9F89B
:403240000800D9F80440D9F80C203B61059BD9F8001006F1004604F1004402F10042B86003F007007E617C60FA6039600DF51D7DBDE8F08F0000F03F0000E03F00007041ED
:403280000000703EA85A0000039B00273E460DF59879002B7FF475AFD9E9000135463C4633460A9E3A46C6E9004500F079FABAF1000F03463FF774AF1C460D460A9BC3E926
:4032C000024581E70023194696E7089A10AB53F82A30183A0395CDF814800892002B7FF4C9AE10AB03EB8A0353F8041D0AF1FF3A183A0029F8D00892BCE60123E0E50024CA
:403300009EE5BAF1000F93DD4FEACA0809EB08039B46D3E900677BE9022330463946CDE9002300F03FFA04460D46DDE9000122462B4600F035FA02460B463046394600F078
:4033400031FACB4526462F46CBE90201CBE90045E1D1BAF1010F7FF76BAF09EB08039A46D3E900670DF59C7B7AE902231046194632463B46CDE9000100F014FA04460D46E1
:40338000DDE9000122462B4600F00AFA32463B4600F008FADA4526462F46CAE90201CAE90045E1D100231E4608F108044C4450AD184674E90223314600F0F4F9AC420346AA
:4033C0000E46F5D1039A002A7FF438AFD9E90045D9E90289184631460A9A059BC2E9040103F00700C2E90045C2E902890DF51D7DBDE8F08F2046294600F020FE10ABDA46D7
:4034000043F82B0036E600BF2DE9F04F21F00046B6F1795F85B00C4690469946054604DA00F00CFE002800F083802A4623462846214600F069FB2A46234606460F4600F03A
:4034400063FB3FA3D3E9002382468B463046394600F05AFB3CA3D3E9002300F0A1F932463B4600F051FB3AA3D3E9002300F09AF932463B4600F048FB37A3D3E9002300F0C9
:403480008FF932463B4600F03FFB35A3D3E9002300F088F90E9BCDE900019BB3404649460022334B00F030FBDDE90023CDE902015046594600F028FB02460B46DDE902016F
:4034C00000F06EF932463B4600F01EFB42464B4600F066F924A3D3E9002306460F465046594600F011FB02460B463046394600F059F902460B462846214600F051F905B066
:40350000BDE8F08FDDE900233046394600F0FCFA15A3D3E9002300F043F952465B4600F0F3FA2A46234600F03DF905B0BDE8F08F2846214605B0BDE8F08F00BFAFF3008063
:403540007CD5CF5A3AD9E53DEB9C2B8AE6E55A3E7DFEB157E31DC73ED561C119A0012A3FA6F810111111813F495555555555C53F0000E03FAFF3008021F00041704700BFBB
:403580002DE9F047C1F30A58A8F2FF36132E0B4604460D460246894607461DDC002E40DBDFF8F08048FA06F808EA010E5EEA020217D035A3D3E9002300F0F4F80022002371
:4035C00000F032FD20B1002D40DB29EA0805002738462946BDE8F087332E06DDB6F5806F2FD020461946BDE8F087A8F213424FF0FF3A2AFA02FA1AEA000FF2D022A3D3E9A8
:40360000002300F0CFF80022002300F00DFD0028DED0002D1FDB4D4627EA0A0738462946D8E719A3D3E9002300F0BCF80022002300F0FAFC0028CBD0002D1ADB00273D461A
:40364000C6E702460B4600F0ADF8CCE74FF4801333419944B9E7142E08D0C8F5866808F10308012303FA08F31F19D4D309F10109D1E725F00042064B224318BF1D46002707
:40368000A6E700BFAFF300809C7500883CE4377E0000F0BFFFFF0F00F8B5C1F30A5604460D460B46174616BB21F00043034332D00022314B00F028FA304A044697420D4659
:4036C0000B4637DB40F2FE72C1F30A56363E3E44964215DD24A1D1E9000122462B4600F053F821A3D3E9002300F00EFAF8BD40F2FF72964224D040F2FE723E449642E9DCDD
:40370000002E09DD23F0FF4323F4E00343EA065520462946F8BDF8BD16F1350F15DA4CF250339F42D6DC12A1D1E9000122462B4600F02AF80EA3D3E9002300F0E5F9F8BD65
:4037400002460B4600F02EF8F8BD23F0FF4323F4E003363643EA0655204629460022084B00F0D2F9F8BD00BF9C7500883CE4377E59F3F8C21F6EA50100005043B03CFFFF05
:403780000000903CAFF3008003F0004321F0004243EA0201704700BF81F0004102E000BF83F0004330B54FEA41044FEA430594EA050F08BF90EA020F1FBF54EA000C55EAB4
:4037C000020C7FEA645C7FEA655C00F0E2804FEA5454D4EB5555B8BF6D420CDD2C4480EA020281EA030382EA000083EA010180EA020281EA0303362D88BF30BD11F0004FCD
:403800004FEA01314FF4801C4CEA113102D0404261EB410113F0004F4FEA03334CEA133302D0524263EB430394EA050F00F0A780A4F10104D5F1200E0DDB02FA0EFC22FA6C
:4038400005F2801841F1000103FA0EF2801843FA05F359410EE0A5F120050EF1200E012A03FA0EFC28BF4CF0020C43FA05F3C01851EBE37101F0004507D54FF0000EDCF120
:40388000000C7EEB00006EEB0101B1F5801F1BD3B1F5001F0CD349085FEA30004FEA3C0C04F101044FEA445212F5800F80F09A80BCF1004F08BF5FEA500C50F1000041EB58
:4038C000045141EA050130BD5FEA4C0C404141EB010111F4801FA4F10104E9D191F0000F04BF01460020B1FA81F308BF2033A3F10B03B3F120020CDA0C3208DD02F1140C96
:40390000C2F10C0201FA0CF021FA02F10CE002F11402D8BFC2F1200C01FA02F120FA0CFCDCBF41EA0C019040E41AA2BF01EB0451294330BD6FEA04041F3C1CDA0C340EDCCE
:4039400004F11404C4F1200220FA04F001FA02F340EA030021FA04F345EA030130BDC4F10C04C4F1200220FA02F001FA04F340EA0300294630BD21FA04F0294630BD94F0F4
:40398000000F83F4801306BF81F480110134013D4EE77FEA645C18BF7FEA655C29D094EA050F08BF90EA020F05D054EA000C04BF1946104630BD91EA030F1EBF0021002045
:4039C00030BD5FEA545C05D14000494128BF41F0004130BD14F580043CBF01F5801130BD01F0004545F0FE4141F470014FF0000030BD7FEA645C1ABF194610467FEA655CA2
:403A00001CBF0B46024650EA013406BF52EA033591EA030F41F4002130BD00BF90F0000F04BF0021704730B54FF4806404F132044FF000054FF0000150E700BF90F0000F71
:403A400004BF0021704730B54FF4806404F1320410F0004548BF40424FF000013EE700BF42004FEAE2014FEA31014FEA02701FBF12F07F4393F07F4F81F06051704792F0C0
:403A8000000F14BF93F07F4F704730B54FF4607401F0004521F0004120E700BF50EA010208BF704730B54FF000050AE050EA010208BF704730B511F0004502D5404261EB79
:403AC00041014FF4806404F132045FEA915C3FF4DCAE4FF003025FEADC0C18BF03325FEADC0C18BF033202EBDC02C2F1200300FA03FC20FA02F001FA03FE40EA0E0021FA8C
:403B000002F11444C1E600BF70B54FF0FF0C4CF4E06C1CEA11541DBF1CEA135594EA0C0F95EA0C0F00F0DEF82C4481EA030621EA4C5123EA4C5350EA013518BF52EA033538
:403B400041F4801143F4801338D0A0FB02CE4FF00005E1FB02E506F00042E0FB03E54FF00006E1FB03569CF0000F18BF4EF0010EA4F1FF04B6F5007F64F5407404D25FEA19
:403B80004E0E6D4146EB060642EAC62141EA55514FEAC52040EA5E504FEACE2EB4F1FD0C88BFBCF5E06F1ED8BEF1004F08BF5FEA500E50F1000041EB045170BD06F000462D
:403BC00046EA010140EA020081EA0301B4EB5C04C2BFD4EB0C0541EA045170BD41F480114FF0000E013C00F3AB8014F1360FDEBF002001F0004170BDC4F10004203C35DA03
:403C00000C341BDC04F11404C4F1200500FA05F320FA04F001FA05F240EA020001F0004221F0004110EBD37021FA04F642EB06015EEA430E08BF20EAD37070BDC4F10C049D
:403C4000C4F1200500FA04F320FA05F001FA04F240EA020001F0004110EBD37041F100015EEA430E08BF20EAD37070BDC4F1200500FA05F24EEA020E20FA04F301FA05F2BA
:403C800043EA020321FA04F001F0004121FA04F220EA020000EBD3705EEA430E08BF20EAD37070BD94F0000F0FD101F00046400041EB010111F4801F08BF013CF7D041EABA
:403CC000060195F0000F18BF704703F00046520043EB030313F4801F08BF013DF7D043EA0603704794EA0C0F0CEA135518BF95EA0C0F0CD050EA410618BF52EA4306D1D1BA
:403D000081EA030101F000414FF0000070BD50EA410606BF1046194652EA430619D094EA0C0F02D150EA013613D195EA0C0F05D152EA03361CBF104619460AD181EA03018D
:403D400001F0004141F0FE4141F470014FF0000070BD41F0FE4141F4780170BD70B54FF0FF0C4CF4E06C1CEA11541DBF1CEA135594EA0C0F95EA0C0F00F0A7F8A4EB05043A
:403D800081EA030E52EA03354FEA013100F088804FEA03334FF0805545EA131343EA12634FEA022245EA111545EA10654FEA00260EF000419D4208BF964244F1FD0404F595
:403DC000407402D25B084FEA3202B61A65EB03055B084FEA32024FF480104FF4002CB6EB020E75EB030E22BFB61A754640EA0C005B084FEA3202B6EB020E75EB030E22BF9A
:403E0000B61A754640EA5C005B084FEA3202B6EB020E75EB030E22BFB61A754640EA9C005B084FEA3202B6EB020E75EB030E22BFB61A754640EADC0055EA060E18D04FEA75
:403E4000051545EA16754FEA06164FEAC30343EA52734FEAC2025FEA1C1CC0D111F4801F0BD141EA00014FF000004FF0004CB6E711F4801F04BF01430020B4F1FD0C88BF46
:403E8000BCF5E06F3FF6AFAEB5EB030C04BFB6EB020C5FEA500C50F1000041EB045170BD0EF0004E4EEA113114EB5C04C2BFD4EB0C0541EA045170BD41F480114FF0000E85
:403EC000013C90E645EA060E8DE60CEA135594EA0C0F08BF95EA0C0F3FF43BAF94EA0C0F0AD150EA01347FF434AF95EA0C0F7FF425AF104619462CE795EA0C0F06D152EA55
:403F000003353FF4FDAE1046194622E750EA410618BF52EA43067FF4C5AE50EA41047FF40DAF52EA43057FF4EBAE12E74FF0FF3C06E000BF4FF0010C02E000BF4FF0010C5B
:403F40004DF804CD4FEA410C7FEA6C5C4FEA430C18BF7FEA6C5C1BD001B050EA410C0CBF52EA430C91EA030F02BF90EA020F0020704710F1000F91EA030F58BF994208BF65
:403F800090422CBFD8176FEAE37040F0010070474FEA410C7FEA6C5C02D150EA013C07D14FEA430C7FEA6C5CD6D152EA033CD3D05DF8040B704700BF8446104662468C46F6
:403FC0001946634600E000BF01B5FFF7B7FF002848BF10F1000F01BD4DF808EDFFF7F4FF0CBF012000205DF808FB00BF4DF808EDFFF7EAFF34BF012000205DF808FB00BF11
:404000004DF808EDFFF7E0FF94BF012000205DF808FB00BF4DF808EDFFF7CEFF94BF012000205DF808FB00BF4DF808EDFFF7C4FF34BF012000205DF808FB00BF4FEA410264
:4040400012F5001215D211D56FF47873B3EB625212D94FEAC12343F0004343EA505311F0004F23FA02F018BF404270474FF00000704750EA013005D111F0004008BF6FF05F
:40408000004070474FF00000704700BF4A0011D212F5001211D20DD56FF47873B3EB62520ED44FEAC12343F0004343EA505323FA02F070474FF00000704750EA013002D16A
:4040C0004FF0FF3070474FF00000704780F0004002E000BF81F0004142001FBF5FEA410392EA030F7FEA226C7FEA236C6AD04FEA1262D2EB1363C1BFD2184140484041406A
:40410000B8BF5B42192B88BF704710F0004F40F4000020F07F4018BF404211F0004F41F4000121F07F4118BF494292EA030F3FD0A2F1010241FA03FC10EB0C00C3F120037A
:4041400001FA03F100F0004302D5494260EB4000B0F5000F13D3B0F1807F06D340084FEA310102F10102FE2A51D2B1F1004F40EBC25008BF20F0010040EA030070474900F6
:4041800040EB000010F4000FA2F10102EDD1B0FA80FCACF1080CB2EB0C0200FA0CF0AABF00EBC25052421843BCBFD0401843704792F0000F81F4000106BF80F40000013290
:4041C000013BB5E74FEA41037FEA226C18BF7FEA236C21D092EA030F04D092F0000F08BF0846704790EA010F1CBF0020704712F07F4F04D1400028BF40F00040704712F1C2
:4042000000723CBF00F50000704700F0004343F0FE4040F4000070477FEA226216BF08467FEA23630146420206BF5FEA412390EA010F40F4800070474FF0000304E000BF00
:4042400010F0004348BF40425FEA000C08BF704743F0964301464FF000001CE050EA010208BF70474FF000030AE000BF50EA010208BF704711F0004302D5404261EB410185
:404280005FEA010C02BF84460146002043F0B64308BFA3F18053A3F50003BCFA8CF2083AA3EBC25310DB01FA02FC634400FA02FCC2F12002BCF1004F20FA02F243EB020016
:4042C00008BF20F00100704702F1200201FA02FCC2F1200250EA4C0021FA02F243EB020008BF20EADC7070474FF0FF0C1CEAD0521EBF1CEAD15392EA0C0F93EA0C0F6FD0CC
:404300001A4480EA010C400218BF5FEA41211ED04FF0006343EA501043EA5111A0FB01310CF00040B1F5000F3EBF490041EAD3715B0040EA010062F17F02FD2A1DD8B3F1AB
:40434000004F40EBC25008BF20F00100704790F0000F0CF0004C08BF49024CEA502040EA51207F3AC2BFD2F1FF0340EAC250704740F400004FF00003013A5DDC12F1190FF1
:40438000DCBF00F000407047C2F10002410021FA02F1C2F1200200FA02FC5FEA310040F1000053EA4C0308BF20EADC70704792F0000F00F0004C02BF400010F4000F013A83
:4043C000F9D040EA0C0093F0000F01F0004C02BF490011F4000F013BF9D041EA0C018FE70CEAD15392EA0C0F18BF93EA0C0F0AD030F0004C18BF31F0004CD8D180EA010060
:4044000000F00040704790F0000F17BF90F0004F084691F0000F91F0004F14D092EA0C0F01D142020FD193EA0C0F03D14B0218BF084608D180EA010000F0004040F0FE4082
:4044400040F40000704740F0FE4040F4400070474FF0FF0C1CEAD0521EBF1CEAD15392EA0C0F93EA0C0F69D0A2EB030280EA010C49024FEA402037D04FF0805343EA111182
:4044800043EA10130CF000408B4238BF5B0042F17D024FF4000C8B4224BF5B1A40EA0C00B3EB510F24BFA3EB510340EA5C00B3EB910F24BFA3EB910340EA9C00B3EBD10F25
:4044C00024BFA3EBD10340EADC001B0118BF5FEA1C1CE0D1FD2A3FF650AF8B4240EBC25008BF20F0010070470CF0004C4CEA50207F32C2BFD2F1FF0340EAC250704740F44C
:4045000000004FF00003013A37E792F0000F00F0004C02BF400010F4000F013AF9D040EA0C0093F0000F01F0004C02BF490011F4000F013BF9D041EA0C0195E70CEAD15305
:4045400092EA0C0F08D142027FF47DAF93EA0C0F7FF470AF084676E793EA0C0F04D14B023FF44CAF08466EE730F0004C18BF31F0004CCAD130F000427FF45CAF31F00043F9
:404580007FF43CAF5FE700BF42000ED2B2F1FE4F0BD34FF09E03B3EB126209D44FEA002343F0004323FA02F070474FF00000704712F1610F01D1420202D14FF0FF307047CA
:4045C0004FF00000704700BF014B1868704700BFAC81FF1F0E4B70B51E460E4C0025E41AA410A54204D056F8253098470135F8E701F080FA084B094C1E46E41AA4100025C6
:40460000A54204D056F8253098470135F8E770BD005B0000005B0000005B0000085B000010B5431E0A44914204D011F8014B03F8014FF8E710BD03460244934202D003F8EF
:40464000011BFAE7704700000000000000000000416D706C697475642061756D656E746164610D0A00000000416D706C697475642061756D656E746164610000416D706CC5
:40468000697475642064656372656D656E746164610D0A00416D706C697475642064656372656D656E746164610000004672656375656E6369612061756D656E746164612E
:4046C0000D0A00004672656375656E6369612061756D656E74616461000000004672656375656E6369612064656372656D656E746164610D0A0000004672656375656E63AA
:4047000069612064656372656D656E74616461005469706F206465206F6E64612063616D626961646F0D0A005469706F206465206F6E64612063616D626961646F0000006D
:40474000436F6D616E646F20646573636F6E6F6369646F0D0A000000436F6D616E646F20646573636F6E6F6369646F00005100401000305100404000C05100401000000049
:404780000140001000140140000800400140000A004C01400002005001402000303132333435363738394142434445460000000080808080808081818181818282828282CF
:4047C00083838383838484848484858585858586868686868787878787888888888889898989898A8A8A8A8A8A8B8B8B8B8B8C8C8C8C8C8D8D8D8D8D8E8E8E8E8E8F8F8F84
:404800008F8F909090909091919191919292929292929393939393949494949495959595959696969696979797979798989898989899999999999A9A9A9A9A9B9B9B9B9B26
:404840009C9C9C9C9C9C9D9D9D9D9D9E9E9E9E9E9F9F9F9F9FA0A0A0A0A0A0A1A1A1A1A1A2A2A2A2A2A3A3A3A3A3A4A4A4A4A4A4A5A5A5A5A5A6A6A6A6A6A7A7A7A7A7A7D7
:40488000A8A8A8A8A8A9A9A9A9A9A9AAAAAAAAAAABABABABABACACACACACACADADADADADAEAEAEAEAEAEAFAFAFAFAFB0B0B0B0B0B0B1B1B1B1B1B2B2B2B2B2B2B3B3B3B39C
:4048C000B3B3B4B4B4B4B4B5B5B5B5B5B5B6B6B6B6B6B6B7B7B7B7B7B8B8B8B8B8B8B9B9B9B9B9B9BABABABABABBBBBBBBBBBBBCBCBCBCBCBCBDBDBDBDBDBDBEBEBEBEBE83
:40490000BEBFBFBFBFBFBFC0C0C0C0C0C0C1C1C1C1C1C1C2C2C2C2C2C2C3C3C3C3C3C3C4C4C4C4C4C4C5C5C5C5C5C5C6C6C6C6C6C6C7C7C7C7C7C7C8C8C8C8C8C8C8C9C98D
:40494000C9C9C9C9CACACACACACACBCBCBCBCBCBCBCCCCCCCCCCCCCDCDCDCDCDCDCECECECECECECECFCFCFCFCFCFCFD0D0D0D0D0D0D1D1D1D1D1D1D1D2D2D2D2D2D2D2D3C1
:40498000D3D3D3D3D3D3D4D4D4D4D4D4D4D5D5D5D5D5D5D5D6D6D6D6D6D6D6D7D7D7D7D7D7D7D8D8D8D8D8D8D8D9D9D9D9D9D9D9DADADADADADADADADBDBDBDBDBDBDBDC2B
:4049C000DCDCDCDCDCDCDCDDDDDDDDDDDDDDDEDEDEDEDEDEDEDEDFDFDFDFDFDFDFDFE0E0E0E0E0E0E0E0E1E1E1E1E1E1E1E1E2E2E2E2E2E2E2E2E3E3E3E3E3E3E3E3E3E4C9
:404A0000E4E4E4E4E4E4E4E5E5E5E5E5E5E5E5E5E6E6E6E6E6E6E6E6E6E7E7E7E7E7E7E7E7E7E8E8E8E8E8E8E8E8E8E9E9E9E9E9E9E9E9E9E9EAEAEAEAEAEAEAEAEAEAEBA7
:404A4000EBEBEBEBEBEBEBEBEBECECECECECECECECECECEDEDEDEDEDEDEDEDEDEDEEEEEEEEEEEEEEEEEEEEEEEFEFEFEFEFEFEFEFEFEFEFEFF0F0F0F0F0F0F0F0F0F0F0F1CA
:404A8000F1F1F1F1F1F1F1F1F1F1F1F2F2F2F2F2F2F2F2F2F2F2F2F2F3F3F3F3F3F3F3F3F3F3F3F3F3F4F4F4F4F4F4F4F4F4F4F4F4F4F4F4F5F5F5F5F5F5F5F5F5F5F5F532
:404AC000F5F5F6F6F6F6F6F6F6F6F6F6F6F6F6F6F6F6F7F7F7F7F7F7F7F7F7F7F7F7F7F7F7F7F7F7F8F8F8F8F8F8F8F8F8F8F8F8F8F8F8F8F8F8F8F9F9F9F9F9F9F9F9F9E5
:404B0000F9F9F9F9F9F9F9F9F9F9F9F9F9FAFAFAFAFAFAFAFAFAFAFAFAFAFAFAFAFAFAFAFAFAFAFAFAFAFBFBFBFBFBFBFBFBFBFBFBFBFBFBFBFBFBFBFBFBFBFBFBFBFBFBE8
:404B4000FBFBFBFBFBFBFBFBFCFCFCFCFCFCFCFCFCFCFCFCFCFCFCFCFCFCFCFCFCFCFCFCFCFCFCFCFCFCFCFCFCFCFCFCFCFCFCFCFCFCFCFCFCFCFCFCFCFCFCFCFCFCFCFC3D
:404B8000FCFCFCFCFCFCFCFCFCFCFCFCFCFCFCFCFCFCFCFCFCFCFCFCFCFCFCFCFCFCFCFCFCFCFCFCFCFCFCFCFCFCFCFCFCFCFCFCFCFCFCFCFCFCFCFCFCFCFCFCFCFCFCFCF5
:404BC000FCFCFCFCFCFCFCFCFCFCFCFCFCFCFCFCFCFCFCFCFCFCFCFCFCFCFCFCFCFCFCFCFCFCFCFCFCFCFCFCFCFBFBFBFBFBFBFBFBFBFBFBFBFBFBFBFBFBFBFBFBFBFBFBCC
:404C0000FBFBFBFBFBFBFBFBFBFBFBFAFAFAFAFAFAFAFAFAFAFAFAFAFAFAFAFAFAFAFAFAFAFAFAFAF9F9F9F9F9F9F9F9F9F9F9F9F9F9F9F9F9F9F9F9F9F9F8F8F8F8F8F80B
:404C4000F8F8F8F8F8F8F8F8F8F8F8F8F8F7F7F7F7F7F7F7F7F7F7F7F7F7F7F7F7F7F7F6F6F6F6F6F6F6F6F6F6F6F6F6F6F6F6F5F5F5F5F5F5F5F5F5F5F5F5F5F5F4F4F49C
:404C8000F4F4F4F4F4F4F4F4F4F4F4F4F3F3F3F3F3F3F3F3F3F3F3F3F3F2F2F2F2F2F2F2F2F2F2F2F2F2F1F1F1F1F1F1F1F1F1F1F1F1F0F0F0F0F0F0F0F0F0F0F0EFEFEF7A
:404CC000EFEFEFEFEFEFEFEFEFEEEEEEEEEEEEEEEEEEEEEEEDEDEDEDEDEDEDEDEDEDECECECECECECECECECECEBEBEBEBEBEBEBEBEBEBEAEAEAEAEAEAEAEAEAEAE9E9E9E9A3
:404D0000E9E9E9E9E9E9E8E8E8E8E8E8E8E8E8E7E7E7E7E7E7E7E7E7E6E6E6E6E6E6E6E6E6E5E5E5E5E5E5E5E5E5E4E4E4E4E4E4E4E4E3E3E3E3E3E3E3E3E3E2E2E2E2E20E
:404D4000E2E2E2E1E1E1E1E1E1E1E1E0E0E0E0E0E0E0E0DFDFDFDFDFDFDFDFDEDEDEDEDEDEDEDEDDDDDDDDDDDDDDDCDCDCDCDCDCDCDCDBDBDBDBDBDBDBDADADADADADADABF
:404D8000DAD9D9D9D9D9D9D9D8D8D8D8D8D8D8D7D7D7D7D7D7D7D6D6D6D6D6D6D6D5D5D5D5D5D5D5D4D4D4D4D4D4D4D3D3D3D3D3D3D3D2D2D2D2D2D2D2D1D1D1D1D1D1D1AE
:404DC000D0D0D0D0D0D0CFCFCFCFCFCFCFCECECECECECECECDCDCDCDCDCDCCCCCCCCCCCCCBCBCBCBCBCBCBCACACACACACAC9C9C9C9C9C9C8C8C8C8C8C8C8C7C7C7C7C7C7D1
:404E0000C6C6C6C6C6C6C5C5C5C5C5C5C4C4C4C4C4C4C3C3C3C3C3C3C2C2C2C2C2C2C1C1C1C1C1C1C0C0C0C0C0C0BFBFBFBFBFBFBEBEBEBEBEBEBDBDBDBDBDBDBCBCBCBC28
:404E4000BCBCBBBBBBBBBBBBBABABABABAB9B9B9B9B9B9B8B8B8B8B8B8B7B7B7B7B7B6B6B6B6B6B6B5B5B5B5B5B5B4B4B4B4B4B3B3B3B3B3B3B2B2B2B2B2B2B1B1B1B1B1A4
:404E8000B0B0B0B0B0B0AFAFAFAFAFAEAEAEAEAEAEADADADADADACACACACACACABABABABABAAAAAAAAAAA9A9A9A9A9A9A8A8A8A8A8A7A7A7A7A7A7A6A6A6A6A6A5A5A5A547
:404EC000A5A4A4A4A4A4A4A3A3A3A3A3A2A2A2A2A2A1A1A1A1A1A0A0A0A0A0A09F9F9F9F9F9E9E9E9E9E9D9D9D9D9D9C9C9C9C9C9C9B9B9B9B9B9A9A9A9A9A999999999907
:404F000098989898989897979797979696969696959595959594949494949393939393929292929292919191919190909090908F8F8F8F8F8E8E8E8E8E8D8D8D8D8D8C8CD9
:404F40008C8C8C8B8B8B8B8B8A8A8A8A8A8A8989898989888888888887878787878686868686858585858584848484848383838383828282828281818181818080808080B9
:404F8000807F7F7F7F7F7E7E7E7E7E7D7D7D7D7D7C7C7C7C7C7B7B7B7B7B7A7A7A7A7A7979797979787878787877777777777676767676757575757575747474747473739C
:404FC0007373737272727272717171717170707070706F6F6F6F6F6E6E6E6E6E6D6D6D6D6D6D6C6C6C6C6C6B6B6B6B6B6A6A6A6A6A6969696969686868686867676767677D
:40500000676666666666656565656564646464646363636363636262626262616161616160606060605F5F5F5F5F5F5E5E5E5E5E5D5D5D5D5D5C5C5C5C5C5B5B5B5B5B5B4E
:405040005A5A5A5A5A5959595959585858585858575757575756565656565655555555555454545454535353535353525252525251515151515150505050504F4F4F4F4F10
:405080004F4E4E4E4E4E4D4D4D4D4D4D4C4C4C4C4C4C4B4B4B4B4B4A4A4A4A4A4A4949494949494848484848474747474747464646464646454545454544444444444443B2
:4050C00043434343434242424242424141414141414040404040403F3F3F3F3F3F3E3E3E3E3E3E3D3D3D3D3D3D3C3C3C3C3C3C3B3B3B3B3B3B3A3A3A3A3A3A393939393930
:4051000039383838383838373737373737373636363636363535353535353434343434343433333333333332323232323231313131313131303030303030302F2F2F2F2F87
:405140002F2E2E2E2E2E2E2E2D2D2D2D2D2D2D2C2C2C2C2C2C2C2B2B2B2B2B2B2B2A2A2A2A2A2A2A29292929292929282828282828282727272727272726262626262626AA
:40518000252525252525252524242424242424232323232323232322222222222222212121212121212120202020202020201F1F1F1F1F1F1F1F1E1E1E1E1E1E1E1E1D1D9B
:4051C0001D1D1D1D1D1D1C1C1C1C1C1C1C1C1C1B1B1B1B1B1B1B1B1A1A1A1A1A1A1A1A1A19191919191919191918181818181818181817171717171717171716161616164D
:4052000016161616161515151515151515151514141414141414141414131313131313131313131212121212121212121211111111111111111111111010101010101010B9
:40524000101010100F0F0F0F0F0F0F0F0F0F0F0E0E0E0E0E0E0E0E0E0E0E0E0D0D0D0D0D0D0D0D0D0D0D0D0D0C0C0C0C0C0C0C0C0C0C0C0C0C0B0B0B0B0B0B0B0B0B0B0BE3
:405280000B0B0B0B0A0A0A0A0A0A0A0A0A0A0A0A0A0A09090909090909090909090909090909080808080808080808080808080808080808070707070707070707070707C2
:4052C0000707070707070706060606060606060606060606060606060606060606050505050505050505050505050505050505050505050505050404040404040404040454
:405300000404040404040404040404040404040404040404040404040303030303030303030303030303030303030303030303030303030303030303030303030303030395
:40534000030303030303030303030303030303030303030303030303030303030303030303030303030303030303030303030303030303030303030303030303030303036D
:405380000303030303030303030303030303030303030303030303030303030303030303030303030303030303030303030303030303030303030303030404040404040426
:4053C000040404040404040404040404040404040404040404040404040404050505050505050505050505050505050505050505050505050606060606060606060606067C
:405400000606060606060606060607070707070707070707070707070707070707080808080808080808080808080808080808090909090909090909090909090909090A81
:405440000A0A0A0A0A0A0A0A0A0A0A0A0A0B0B0B0B0B0B0B0B0B0B0B0B0B0B0B0C0C0C0C0C0C0C0C0C0C0C0C0C0D0D0D0D0D0D0D0D0D0D0D0D0D0E0E0E0E0E0E0E0E0E0E34
:405480000E0E0F0F0F0F0F0F0F0F0F0F0F1010101010101010101010101111111111111111111111121212121212121212121313131313131313131314141414141414149E
:4054C000141415151515151515151515161616161616161616161717171717171717171818181818181818181919191919191919191A1A1A1A1A1A1A1A1A1B1B1B1B1B1BC2
:405500001B1B1C1C1C1C1C1C1C1C1C1D1D1D1D1D1D1D1D1E1E1E1E1E1E1E1E1F1F1F1F1F1F1F1F2020202020202020212121212121212122222222222222232323232323A1
:405540002323242424242424242525252525252525262626262626262727272727272728282828282828292929292929292A2A2A2A2A2A2A2B2B2B2B2B2B2B2C2C2C2C2C40
:405580002C2C2D2D2D2D2D2D2D2E2E2E2E2E2E2E2F2F2F2F2F2F303030303030303131313131313132323232323233333333333334343434343434353535353535363636AB
:4055C000363636373737373737373838383838383939393939393A3A3A3A3A3A3B3B3B3B3B3B3C3C3C3C3C3C3D3D3D3D3D3D3E3E3E3E3E3E3F3F3F3F3F3F404040404040E0
:40560000414141414141424242424242434343434343444444444444454545454546464646464647474747474748484848484949494949494A4A4A4A4A4A4B4B4B4B4B4CEA
:405640004C4C4C4C4C4D4D4D4D4D4D4E4E4E4E4E4F4F4F4F4F4F505050505051515151515152525252525353535353535454545454555555555556565656565657575757D1
:405680005758585858585859595959595A5A5A5A5A5B5B5B5B5B5B5C5C5C5C5C5D5D5D5D5D5E5E5E5E5E5F5F5F5F5F5F606060606061616161616262626262636363636397
:4056C00063646464646465656565656666666666676767676767686868686869696969696A6A6A6A6A6B6B6B6B6B6C6C6C6C6C6D6D6D6D6D6D6E6E6E6E6E6F6F6F6F6F7049
:4057000070707070717171717172727272727373737373747474747475757575757576767676767777777777787878787879797979797A7A7A7A7A7B7B7B7B7B7C7C7C7CEA
:405740007C7D7D7D7D7D7E7E7E7E7E7F7F7F7F7F80848A8F94989EA2A8ACB2B6BCC0C6CAD0D5DADEE4E8EEF2F8FCF8F2EEE8E4DEDAD4D0CAC6C0BCB6B2ADA8A29E98948F39
:405780008A84807A76706B66615D58534E49443E39342F2A25211C17120D0803080D12171C21252A2F34393E44494E53585D61666B70767A01000000BC5700000100000011
:4057C00000590000000000000000000001000000D457000001000000BC58000003000000005800000000000000000000000000000000000000000000FC570000020A000055
:4058000000008103080002000100820240000A000100030240000A0002030000040309042C0343007900700072006500730073002000530065006D00690063006F006E009C
:4058400064007500630074006F007200100355005300420055004100520054003803430044004300200043006F006D006D0075006E00690063006100740069006F006E00E3
:40588000200049006E007400650072006600610063006500260343004400430020004400610074006100200049006E007400650072006600610063006500000009024300AB
:4058C0000201018032090400000102020103052400100104240202052406000105240100010705810308000A09040100020A0000040705820240000007050302400000003A
:405900001201000202000008B40432F20100010280010000FB21F93FFB2109407CD91240FB2119407A6A1F407CD92240BBFD2540FB2129403A462C407A6A2F405C47314023
:405940007CD932409C6B3440BBFD3540DB8F3740FB2139401BB43A403A463C405AD83D407A6A3F404C7E40405C4741406C1042407CD942408CA243409C6B4440AC34454007
:40598000BBFD4540CBC64640DB8F4740EB584840FB21494083F9A200444E6E00FC291500D1572700DD34F50062DBC0003C999500419043006351FE00BBDEAB00B761C50037
:4059C0003A6E2400D24D42004906E00009EA2E001C92D100EB1DFE0029B11C00E83EA700F535820044BB2E009CE98400B4267000417E5F00D6913900538339009CF4390020
:405A00008B5F840028F9BD00F81F3B00DEFF97000F980500112FEF000A5A8B006D1F6D00CF7E360009CB2700464FB7009E663F002DEA5F00BA277500E5EBC7003D7BF10078
:405A4000F739070092528A00FB6BEA001FB15F00085D8D00300356007BFC4600F0AB6B0020BCCF0036F49A00E3A91D005E619100081BE60085996500A0145F008D40680088
:405A800080D8FF0027734D0006063100CA561500C9A873007BE260006B8CC000020000000300000004000000060000000000000000000040FB21F93F000000002D44743E18
:405AC000000000809846F83C0000006051CC783B00000080831BF0390000004020257A38000000802282E336000000001DF3693543000000F8B500BFF8BC08BC9E467047B9
:405B00004D00000009040000F8B500BFF8BC08BC9E46704729000000285B00000881FF1FA8000000B0100000000000007F00000022E3CD3A00C2010000000800C2010000B8
:405B400000080000A120000000000200000000007F800000030000000000C05D80BB000030000000006CDC02FFFF0000000000000000000000000000000000000000000088
:405B8000000000000000000000000000F05A00000000000000000000000000000000000000000000000000000000000000000000000000000000000000000000000000009B
:405BC0000000000000000000000000004C81FF1F000000000000000000000000000000000000000000000000000000000000000000000000000000000000000000000000BA
:405C00000000000000000000000000000000000000000000000000000000000000000000000000000000000000000000000000000000000000000000000000000000000064
:405C40000000000000000000000000000000000000000000000000000000000000000000000000000000000000000000000000000000000000000000000000000000000024
:405C800000000000000000000000000000000000000000000000000000000000000000000000000000000000000000000000000000000000000000000000000000000000E4
:405CC00000000000000000000000000000000000000000000000000000000000000000000000000000000000000000000000000000000000000000000000000000000000A4
:020000040003F7
:0200000480007A
:400000000145004001520040015A0040011501400217014002190140011B01400540014004410140044201400443014002460140054701400748014001490140034C0140C6
:40004000024D0140025101407E027C409701EC10EA02EE0AEA02EE0AEC10338136403D80CC70CE209F01A540A640A7809F01A540A640A7809F01A540A640A7803020CC08DD
:4000800008080B040F40A420C20E2550A540AE40AF81C820EA40EE50B510A420AC08AF44B420EC08002A10024000000000000000C0000000000B0B0000000000007F7F002E
:4000C0000000800000000000000000000000000000000000000000000000000000000000000000000000000000000000000000000000000000000000000000000000000080
:4001000000000000000000000000000000000000000000000000000000000000000000000000000000000000000000000000000000000000000000000000000000000000BF
:40014000000000000000000000000000000000000000000000000000000000000000000000000000000000000000000000000000000000000000000000000000000000007F
:40018000000000000000000000000000000000000000000000000000000000000000000000000000000000000000000000000000000000000000000000000000000000003F
:4001C00000000000000000000000000000000000000000000000000000000000000000000000000000000000000000000000000000000000000000000000000000000000FF
:0200000490006A
:0400000000004005B7
:0200000490105A
:04000000BC90ACAF55
:0200000490303A
:02000000880472
:0200000490402A
:4000000000000000000000000000000000000000000000000000000000000000000000000000000000000000000000000000000000000000000000000000000000000000C0
:400040000000000000000000000000000000000000000000000000000000000000000000000000000000000000000000000000000000000000000000000000000000000080
:400080000000000000000000000000000000000000000000000000000000000000000000000000000000000000000000000000000000000000000000000000000000000040
:4000C0000000000000000000000000000000000000000000000000000000000000000000000000000000000000000000000000000000000000000000000000000000000000
:0200000490501A
:0C00000000012E12306900012E37B86D8F
:00000001FF