:1000000002244D008F828E83E0540100000070F8BE
:100010002278FFE4F6D8FD0224AB9001F7E4F07BF0
:10002000007A0079009001FA120F74900153E4F005
:10003000A3E4F0906000E0FFEF5480FF7E00EF64E7
:10004000804E60030202AA906001E0FFEF120F8968
:1000500001D200006006025E08027E0A000004C5AC
:10006000906003E0FFEFB40135123C049001FFEE15
:10007000F0A3EFF09001FFE0FEA3E0FF8F828E83FC
:10008000A3120F7D900155120F74900153E4F0A359
:100090007412F012319E9001F7EFF00204C59060E7
:1000A00003E0FFEF6402707A906002E0FF122C8D93
:1000B0009001FFEEF0A3EFF09001FFE0FEA3E0FF60
:1000C000EF4E70030204C59001FFE0FEA3E0FF8F36
:1000D000828E83A3120F7D900155120F74900155EB
:1000E000120F6BE92403F9EA3400FA120D53FF7E74
:1000F00000EF7F00FE900155120F6BE92402F9EA30
:100100003400FA120D53FD7C00EE4CFEEF4DFF90D3
:100110000153EEF0A3EFF012319E9001F7EFF002E1
:1001200004C5906003E0FFEF640360030201C79021
:1001300001FDE4F07BFF7A3E79229001FA120F7400
:100140009001FDE0FF906002E0FEEED39F403D9005
:1001500001FA120F6B120D53FFEF60309001FA128B
:100160000F6B120D53FF9001FEEFF09001FA120F8A
:100170006B9001FEE0FF7E00E92FF9EA3EFA900164
:10018000FA120F749001FDE004F080B49001FA12AD
:100190000F6B120D53FFEF70030204C59001FA12AA
:1001A0000F6B120D53FF7E00900153EEF0A3EFF0A2
:1001B0009001FA120F6B900155120F7412319E903C
:1001C00001F7EFF00204C5122E479001F7EFF0029D
:1001D00004C5906000E0FFEF5403FFEF120F8902A7
:1001E0002C0001E902000004C5900153E4F0A3745F
:1001F00002F0906004E0FFEF547FFFEF75F00BA476
:100200002470F582E43401F583E0FF9002B1EFF051
:100210009002B2E4F07B017A0279B1900155120F9D
:100220007412319E9001F7EFF00204C5900153E47F
:10023000F0A37402F0900168E0FF9002B1EFF0903B
:1002400002B2E4F07B017A0279B1900155120F7489
:1002500012319E9001F7EFF00204C50204C590012F
:1002600053E4F0A37401F07B017A017969900155A0
:10027000120F7412319E9001F7EFF00204C5900145
:1002800053E4F0A37401F0906004E0FF74512FF97F
:10029000E43401FA7B01900155120F7412319E90E3
:1002A00001F7EFF00204C50204C5906001E0FFEF22
:1002B000120F8903A601043E0302C60502DB0903EF
:1002C000530B000004C5906002E0FF900162EFF064
:1002D000123C399001F7EFF00204C5906002E0FF94
:1002E0009001F9EFF09001F9E0FFEFD39400401393
:1002F0009001F9E0FFEF14FF122C8D9001FFEEF05A
:10030000A3EFF09001F9E0FFEFD39400400C9001CF
:10031000FFE0FEA3E0FFEF4E700B9001F9E0FFEF6E
:1003200060030204C5900169E0FF9001F9E0FEEE70
:100330006F60159001F9E0FF900169EFF090015FA7
:100340007401F07F011204CB123C399001F7EFF0F9
:100350000204C512296BEF70030204C5906004E02B
:10036000FF9001F8EFF09001F8E0FF90015BEFF0F3
:1003700090015F7401F01209719001F8E0FF74516F
:100380002FF582E43401F583E0FF9001F8E0FE747C
:10039000602EF582E43401F583EFF0123C399001D0
:1003A000F7EFF00204C5906000E0FFEF5403FFEFA9
:1003B000120F8903D60003FC0103C002000004C52C
:1003C000906002E0FFEF60030204C5121B969001EB
:1003D000F7EFF00204C5906002E0FFEF64016003F4
:1003E0000204C5900168E0FFEF54FDFF900168EF43
:1003F000F0123C399001F7EFF00204C5906004E080
:10040000FFEFC3940240030204C5906004E0FF7450
:10041000632FF582E43401F583C083C082E0FF904E
:100420006002E0FEEEF4FEEF5EFFD082D083EFF0DC
:10043000123C399001F7EFF00204C50204C5906048
:1004400000E0FFEF5403FFEF120F89046A00048CF1
:1004500001045802000004C5906002E0FFEF7065DF
:100460001223569001F7EFF0805B906002E0FFEFFF
:1004700064017051900168E0FFEF4402FF90016851
:10048000EFF0123C399001F7EFF08039906004E012
:10049000FFEFC39402502E906004E0FF74632FF5C9
:1004A00082E43401F583C083C082E0FF906002E003
:1004B000FEEEF4FEEF5EFFD082D083EFF0123C3907
:1004C0009001F7EFF09001F7E0FF22900201EFF0CA
:1004D000900209E4F0A3E4F0900202E4F09002023A
:1004E000E0FFEFC39409400302058A900202E0FF97
:1004F000EF75F00BA4246EF582E43401F583E4F08B
:10050000900202E0FFEF75F00BA42470F582E43452
:1005100001F583E4F0900202E0FFEF75F00BA424F4
:100520006FF582E43401F583E4F0900202E0FFEF1E
:1005300075F00BA42471F582E43401F583E4F090A6
:100540000202E0FFEF75F00BA42473F582E434019E
:10055000F583E4F0900202E0FFEF75F00BA424763F
:10056000F582E43401F583E4F0A3E4F0900202E0C4
:10057000FFEF75F00BA42478F582E43401F583E4F1
:10058000F0900202E004F00204DD900201E0FFEFCF
:10059000603A900204E4F0900204E0FFEFC394029A
:1005A000502A900204E0FF74512FF582E43401F5E3
:1005B00083E4F0900204E0FF74602FF582E43401DC
:1005C000F583E4F0900204E004F080CB900169E050
:1005D000FFEFD394005003020970900169E0FFEF30
:1005E00014FF122C8D90020BEEF0A3EFF090020B93
:1005F000E0FEA3E0FF8F828E83A3120F7D900206A0
:10060000120F74900206120F6BE92407F9EA340006
:10061000FA120D53FFEF5440FF7E00EF4E60109032
:100620000168E0FFEF4401FF900168EFF0800E9059
:100630000168E0FFEF54FEFF900168EFF090020BBD
:10064000E0FEA3E0FFEF2404FFEE3400FE90020B77
:10065000EEF0A3EFF090020BE0FEA3E0FF8F828E9E
:1006600083E493FF900202EFF09002047401F09093
:100670000204E0FFEFC39409400302088590020BD7
:10068000E0FEA3E0FF8F828E83A3120F7DAE02AF48
:100690000190020DEEF0A3EFF0900203E4F090025F
:1006A00002E0FF900203E0FEEEC39F400302087CDD
:1006B00090020DE0FEA3E0FF8F828E83740293FF11
:1006C000EF547FFF7E00900204E0FD7C00ED6F7030
:1006D00002EC6E600302085B90020DE0FEA3E0FFF7
:1006E0008F828E83740493FE740593FF900204E05E
:1006F000FDED75F00BA42476F582E43401F583E07A
:10070000FCA3E0FDC3ED9FEC9E502C90020DE0FE9B
:10071000A3E0FF8F828E83740493FE740593FF9091
:100720000204E0FDED75F00BA42476F582E43401BB
:10073000F583EEF0A3EFF090020DE0FEA3E0FF8F53
:10074000828E83E493FF74512FF582E43401F583A4
:10075000E0FF90020DE0FCA3E0FD8D828C8374012C
:1007600093FEEF6E600302085B90020DE0FEA3E0D3
:10077000FF8F828E83740393FFEF5403FF90020573
:10078000EFF090020DE0FEA3E0FF8F828E837402F3
:1007900093FFEF5480FF7E00EF4E603C900204E038
:1007A000FFEF75F00BA4246FF582E43401F5837438
:1007B00001F0900205E0FFEFB401047F0780027FA3
:1007C0000D900204E0FEEE75F00BA42473F582E4B4
:1007D0003401F583EFF08039900204E0FFEF75F00B
:1007E0000BA4246FF582E43401F583E4F090020554
:1007F000E0FFEFB401047F0580027F09900204E06E
:10080000FEEE75F00BA42473F582E43401F583EF5A
:10081000F090020DE0FEA3E0FF8F828E83740293BE
:10082000FF900204E0FEEE75F00BA42472F582E462
:100830003401F583EFF090020DE0FEA3E0FF8F821C
:100840008E83740393FF900204E0FEEE75F00BA418
:10085000246EF582E43401F583EFF090020DE0FEA2
:10086000A3E0FFEF2407FFEE3400FE90020DEEF050
:10087000A3EFF0900203E004F002069E900204E071
:1008800004F002066F90020BE0FEA3E0FF8F828E61
:1008900083A3120F7DAE02AF0190020DEEF0A3EF25
:1008A000F0900204E4F0900202E0FF900204E0FE07
:1008B000EEC39F505390020DE0FEA3E0FF8F828EA7
:1008C00083E493FF90020DE0FCA3E0FD8D828C8316
:1008D000740293FEEE547FFEEE75F00BA42478F5BF
:1008E00082E43401F583EFF090020DE0FEA3E0FF17
:1008F000EF2407FFEE3400FE90020DEEF0A3EFF0C0
:10090000900204E004F0809E122BEE90015DEEF068
:10091000A3EFF09002027401F0900202E0FFEFC337
:1009200094095049900209E0FEA3E0FF900202E022
:10093000FDED75F00BA42474F582E43401F583EE2B
:10094000F0A3EFF0900202E0FFEF75F00BA4247625
:10095000F582E43401F583E0FEA3E0FF900209EEA6
:100960008FF0120D7E900202E004F080AC1215DAD6
:1009700022900169E0FFEFD394005003020D5290E2
:100980000169E0FFEF14FF122C8D900206EEF0A338
:10099000EFF0900206E0FEA3E0FFEF2404FFEE3448
:1009A00000FE900206EEF0A3EFF0900206E0FEA338
:1009B000E0FF8F828E83E493FF900201EFF09002BC
:1009C00006E0FEA3E0FF8F828E83A3120F7DAE02AE
:1009D000AF01900208EEF0A3EFF0900203E4F09074
:1009E0000201E0FF900203E0FEEEC39F4003020D10
:1009F00052900208E0FEA3E0FF8F828E83E493FF13
:100A000074602FF582E43401F583E0FF900208E082
:100A1000FCA3E0FD8D828C83E493FE74512EF5825D
:100A2000E43401F583E0FEEE6F7003020D319002B5
:100A300008E0FEA3E0FF8F828E83E493FF74512FC2
:100A4000F582E43401F583E0FF900208E0FCA3E0C6
:100A5000FD8D828C83740193FEEF6E6003020D3175
:100A6000900208E0FEA3E0FF8F828E83E493FF9064
:100A70006004E0FEEF6E6003020D31900208E0FEBC
:100A8000A3E0FF8F828E83740293FFEF547FFF9069
:100A90000202EFF0900202E0FF7E00EF24FFFFEE83
:100AA00034FFFEEFC4F8540FC868FFEEC454F0489A
:100AB000FE900205EFF0900208E0FEA3E0FF8F82B7
:100AC0008E83740393FFEF5403FF900204EFF090C2
:100AD0000208E0FEA3E0FF8F828E83740293FFEF93
:100AE0005480FF7E00EF4E603C900202E0FFEF7505
:100AF000F00BA4246FF582E43401F5837401F090C7
:100B00000204E0FFEFB401047F0780027F0D900232
:100B100002E0FEEE75F00BA42473F582E43401F5D7
:100B200083EFF08039900202E0FFEF75F00BA42410
:100B30006FF582E43401F583E4F0900204E0FFEF06
:100B4000B401047F0580027F09900202E0FEEE7589
:100B5000F00BA42473F582E43401F583EFF09002E6
:100B600005E0FF7E00EF240EFFEE3460FE8F828EE4
:100B7000837401F0900208E0FEA3E0FF8F828E8371
:100B8000740493FE740593FF900202E0FDED75F08E
:100B90000BA42476F582E43401F583EEF0A3EFF0A4
:100BA000900208E0FEA3E0FF8F828E83740293FF21
:100BB000900202E0FEEE75F00BA42472F582E4349C
:100BC00001F583EFF0900208E0FEA3E0FF8F828E34
:100BD00083740393FF900202E0FEEE75F00BA424F1
:100BE0006EF582E43401F583EFF0900202E0FFEF4E
:100BF00075F00BA42471F582E43401F583E4F090E0
:100C00000202E0FFEF75F00BA42476F582E43401D4
:100C1000F583E0FEA3E0FFEEFF7E00900205E0FE1C
:100C2000EEFD7C00ED240CFDEC3460FC8D828C83A9
:100C3000EFF0900202E0FFEF75F00BA42476F5824E
:100C4000E43401F583E0FEA3E0FFEF54FFFF9002E0
:100C500005E0FEEEFD7C00ED240DFDEC3460FC8D26
:100C6000828C83EFF0900202E0FFEF75F00BA4247A
:100C700074F582E43401F583E0FEA3E0FFEF54FF56
:100C8000FF900205E0FEEEFD7C00ED2486FDEC34D5
:100C900060FC8D828C83EFF0900202E0FFEF75F034
:100CA0000BA42474F582E43401F583E0FEA3E0FF95
:100CB000EEFF7E00900205E0FEEEFD7C00ED248755
:100CC000FDEC3460FC8D828C83EFF0900202E0FF3B
:100CD000EF75F00BA42474F582E43401F583E0FE93
:100CE000A3E0FFEF54FFFF900205E0FEEEFD7C0065
:100CF000ED2484FDEC3460FC8D828C83EFF0900257
:100D000002E0FFEF75F00BA42474F582E43401F5E2
:100D100083E0FEA3E0FFEEFF7E00900205E0FEEE22
:100D2000FD7C00ED2485FDEC3460FC8D828C83EF2E
:100D3000F0900208E0FEA3E0FFEF2407FFEE34008E
:100D4000FE900208EEF0A3EFF0900203E004F00240
:100D500009DF22BB010689828A83E0225002E72252
:100D6000BBFE02E32289828A83E49322BB010689C7
:100D7000828A83F0225002F722BBFE01F322C5F0E3
:100D8000F8A3E028F0C5F0F8E5821582700215831B
:100D9000E038F022BB010A89828A83F0E5F0A3F0F3
:100DA000225006F709A7F01922BBFE06F3E5F00969
:100DB000F31922EF2BFFEE3AFEED39FDEC38FC2261
:100DC000E88FF0A4CC8BF0A42CFCE98EF0A42CFCD2
:100DD0008AF0EDA42CFCEA8EF0A4CDA8F08BF0A450
:100DE0002DCC3825F0FDE98FF0A42CCD35F0FCEBAF
:100DF0008EF0A4FEA9F0EB8FF0A4CFC5F02ECD3974
:100E0000FEE43CFCEAA42DCE35F0FDE43CFC22756A
:100E1000F008758200EF2FFFEE33FECD33CDCC33DB
:100E2000CCC58233C5829BED9AEC99E58298400C43
:100E3000F582EE9BFEED9AFDEC99FC0FD5F0D6E421
:100E4000CEFBE4CDFAE4CCF9A88222B800C1B90007
:100E500059BA002DEC8BF084CFCECDFCE5F0CBF968
:100E60007818EF2FFFEE33FEED33FDEC33FCEB3360
:100E7000FB10D703994004EB99FB0FD8E5E4F9FA8E
:100E8000227818EF2FFFEE33FEED33FDEC33FCC973
:100E900033C910D7059BE99A4007EC9BFCE99AF906
:100EA0000FD8E0E4C9FAE4CCFB2275F010EF2FFF75
:100EB000EE33FEED33FDCC33CCC833C810D7079BDF
:100EC000EC9AE899400AED9BFDEC9AFCE899F80F42
:100ED000D5F0DAE4CDFBE4CCFAE4C8F922EF5BFF0D
:100EE000EE5AFEED59FDEC58FC22EF4BFFEE4AFEA8
:100EF000ED49FDEC48FC22CFF4CFCEF4CECDF4CDBD
:100F0000CCF4CC22EB9FF5F0EA9E42F0E99D42F052
:100F1000E89C45F022E8600FECC313FCED13FDEEF6
:100F200013FEEF13FFD8F122E8600FEFC333FFEE9B
:100F300033FEED33FDEC33FCD8F122E0FCA3E0FD01
:100F4000A3E0FEA3E0FF22E0F8A3E0F9A3E0FAA308
:100F5000E0FB22ECF0A3EDF0A3EEF0A3EFF022A46F
:100F60002582F582E5F03583F58322E0FBA3E0FAE4
:100F7000A3E0F922EBF0A3EAF0A3E9F022E493FB6B
:100F8000740193FA740293F922D083D082F8E49327
:100F90007012740193700DA3A393F8740193F582FA
:100FA0008883E4737402936860EFA3A3A380DFE5F2
:100FB0000C2582F582E50B3583F583B50B0485821C
:100FC0000C2210AF0685820CF50B2285820CF50BE6
:100FD000D2AF22EC8EF0A4CCC5F0CCCDF8EFA4CEED
:100FE000C5F02DFDE43CFCE8A42EC8C5F03DFDE4B1
:100FF0003CFCEFA4FFE5F028FEE43DFDE43CFC22D0
:10100000E709F608DFFA8046E709F208DFFA803ED2
:1010100088828C83E709F0A3DFFA8032E309F608BF
:10102000DFFA806EE309F208DFFA806688828C833B
:10103000E309F0A3DFFA805A89828A83E0A3F608E5
:10104000DFFA804E89828A83E0A3F208DFFA8042C9
:1010500080D280FA80C680D4805580F280298010AA
:1010600080A680EA809A80A880DA80E280CA8029FF
:1010700088848C8589828A83E493A30586F0A305FE
:1010800086DFF5DEF3800B89828A83E493A3F6087A
:10109000DFF9ECFAA9F0EDFB2288848C8589828A3D
:1010A00083E0A30586F0A30586DFF6DEF480E389FE
:1010B000828A83E493A3F208DFF980D688F0EF6098
:1010C000010E4E60CD88F0ED2402B4040050C3F54B
:1010D00082EB2402B4040050B923234582239010EC
:1010E0005073900203E4F0906000E0FF900204EF80
:1010F000F0906004E0FFEF547FFF900205EFF09066
:101100000204E0FFEF5480FF7E00EF64804E600336
:10111000021299900204E0FFEF5403FF7E00EF6497
:10112000024E7052906001E0FFEF120F891134817E
:1011300000001385906003E0FFEF64016003021379
:1011400085900153E4F0A37403F0900205E0FF7E64
:1011500003EF8EF0A4FFAEF0745F2FF974023EFA35
:101160007B01900155120F7412319E900203EFF033
:10117000021385021385900204E0FFEF5403FF7E03
:1011800000EF64014E6003021385906001E0FFEF01
:10119000120F8911A68111FC821229831256841222
:1011A00083FF00001385906003E0FFEFB4012090FF
:1011B0000153E4F0A37401F07B017A02795E90019F
:1011C00055120F7412319E900203EFF002138590B6
:1011D0006003E0FFEF64026003021385900153E4B3
:1011E000F0A37402F07B017A027980900155120F0E
:1011F0007412319E900203EFF0021385906003E0B9
:10120000FFEF64026003021385900153E4F0A374BE
:1012100002F07B017A02797C900155120F74123131
:101220009E900203EFF0021385906003E0FFEF64ED
:10123000026003021385900153E4F0A37402F07B73
:10124000017A02797E900155120F7412319E90023C
:1012500003EFF0021385906003E0FFEF6402600388
:10126000021385900153E4F0A37402F07B017A022B
:10127000797A900155120F7412319E900203EFF0AB
:10128000021385900153E4F0A3E4F0123465900258
:1012900003EFF0021385021385900204E0FFEF5480
:1012A00080FF7E00EF4E6003021385900204E0FF92
:1012B000EF5403FF7E00EF64024E705A906001E02D
:1012C000FFEF120F8912CC0100001385906003E03C
:1012D000FFEF64016003021385900153E4F0A374EF
:1012E00003F0900205E0FF7E03EF8EF0A4FFAEF066
:1012F000745F2FF974023EFA7B01900155120F744E
:10130000123465900203EFF0900205E0FF90028234
:10131000EFF08071806F900204E0FFEF5403FF7ED6
:1013200000EF64014E705E906001E0FFEF120F89E4
:1013300013370100001385906003E0FFEFB4011F35
:10134000900153E4F0A37401F07B017A02795E907E
:101350000155120F74123465900203EFF08026904D
:101360006003E0FFEFB4021D900153E4F0A37402A8
:10137000F07B017A027980900155120F7412346566
:10138000900203EFF0900203E0FF229001D2E4F01C
:10139000123C1F7E2D7F28123B8D123CDD7BFF7A95
:1013A0003B79281236269001D7E4F0A3E4F07B00C5
:1013B0007A007D017F01123405900141EFF0900128
:1013C000D1E4F09001D1E0FFEFC3940A501C123633
:1013D000C19001D1E0FE74422EF582E43401F58320
:1013E000EFF09001D1E004F080D99001D1E4F090C9
:1013F00001D1E0FFEFC3940950379001D1E0FF74B1
:10140000422FF582E43401F583E0FF9001D1E0FE44
:1014100074432EF582E43401F583E0FB9001E2741D
:1014200005F07D207C001228C89001D1E004F080F6
:10143000BE90014BE0FF900142E0FB9001E2740599
:10144000F07D207C001228C89001D1E4F09001D1F9
:10145000E0FFEFC3940A504B9001D1E0FF75F020FC
:10146000EF900000120F5FAF82AE837D017C00EF32
:1014700054FFFFEE54FFFEED5400FDEC5400FCADB4
:1014800007AC069001D1E0FF74422FF582E43401ED
:10149000F583E0FF7B817A5B122B4F9001D1E00452
:1014A000F080AA900141E0FF900142E0FD12382D4A
:1014B000D2AF9044F474FDF07D007F001238D51255
:1014C0003D9FEF60FA123B4AEF6054123D9FEF6080
:1014D0003E7F01123C84EF603690014CE4F0A3E4BF
:1014E000F090014EE4F0A3E4F0900140E4F09001AC
:1014F00050E4F09001D2E4F07F02122F517D007F82
:101500000112357E7BFF7A3B793612362680107DBC
:10151000007F0112357E7BFF7A3B79401236267FB1
:1015200002123BE9EF640160030215AD9001D2E0C5
:10153000FFEF705190014CE0FEA3E0FFEF7805C390
:1015400033CE33CED8F9FF74002FF974003EFA7B06
:10155000019001D7E4F0A37420F07F021217E59008
:10156000014CE475F001120D7EAFF0FEC3EF940A5A
:10157000EE9400400890014CE4F0A3E4F090015098
:10158000E004F0800A7F02122F519001D2E4F09023
:10159000014CE0FEA3E0FF90014EE0FCA3E0FDED76
:1015A000B5070AECB506069001D27401F09001402F
:1015B000E0FFEF60030214C5900150E0FFEFC39419
:1015C0000550030214C5900141E0FF7D0112304A2D
:1015D0009001407401F00214C52290020F7401F0D2
:1015E000900210E4F0900210E0FFEFC394804003FB
:1015F0000217DE900210E0FF7E00EF2480FFEE3441
:1016000060FE8F828E83740CF0900210E0FF7E00EB
:10161000EF2481FFEE3460FE8F828E83741FF09082
:10162000020FE0FFEF75F00BA42473F582E43401A0
:10163000F583E0FFEF604F90020FE0FFEF75F00BD6
:10164000A42472F582E43401F583E0FFEF5480FFB7
:101650007E00EF4E6018900210E0FF7E00EF240E37
:10166000FFEE3460FE8F828E83740CF0802E900229
:1016700010E0FF7E00EF240EFFEE3460FE8F828EBE
:10168000837408F08016900210E0FF7E00EF240EB5
:10169000FFEE3460FE8F828E837480F090020FE044
:1016A000FFEF75F00BA42476F582E43401F583E0B6
:1016B000FEA3E0FFEEFF7E00900210E0FEEEFD7C58
:1016C00000ED240CFDEC3460FC8D828C83EFF090F7
:1016D000020FE0FFEF75F00BA42476F582E43401ED
:1016E000F583E0FEA3E0FFEF54FFFF900210E0FE61
:1016F000EEFD7C00ED240DFDEC3460FC8D828C83CE
:10170000EFF090020FE0FFEF75F00BA42474F58268
:10171000E43401F583E0FEA3E0FFEF54FFFF900205
:1017200010E0FEEEFD7C00ED2486FDEC3460FC8DC7
:10173000828C83EFF090020FE0FFEF75F00BA42492
:1017400074F582E43401F583E0FEA3E0FFEEFF7E52
:1017500000900210E0FEEEFD7C00ED2487FDEC34ED
:1017600060FC8D828C83EFF090020FE0FFEF75F04C
:101770000BA42474F582E43401F583E0FEA3E0FFBA
:10178000EF54FFFF900210E0FEEEFD7C00ED24849C
:10179000FDEC3460FC8D828C83EFF090020FE0FF53
:1017A000EF75F00BA42474F582E43401F583E0FEB8
:1017B000A3E0FFEEFF7E00900210E0FEEEFD7C0055
:1017C000ED2485FDEC3460FC8D828C83EFF090027B
:1017D0000FE004F0900210E02410F00215E5906094
:1017E0000A74FFF0229001D3EFF09001D4120F742D
:1017F0009001D3E0FFEFD3940050030219D390017E
:10180000D3E0FFEFC3940940030219D37B007A00B1
:101810007900C003C002C0019001D4120F6BD082C6
:10182000D083D0E06B7008E965827003EA6583704D
:10183000030219D39001D3E0FF7E00EF24FFFFEEF7
:1018400034FFFEEFC4F8540FC868FFEEC454F048EC
:10185000FE9001D9EFF09001D9E0FF7E00EF2488DF
:10186000FFEE3460FE9001DAEEF0A3EFF09001D3CA
:10187000E0FF1226BE9001DCEEF0A3EFF09001DC59
:10188000E0FEA3E0FF9001D7E0FCA3E0FDD3ED9FD5
:10189000EC9E40109001DCE0FEA3E0FF9001D7EE4B
:1018A000F0A3EFF09001D3E0FF74832FF582E434CE
:1018B00002F583E0FFEFB4FF0E9001D3E0FF90014B
:1018C000D4120F6B1228219001D3E0FF748D2FF5F5
:1018D00082E43402F583E0FF1230BF9001D3E0FFD1
:1018E00074832FF582E43402F583E0FF9001D7E0A2
:1018F000FCA3E0FD9001E27412F07BFE1228C89078
:1019000001D3E0FF74832FF582E43402F583E0FF16
:10191000C0079001DAE0FEA3E0FFE4FCFDEF54FF16
:10192000FFEE54FFFEED5400FDEC5400FCAD07AC9F
:1019300006C004C0059001D4120F6BAF01AE02AD1A
:10194000037C00EF54FFFFEE54FFFEED5400FDEC6E
:101950005400FCAB07AA06D005D004D007122B4FC9
:101960009001D3E0FF748D2FF582E43402F583E01B
:10197000FF9001D3E0FE74832EF582E43402F583F8
:10198000E0FD12382D9001D3E0FF748D2FF582E435
:101990003402F583E0FF7D0112304A9001D9E0FF67
:1019A0007E00EF2480FFEE3460FE8F828E83E0FFA6
:1019B000EF4402FFEFF09001D9E0FF7E00EF2480BA
:1019C000FFEE3460FE8F828E83E0FFEF54FDFFEF69
:1019D000F080089001D7E4F0A3E4F09001D7E0FE96
:1019E000A3E0FF22C0E0C0F0C083C082C085C084F5
:1019F000C086758600C093759300C0D075D000C0B6
:101A000004C005C006C0079002197401F090021AC4
:101A1000E4F090609FE0FF900217EFF0900217E073
:101A2000FF90609FEFF0900217E0FFEF7003021B42
:101A30007B900217E0FFEF5401FF7E00EF4E700332
:101A4000021B5D90021AE0FF7E00EF2482FFEE345D
:101A500060FE8F828E83E0FF900218EFF0900218F4
:101A6000E0FFEF5401FF7E00EF4E6066900219E048
:101A7000FFEF75F00BA42472F582E43401F583E0E6
:101A8000FFEF5480FF7E00EF4E604790021AE0FFA8
:101A90007E00EF2480FFEE3460FE8F828E83E0FFB5
:101AA000EF54FEFFEFF0900219E0FFEF75F00BA48A
:101AB0002473F582E43401F583E0FF90021AE0FE1E
:101AC000EEFD7C00ED240EFDEC3460FC8D828C83F9
:101AD000EFF0900218E0FFEF5402FF7E00EF4E603F
:101AE00060900219E0FFEF75F00BA42472F582E418
:101AF0003401F583E0FFEF5480FF7E00EF4E70412C
:101B0000900219E0FFEF75F00BA4246FF582E43426
:101B100001F583E4F0900219E0FFEF75F00BA424C7
:101B200073F582E43401F583E0FF90021AE0FEEEE3
:101B3000FD7C00ED240EFDEC3460FC8D828C83EF87
:101B4000F0900218E0FF90021AE0FEEEFD7C00ED3E
:101B50002482FDEC3460FC8D828C83EFF090021ABD
:101B6000E02410F0900219E004F0900217E0FFEF7B
:101B7000C313FF900217EFF0021A26D007D006D049
:101B800005D004D0D0D093D086D084D085D082D058
:101B900083D0F0D0E032900203E4F0906004E0FFE4
:101BA000EF547FFF900201EFF0900201E0FF7E0012
:101BB000EF24FFFFEE34FFFEEFC4F8540FC868FFB8
:101BC000EEC454F048FE900202EFF0900201E0FFF4
:101BD000EFD394005003021D04900201E0FFEFC315
:101BE00094094003021D04900201E0FFEF75F00B21
:101BF000A42470F582E43401F583E0FFEF54FEFF86
:101C0000EFF0900201E0FFEF75F00BA42471F58274
:101C1000E43401F583E4F0900202E0FF7E00EF245B
:101C20000CFFEE3460FE8F828E83E0FFEF547FFF67
:101C3000EFF0900201E0FFEF75F00BA4246FF58246
:101C4000E43401F583E0FFEF54FDFFEFF090020173
:101C5000E0FFEF75F00BA42472F582E43401F58304
:101C6000E0FFEF5480FF7E00EF4E6049900201E0FC
:101C7000FFEF75F00BA4246FF582E43401F583E0E7
:101C8000FFEFB40118900202E0FF7E00EF240EFF88
:101C9000EE3460FE8F828E83740CF0805F900202BF
:101CA000E0FF7E00EF240EFFEE3460FE8F828E8315
:101CB000740DF08047900201E0FFEF75F00BA42453
:101CC0006FF582E43401F583E0FFEFB40118900270
:101CD00002E0FF7E00EF240EFFEE3460FE8F828E66
:101CE000837408F08016900202E0FF7E00EF240E5D
:101CF000FFEE3460FE8F828E837409F0123C3990BF
:101D00000203EFF0900203E0FF22C0E0C0F0C083C6
:101D1000C082C085C084C086758600C0937593005C
:101D2000C0D075D000C000C001C002C003C004C054
:101D300005C006C007906028E0FF9001F4EFF09026
:101D400001F4E0FFEF5410FF7E00EF4E7003021E1F
:101D5000589001F57401F09001F4E0FFEF5480FF1A
:101D60007E00EF4E60319001F4E0FFEF540FFF7EF4
:101D700000EF64014E60079001F5E4F08046122DFB
:101D8000BE90016AE0FFEF5480FF7E00EF4E6034AA
:101D90009001F5E4F0802D9001F4E0FFEF5440FF56
:101DA0007E00EF4E6005123B0380199001F4E0FFC6
:101DB000EF5420FF7E00EF4E60051239FC80059045
:101DC00001F5E4F09001F5E0FFEF7003021E58907A
:101DD0006028E0FF9001F4EFF09001F4E0FFEF5491
:101DE00080FF7E00EF4E707090016DE0FF90016506
:101DF000E0FEEE4FFF9001F4EFF09001F4E0FF9071
:101E00006029EFF0906029E0FF9001F4E0FEEE6FB2
:101E1000704690016AE0FF9001F5EFF0906028E0D5
:101E2000FFEF5480FF9001F4EFF09001F4E0FFEF3A
:101E3000701890016AE0FF906028EFF0906028E051
:101E4000FFEF540FFF9001F5EFF090016AE0FF9073
:101E500001F5E0FEEEB507BAD007D006D005D004F4
:101E6000D003D002D001D000D0D0D093D086D0847F
:101E7000D085D082D083D0F0D0E03290480074F189
:101E8000F01222537B007A4679E8123D79EF44053F
:101E9000FD7B007A4679E8123D85750A00E50AC3A4
:101EA0009408503AAF0AEF75F005A4242DF582E4AA
:101EB0003440F583AF82AE838E088F09AE08AF0938
:101EC0008F828E83120F7DAE08AF098F828E83744E
:101ED0000393FC740493FD123C53050A80BF7E3FBC
:101EE0007FD81239CE7B007A7679007D047C00128F
:101EF0003C537B007A7679087D047C00123C537B4E
:101F0000017A507903123D79EF4402FD7B017A504A
:101F10007903123D857B017A507913123D79EF44A4
:101F200002FD7B017A507913123D859043A0E0FFBA
:101F3000EF4440FF9043A0EFF09043C2E0FFEF4436
:101F400010FF9043C2EFF07C3F7DBE7B007A517959
:101F5000F07F0A7E00123ADD7C3F7DC87B007A511B
:101F600079127F087E00123ADD7C3F7DD07B007ABB
:101F70005179227F087E00123ADD9044F47401F01A
:101F8000904322E0FFEF4408FF904322EFF0904699
:101F9000ECE0FFEFC394055006904689743AF07B5D
:101FA000017A5079077D40123D857B017A5079177F
:101FB0007D40123D851237EB7B007A4379A0C00348
:101FC000C002C0017B007A4379B09001D6120F7431
:101FD000D001D002D0037F0E7E0012393B9043B077
:101FE000E0FFEF54FDFFEFF022123D079001D5EF27
:101FF000F09043A5E0FFEF4401FFEFF09043B5E020
:10200000FFEF4401FFEFF090609D7401F0906009D4
:102010007402F0906010E0FFEF547FFFEFF07F005C
:102020007E00123A2C904394E0FFEF54F9FFEFF05A
:10203000906012E0FFEF54DFFFEFF0904394E0FF79
:10204000EF4401FFEFF07F017E00123A2C7F287EE3
:1020500000123A2C9051F8E0FFEF547FFFEFF09020
:1020600051F8E0FFEF54BFFFEFF0904394E0FFEF33
:102070004402FFEFF07F027E00123A2C904394E07E
:10208000FFEF4404FFEFF0906084E4F0906085E49B
:10209000F09001D6E4F0A3E4F09001D6E0FEA3E0D6
:1020A000FFC3EF9409EE940050219001D6E0FEA307
:1020B000E0FF74832FF58274023EF58374FFF09085
:1020C00001D6E475F001120D7E80CE9001D5E0FFBF
:1020D000123C6C7C357DD57F17122ECF7D077F1784
:1020E0001234C47C387DFF7F15122ECF7D077F15FB
:1020F0001234C47C1D7D0A7F18122ECF7D077F18F5
:102100001234C47C327D757F01122ECF7D077F0192
:102110001234C47C197DE47F16122ECF7D007F1609
:102120001234C422905120E0FFEF5480FFEFF09072
:102130005122E0FFEF54F0FF9001DAEFF09001DA66
:10214000E0FFEF440FFF905122EFF0905123E0FFAA
:10215000EF54F0FF9001DAEFF09001DAE0FF9051D8
:1021600023EFF0905124E0FFEF54F0FF9001DAEFFD
:10217000F09001DAE0FF905124EFF0905120E0FF61
:10218000EF54DFFFEFF0905120E0FFEF4440FFEF0E
:10219000F07F007E00123A2C905120E0FFEF4410B7
:1021A000FFEFF07F017E00123A2C905121E0FF906A
:1021B00001DAEFF0905120E0FFEF54EFFFEFF07FF6
:1021C000007E00123A2C9001DAE0FFEF5408FF90F5
:1021D00001DAEFF0905120E0FFEF4410FFEFF07FC5
:1021E000017E00123A2C905120E0FFEF54EFFFEFF8
:1021F000F09001DAE0FFEF7098905120E0FFEF548B
:10220000BFFFEFF0905120E0FFEF5480FFEFF09020
:102210005122E0FFEF54F0FFEFF0905123E0FFEF89
:1022200054F0FF9001DAEFF09001DAE0FFEF440F95
:10223000FF905123EFF0905124E0FFEF54F0FF9016
:1022400001DAEFF09001DAE0FFEF440FFF90512444
:10225000EFF0227B007A4079807DED7C02123D5EBA
:102260009040827419F09043007406F0904200741C
:1022700052F07B0C7A01790F123D799046A1EFF074
:102280007B007A4279227D187C08123D5E7B007AC1
:102290004279207D517C12123D5E9001D5E4F07FA1
:1022A000197E007D007C009001D1120F539001D166
:1022B000120F3BD3EF9400EE9400404E9001D5E016
:1022C000FFEF64036044904225E0FFEF5401FF7E7E
:1022D000009001D5E0FEEE25E0FEEE4FFFEF540347
:1022E000FF9001D5EFF07FE07E017D007C00123988
:1022F000009001D1120F3B7BFF7AFF79FF78FF122C
:102300000DB39001D1120F5380A39001D1120F3B56
:10231000EF4E70057F03123D1C7B007A4079047DEF
:10232000007C01123D5E9040047407F0904006E48A
:10233000F09040087448F0904004E4F0904009E4C4
:10234000F09040017402F09043A2E0FFEF4401FFDF
:102350009043A2EFF022900203E4F0906004E0FFCB
:10236000EF547FFF900201EFF0900201E0FF7E004A
:10237000EF24FFFFEE34FFFEEFC4F8540FC868FFF0
:10238000EEC454F048FE900202EFF0900201E0FF2C
:10239000EFD394005003022447900201E0FFEFC303
:1023A00094094003022447900201E0FFEF75F00B0F
:1023B000A42470F582E43401F583E0FFEF4401FFCB
:1023C000EFF0900201E0FFEF75F00BA42471F582AD
:1023D000E43401F583E4F0900201E0FFEF75F00BC7
:1023E000A4246FF582E43401F583E0FFEF4402FF9B
:1023F000EFF0900201E0FFEF75F00BA42472F5827C
:10240000E43401F583E0FFEF5480FF7E00EF4E607F
:1024100018900202E0FF7E00EF240EFFEE3460FE13
:102420008F828E83748DF08016900202E0FF7E0012
:10243000EF240EFFEE3460FE8F828E837489F012DB
:102440003C39900203EFF0900203E0FF2275930005
:1024500078007583467582E8E04401F0009046EC10
:10246000E0F99046FAE0FAB903225420B40012B819
:10247000001AEA901FFFF07401901FFEF09046F6DC
:10248000F0901FFEE06005901FFFE0FA9048007496
:10249000C0F075810C90000078007920E4F0A3D89A
:1024A000FCD9FAEA90029FF0020011750B1F750C1F
:1024B000FD121E7B1236740224F502138BE493A3E3
:1024C000F8E493A34003F68001F208DFF48029E4E6
:1024D00093A3F85407240CC8C333C4540F4420C832
:1024E000834004F456800146F6DFE4800B010204C9
:1024F0000810204080903132E47E019360BCA3FF3D
:10250000543F30E509541FFEE493A360010ECF54FD
:10251000C025E060A840B8E493A3FAE493A3F8E4EC
:1025200093A3C8C582C8CAC583CAF0A3C8C582C858
:10253000CAC583CADFE9DEE780BE900208E4F090F6
:10254000015CE0FF7E0090016BEE8FF0120D7E903B
:102550000153E0FEA3E0FFD3EF9400EE940040535C
:10256000900208E0FFEFC394085048900155120F05
:102570006B120D53FF900208E0FEEEFD7C00ED248F
:1025800000FDEC3460FC8D828C83EFF090015512DD
:102590000F6BE92401F9EA3400FA900155120F7427
:1025A000900208E004F090015374FF75F0FF120DE3
:1025B0007E809C90015CE0FFEF6408600B90020855
:1025C000E0FFEFD39400401C900165E0FFEF6480D2
:1025D000FF900165EFF090016A740FF0900166744E
:1025E00002F0800C90016A7402F09001667402F0AF
:1025F000900208E0FF90015CEFF0900208E0FF908D
:10260000016DEFF0229001ECEFF09001EDEDF09014
:1026100001EEEBF09001F27401F09001ECE0FFEFBD
:10262000C3941840030226B89001EEE0FFEF540176
:10263000FF7E00EF75F080A4FFAEF09001EDE0FEAC
:10264000EE547FFEEE4FFF9001ECE0FE75F008EED9
:10265000907600120F5FEFF09001F0E0FFEF540F63
:10266000FF7E00EF75F010A4FFAEF09001EFE0FEEA
:10267000EE540FFEEE4FFF9001ECE0FE75F008EE19
:10268000907601120F5FEFF09001F1E0FFEF540F31
:10269000FF9001ECE0FE75F008EE907602120F5FFD
:1026A000EFF09001ECE0FF75F008EF907603120F69
:1026B0005FE4F09001F2E4F09001F2E0FF2290017B
:1026C000DEEFF09001E0E4F0A3E4F09001DEE0FF43
:1026D000EFD39400500302276A9001DEE0FFEFC3BE
:1026E0009409400302276A9001DEE0FF7E00EF2498
:1026F000FFFFEE34FFFEEFC4F8540FC868FFEEC4CE
:1027000054F048FE9001DFEFF09001DFE0FF7E0023
:10271000EF240CFFEE3460FE8F828E83E0FFEF54D7
:102720000FFF7E009001E0EEF0A3EFF09001DFE0FC
:10273000FF7E00EF240DFFEE3460FE8F828E83E07B
:10274000FFEFFD7C009001E0E0FEA3E0FFEF7F00E3
:10275000FEEE4CFEEF4DFF9001E0EEF0A3EFF090A7
:1027600001E074FF75F0FE120D7E9001E0E0FEA323
:10277000E0FF229001F7E4F0906029E0FFEF540FB2
:10278000FFEF24FEFF9001F6EFF09001F6E0FF7EF0
:102790000090016BEE8FF0120D7E900153E0FEA3CE
:1027A000E0FFD3EF9400EE940040579001F6E0FF75
:1027B000EFD39400404C9001F7E0FF7E00EF24003F
:1027C000FFEE3460FE8F828E83E0FF900155120F82
:1027D0006BEF120D6C900155120F6BE92401F9EAB1
:1027E0003400FA900155120F749001F7E004F09054
:1027F00001F6E014F090015374FF75F0FF120D7EA6
:1028000080989001F6E0FF90016DEFF0900165E097
:10281000FFEF6480FF900165EFF090016A740BF0A8
:10282000229001DEEFF09001DF120F749001E2E4DC
:10283000F0A3E4F09001E4E4F0A3E4F09001DF12EF
:102840000F6B9001DF120F749001DEE0FFEF120FAB
:1028500089289D01286D02289D03289D04289D0537
:10286000289D06289D07289D080000289D9001E2CC
:10287000E0FAA3E0FB9001E4E0FEA3E0FF9001EAB0
:10288000EEF0A3EFF07D007F001233A49001DEE0B4
:10289000FE748D2EF582E43402F583EFF09001DEB4
:1028A000E0FFEFD39400401F9001DEE0FFEFC39400
:1028B0000950141236C19001DEE0FE74832EF582B9
:1028C000E43402F583EFF0229001DEEFF09001DFB7
:1028D000ECF0A3EDF09001E1EBF09001E37401F076
:1028E0009001DEE0FFEFC39480507A9001DFE0FEBC
:1028F000A3E0FFEE54F0FE7F00EF4E70689001DE23
:10290000E0FF7E08EF8EF0A4FFAEF0EF2400FFEEB4
:102910003478FE9001E4EEF0A3EFF09001E4E0FEE5
:10292000A3E0FFAA06A9077B019001DFE0FCA3E07A
:10293000FD123D609001E1E0FF9001DEE0FE75F0E8
:1029400008EE907802120F5FEFF09001E2E0FF9046
:1029500001DEE0FE75F008EE907803120F5FEFF0F5
:102960009001E3E4F09001E3E0FF229002017401A2
:10297000F0906004E0FF900202EFF0900169E0FF48
:10298000EF14FF122C8D900203EEF0A3EFF09002F3
:1029900003E0FEA3E0FF8F828E83A3120F7DE92464
:1029A00004F9EA3400FA120D53FF900205EFF0909B
:1029B0000205E0FF900202E0FEEEC39F500B900282
:1029C00002E0FFEFC394024007900201E4F0803878
:1029D000900202E0FF74512FF582E43401F583E0A8
:1029E000FF900202E0FE74602EF582E43401F5836C
:1029F000EFF0906002E0FF900202E0FE74512EF5CD
:102A000082E43401F583EFF0900201E0FF229001AF
:102A1000D5EFF09001D6EDF09044C27480F0904470
:102A2000C37401F09044C07402F090609E7402F090
:102A30009044C27440F090609C7420F0900166E471
:102A4000F09001D6E0FFEF120F892A54002A5C01B2
:102A500000002A649060097402F0800E906009748E
:102A600003F080069060097402F09001D5E0FF90B9
:102A70000167EFF0900169E4F090015BE4F09001F0
:102A80005FE4F0900162E4F0900168E4F090015C92
:102A9000E4F09060287403F09060087480F07F0187
:102AA0007E007D007C001239009060127404F022D8
:102AB0009001ECEFF09001EDECF0A3EDF09001EF60
:102AC000EAF0A3EBF09001F17401F09001ECE0FF6B
:102AD000EFC3941850739001ECE0FF7E08EF8EF086
:102AE000A4FFAEF0EF2404FFEE3476FE9001F2EE88
:102AF000F0A3EFF09001F2E0FEA3E0FFAA06A90721
:102B00007B019001EDE0FCA3E0FD123D609001EC43
:102B1000E0FF7E08EF8EF0A4FFAEF0EF2406FFEE9C
:102B20003476FE9001F2EEF0A3EFF09001F2E0FEB9
:102B3000A3E0FFAA06A9077B019001EFE0FCA3E058
:102B4000FD123D609001F1E4F09001F1E0FF229070
:102B500001DEEFF09001DFECF0A3EDF09001E1EA8F
:102B6000F0A3EBF09001E37401F09001DEE0FFEFE1
:102B7000C3948050739001DEE0FF7E08EF8EF0A4D6
:102B8000FFAEF0EF2404FFEE3478FE9001E4EEF0A7
:102B9000A3EFF09001E4E0FEA3E0FFAA06A9077B03
:102BA000019001DFE0FCA3E0FD123D609001DEE05A
:102BB000FF7E08EF8EF0A4FFAEF0EF2406FFEE34A8
:102BC00078FE9001E4EEF0A3EFF09001E4E0FEA3C4
:102BD000E0FFAA06A9077B019001E1E0FCA3E0FD6C
:102BE000123D609001E3E4F09001E3E0FF229001E8
:102BF00069E0FFEF14FF122C8D90020FEEF0A3EFAF
:102C0000F090020FE0FEA3E0FFEF4E606F90020F26
:102C1000E0FEA3E0FF8F828E83A3120F7DE92404E0
:102C2000F9EA3400FA120D53FF900213EFF090020C
:102C300013E0FF7E00EF2402FFEE3400FEEF780287
:102C4000C333CE33CED8F9FF90020FE0FCA3E0FDF2
:102C5000EF2DFFEE3CFE90020FEEF0A3EFF090029E
:102C60000FE0FEA3E0FF8F828E83A3120F7DAE02E2
:102C7000AF01900211EEF0A3EFF08008900211E492
:102C8000F0A3E4F0900211E0FEA3E0FF2290021412
:102C9000EFF0900167E0FFEF25E025E024BBF5822F
:102CA000E4343FF583120F7DAE02AF01900215EEC2
:102CB000F0A3EFF0900215E0FEA3E0FFEF2404FF85
:102CC000EE3400FE900215EEF0A3EFF0900215E056
:102CD000FEA3E0FF8F828E83E493FF900214E0FE58
:102CE000EEC39F400A900215E4F0A3E4F080309018
:102CF0000215E0FEA3E0FF8F828E83C083C0829026
:102D00000214E0FFD082D08375F004EF120F5FA3AE
:102D1000120F7DAE02AF01900215EEF0A3EFF0901E
:102D20000215E0FEA3E0FF22C0E0C0F0C083C08235
:102D3000C085C084C086758600C093759300C0D0DE
:102D400075D000C000C001C002C003C004C005C0EF
:102D500006C00790014EE475F001120D7EAFF0FE43
:102D6000C3EF940AEE9400400890014EE4F0A3E40F
:102D7000F090014CE0FEA3E0FF90014EE0FCA3E0E8
:102D8000FDEDB50716ECB50612900141E0FF1230DB
:102D9000BF900140E4F0900150E4F0D007D006D09D
:102DA00005D004D003D002D001D000D0D0D093D031
:102DB00086D084D085D082D083D0F0D0E0329060AD
:102DC00028E0FF9001F6EFF09001F6E0FF90602818
:102DD000EFF0906028E0FF9001F6EFF09001F6E050
:102DE000FFEF5480FF7E00EF4E600B9001F6E0FF96
:102DF00090016AEFF0227F02123342906000E0FF00
:102E0000EF5460FFEF120F892E15002E1F202E2980
:102E10004000002E3312001A9001F6EFF0801912D4
:102E20002E479001F6EFF0800F123AB19001F6EFC5
:102E3000F080059001F6E4F09001F6E0FFEF7006F7
:102E400090016A7403F022900201E4F0900202E41F
:102E5000F0906000E0FFEF5403FFEF120F892E683F
:102E6000012E740200002E92906004E0FF90020296
:102E7000EFF0801E906004E0FFEF547FFFEF75F0ED
:102E80000BA42478F582E43401F583E0FF9002027C
:102E9000EFF0900202E0FF90015DE0FCA3E0FD8D09
:102EA000828C83E5822FF582E43583F583E493FFFA
:102EB000EF120F892EC1012EC9022EC90300002E68
:102EC000C91210E2900201EFF0900201E0FF22909F
:102ED00001D8EFF09001D9ECF0A3EDF09001D8E02B
:102EE000FFEFD3941F5003D38001C340057F00122E
:102EF0003CF29001D8E0FFEF541FFF7E00EF25E089
:102F0000FFEE33FEEF2400FFEE3444FEAA06A907CD
:102F10007B01123D519001DBEEF0A3EFF09001D860
:102F2000E0FF7E02EF8EF0A4FFAEF0EF2400FFEE94
:102F30003444FEAA06A9077B019001D9E0FEA3E074
:102F4000FFAD07AC06123D609001DBE0FEA3E0FFA1
:102F5000229001D3EFF09001D3E0FFEFD394004033
:102F60006E9001D3E0FFEFC3940950639001D3E06A
:102F7000FF7E00EF24FFFFEE34FFFEEFC4F8540F96
:102F8000C868FFEEC454F048FE9001D4EFF0900101
:102F9000D3E0FFEF75F00BA4246FF582E43401F564
:102FA00083E4F09001D3E0FFEF75F00BA42473F5F8
:102FB00082E43401F583E0FF9001D4E0FEEEFD7C75
:102FC00000ED240EFDEC3460FC8D828C83EFF0224A
:102FD0007F287E007D007C001232DC7F0312375B8D
:102FE0007F057E007D007C001232DC7F0312375BA0
:102FF0007F0F7E007D007C001232DC7F0312375B86
:103000007F017E007D007C001232DC7F0212375B84
:103010007F057E007D007C001232DC7F0612389F27
:103020007F0E12389F7F2C12389F7F0812389F7FA7
:103030000112389F7F0C12389F7F0312389F7F0543
:103040007E007D007C001232DC229001DEEFF090E9
:1030500001DFEDF09001E07401F09001DEE0FFEFA0
:10306000C3941850549001DFE0FFEF60199001DE27
:10307000E0FF75F010EF907010120F5FE0FFEF446B
:1030800020FFEFF080179001DEE0FF75F010EF9069
:103090007010120F5FE0FFEF54DFFFEFF09001DEE2
:1030A000E0FF75F010EF907010120F5FE0FFEF443B
:1030B00001FFEFF09001E0E4F09001E0E0FF2290EA
:1030C000FFFF120FAFEFF090FFFF120FAF850B83E2
:1030D000850C827401F0850B83850C82A3E0FFEFE1
:1030E000C39418503E850B83850C82A3E0FF75F0D6
:1030F00010EF907010120F5FE0FFEF54FEFFEFF043
:10310000850B83850C82A3E0FF75F010EF907010A3
:10311000120F5FE0FFEF54DFFFEFF0850B83850CAC
:1031200082E4F0850B83850C82E0FF900002120F91
:10313000AF2242014E000042014C0000410140001C
:103140004101500041028C004102B3004102B4FF32
:103150004102B0004102AF004102A9804102A87FB4
:103160004402A4000000034102B5FF44029B03D0C7
:1031700090004402960000FA0041029A404402A0E6
:103180007D00000042027C018042027EFF7F4202FD
:103190007A01004302AA0000004102B6000090013B
:1031A00053E0FEA3E0FFEF4E7005123BAC80589059
:1031B00001667402F0900165E4F012370E9060072A
:1031C000E0FF7E00EF7F00FE906006E0FD7C00EEF9
:1031D0004CFEEF4DFF900206EEF0A3EFF0900206DA
:1031E000E0FEA3E0FF900153E0FCA3E0FDD3ED9FE0
:1031F000EC9E4010900206E0FEA3E0FF900153EE2B
:10320000F0A3EFF012253A7F01229001ECEFF0904D
:1032100001EDEDF09001EF7401F09001ECE0FFEFB3
:10322000C39418504A9001ECE0FF75F010EF9070D5
:1032300010120F5FE0FFEF54F1FF9001EEEFF090FE
:1032400001EDE0FFEF5407FF7E00EF25E0FFEE33D6
:10325000FE9001EEE0FEEF4EFF9001ECE0FE75F017
:1032600010EE907010120F5FEFF09001EFE4F0900D
:1032700001EFE0FF22C0E0C083C082C085C084C0EF
:1032800086758600C093759300C0D075D000C006C7
:10329000C00790601EE0FF900184E0FFEF5403FF41
:1032A0007E00EF64014E600E900187E0FFEF6480C6
:1032B000FF900187EFF09001857401F090600BE0C2
:1032C000FFEF54FDFFEFF0D007D006D0D0D093D061
:1032D00086D084D085D082D083D0E03290FFFC129B
:1032E0000FAF120F53850B83850C82120F3BD3EF68
:1032F0009400EE9480402F9002A0120F3B123900F0
:10330000850B83850C82C083C082120F3BEF2400A3
:10331000FFEE3480FEED34FFFDEC34FFFCD082D0B4
:1033200083120F5380BF900296120F3B850B83854B
:103330000C82120F47120DC0123900900004120FB8
:10334000AF229001F7EFF07B007A007900C003C054
:1033500002C001900158120F6BD082D083D0E06B75
:103360007008E965827003EA658360379001F7E0D1
:10337000FF900158120F6BEF120D6C90016BE0FE85
:10338000A3E0FF900158120F6BE92401F9EA340021
:10339000FAEE8FF0120D947B007A007900900158BC
:1033A000120F74229001E6EFF09001E7EDF090012A
:1033B000E8EAF0A3EBF09002B57401F09002B5E0FA
:1033C000FF9001E6E0FD9001E7E0FB9001EFE4F003
:1033D0009001F0E4F09001F1E4F01226059002B5BE
:1033E000E0FF9001E8E0FCA3E0FD9001EAE0FAA331
:1033F000E0FB122AB09002B5E0FF7D0212320A9083
:1034000002B5E0FF229001D3EFF09001D4EDF090EF
:1034100001D5EAF0A3EBF09002B4E4F09002B4E03E
:10342000FF9001D3E0FD9001D4E0FB9001EFE4F0C8
:103430009001F0E4F09001F1E4F01226059002B45E
:10344000E0FF9001D5E0FCA3E0FD9001D7E0FAA3F6
:10345000E0FB122AB09002B4E0FF7D0712320A901E
:1034600002B4E0FF229001667404F090016574805C
:10347000F012370E906007E0FF7E00EF7F00FE90B5
:103480006006E0FD7C00EE4CFEEF4DFF900206EE84
:10349000F0A3EFF0900206E0FEA3E0FF900153E0FE
:1034A000FCA3E0FDD3ED9FEC9E4010900206E0FEF1
:1034B000A3E0FF900153EEF0A3EFF090016A740BCC
:1034C000F07F01229001D8EFF09001D9EDF090014A
:1034D000D9E0FFEFD394075003D38001C340057FA9
:1034E00000123CF29001D8E0FFEFD3941F5003D3B9
:1034F0008001C340057F00123CF29001D9E0FFEF4C
:103500005407FF7E00EF75F020A4FFAEF09001D8C5
:10351000E0FEEE541FFE74802EF582E43444F58301
:10352000EFF0229001DAEFF0905120E0FFEF44201D
:10353000FFEFF0905120E0FFEF54BFFFEFF07F006E
:103540007E00123A2C905120E0FFEF54F0FFEFF094
:10355000905120C083C082E0FF9001DAE0FEEE448B
:1035600010FEEF4EFFD082D083EFF07F017E00127D
:103570003A2C905120E0FFEF54EFFFEFF022900142
:10358000D3EFF09001D4EDF09001D3E0FFEF120FF4
:103590008935A10035AE0135BB0235C803000035C1
:1035A000D49001D4E0FFEF2480FF12389F229001D5
:1035B000D4E0FFEF24C0FF12389F229001D4E0FF37
:1035C000EF2494FF12389F229001D4E0FFEF24D41F
:1035D000FF12389F22C0E0C0F0C083C082C085C007
:1035E00084C086758600C093759300C0D075D000E6
:1035F000C000C001C002C003C004C005C006C007AF
:1036000012396FD007D006D005D004D003D002D035
:1036100001D000D0D0D093D086D084D085D082D0B5
:1036200083D0F0D0E0329001D3120F749001D674A1
:1036300001F09001D3120F6B120D53FF9001D7EFE1
:10364000F09001D7E0FFEF602A9001D7E0FF123839
:10365000699001D3120F6B9001D6E0FFE92FF9E4D6
:103660003AFA120D53FF9001D7EFF09001D6E00423
:10367000F080CE229002A8747FF09002A97480F0AE
:103680009001D1747FF09001D1E0FFEF60219001B3
:10369000D1E0FFEF14FF9001D1E0FE75F008EE904D
:1036A0007800120F5FEFF09001D1E014F080D79016
:1036B00001D1E0FF75F008EF907800120F5FE4F0A1
:1036C000229001E774FFF0123D079001E6EFF090C1
:1036D00002A9E0FFEFD3941840269002A8E0FF90E3
:1036E00001E7EFF09002A9E014F09001E7E0FF7528
:1036F000F008EF907800120F5FE0FF9002A8EFF063
:103700009001E6E0FF123C6C9001E7E0FF2290019F
:103710006BE4F0A3E4F07B007A007900C003C00200
:10372000C001900158120F6BD082D083D0E06B7033
:1037300008E965827003EA6583601F900158120FE3
:103740006BE4120D6C900158120F6BE92401F9EA39
:103750003400FAE475F000120D94229001D7EFF0D6
:10376000905120E0FFEF549FFFEFF0905120E0FFD9
:10377000EF54F0FFEFF0905120C083C082E0FF9043
:1037800001D7E0FEEE4410FEEF4EFFD082D083EF73
:10379000F07F017E00123A2C905120E0FFEF54EFB1
:1037A000FFEFF022905824E0FFEF540CFF7E00EF73
:1037B0007802CEC313CE13D8F9FFEF2406FF900191
:1037C000D4EFF09001D4E0FFE4FCFDFEEF2430FFE5
:1037D000EE3401FEED340CFDEC3400FCA907AA0622
:1037E000AB05123D79904609EFF0227B0C7A017906
:1037F000CF123D799001D1EFF09001D1E0FFEF546D
:1038000007FF90586EEFF09001D1E0FFEFC4540F26
:10381000FFEF540FFF90586FEFF090511C7480F041
:10382000905A8B7401F09058767444F0229001DE27
:10383000EFF09001DFEDF09001E07401F09001DE17
:10384000E0FFEFC39418501B9001DFE0FF9001DE12
:10385000E0FE75F010EE907019120F5FEFF090011E
:10386000E0E4F09001E0E0FF229001D8EFF01221B7
:10387000249001D8E0FFEFC4540FFF9001D9EFF07E
:103880009001D9E0FF1235239001D8E0FFEF540FEB
:10389000FF9001D9EFF09001D9E0FF12352322907B
:1038A00001D5EFF01221249001D5E0FFEFC4540FB1
:1038B000FF9001D6EFF09001D6E0FF12375B900148
:1038C000D5E0FFEF540FFF9001D6EFF09001D6E066
:1038D000FF12375B229001D3EFF09001D4EDF0900E
:1038E000028CE0FFEF7009121FE990028C7401F066
:1038F0009001D3E0FF9001D4E0FD122A0E22323273
:10390000EC4D4E700D78FCEF24E950032840FD2269
:1039100000007BF178DA0000EF28FF78FFEE38FE38
:10392000ED38FDEC38FC50E7EF2BFFEE38FEED38BC
:10393000FDEC38FC40F22205020304758600EF4ED0
:103940006027EF60010E7593009001D6E0F595A316
:10395000E0F585A3E0F5848B938A838982E0A30553
:1039600086F0A31586DFF6DEF4E4F593F595229054
:103970000166E4F0900169E4F090015BE4F09001ED
:103980005FE4F0900162E4F0900168E4F090015C83
:10399000E4F09060287403F09060087480F0229046
:1039A00001D3EFF0905824E0FFEF54F3FFEFF090D5
:1039B0005824C083C082E0FF9001D3E0FEEE540C97
:1039C000FEEF4EFFD082D083EFF01237A422ACEA94
:1039D000ADA08E838F82E493F9601CA3E493F5EA93
:1039E000A3E493F5A0A3E49360F1FAA3E493F8A30E
:1039F000E493F2DAF6D9E48DA08CEA22900166E035
:103A0000FFEF120F893A28003A15023A19043A1DBD
:103A10000600003A28123B6C22122773227F031201
:093A2000334290016A7403F022A4
:103A2C00EEFA90029AE0F88FF0A4FFAEF0E88AF07C
:103A3C00A42EFEE5F03400FDEF24C9FF78FFEE382C
:103A4C00FEED38FDE438FC5003023900229001D31E
:103A5C00EFF0905824E0FFEF54FDFFEFF090582466
:103A6C00C083C082E0FF9001D3E0FEEE5402FEEF73
:103A7C004EFFD082D083EFF022900162E0FFEF6026
:103A8C0013900162E0FFEF4480FF906008EFF0902C
:103A9C000162E4F0900166E4F07F01123342900180
:103AAC006A7403F0229001F7E4F0906000E0FFEFFD
:103ABC005480FF7E00EF64804E7010906001E0FF38
:103ACC00EF120F893AD70100003AD79001F7E0FFC7
:103ADC0022758600EF4E601BEF60010E8C838D8289
:103AEC008B958A858984E493A30586F0A31586DFDC
:103AFC00F5DEF3E4F59522900166E0FFEF120F89F5
:103B0C003B27003B1C023B20043B240600003B27C8
:103B1C00123DA522123D2E22123A85225553422DDA
:103B2C003E444D412D3E44414300417564696F2034
:103B3C004F4E2000417564696F204F46460090013E
:103B4C00D3E4F090015FE0FFEF600F90015FE0FFC6
:103B5C009001D3EFF090015FE4F09001D3E0FF22ED
:103B6C0090015CE0FF7E0090016BEE8FF0120D7EF9
:103B7C00900166E4F07F0112334290016A7403F005
:103B8C00229001D3EEF0A3EFF0123D989001D3E018
:103B9C00FEA3E0FF123BCB7F00123CB2123D912200
:103BAC009001667402F09001657480F090016A7463
:103BBC000FF090015CE4F090016DE4F07F01229035
:103BCC0001D5EEF0A3EFF07B027A4479009001D599
:103BDC00E0FEA3E0FFAD07AC06123D60229001D3DE
:103BEC00EFF09001D3E0FFEF75F00BA4246FF5829A
:103BFC00E43401F583E0FF22900167E0FFEF25E05C
:103C0C0025E024BBF582E4343FF583120F7DAE0230
:103C1C00AF01229002B3E0FFEF7009123CC8900292
:103C2C00B37401F0123C9B7F64123D3F22900166FD
:103C3C007406F090016A7406F09001657480F0903F
:103C4C00016DE4F07F0122EC4D6011ED60010C8BF5
:103C5C00938A838982E4F0A3DDFCDCFA759300225D
:103C6C00EF54016004D2AF8002C2AFEF5402FF9058
:103C7C0044F4E054FD4FF0229001D3EFF09001D3C7
:103C8C00E0FF74512FF582E43401F583E0FF2290BC
:103C9C0043A8E0FFEF4402FFEFF09043B8E0FFEFE2
:103CAC004402FFEFF0229001D5EFF09001D5E0FF38
:103CBC00EFC43354E0FF904480EFF022905824E49A
:103CCC00F0905825E4F07F0412399F7F00123A5986
:103CDC00229002AFE0FFEF7009122FD09002AF7468
:103CEC0001F0123D6D2290FFFF120FAFEFF09046E6
:103CFC00EA7401F0900001120FAF229044F4E0F846
:103D0C004402F0E85402FF10AF012274014FFF226D
:103D1C009001D6EFF09001D6E0FF9001D6EFF08045
:103D2C00FE22900166E4F07F0112334290016A7426
:103D3C0003F0229001D3EFF09001D3E0FF905B8170
:103D4C00EFF0228B938A838982E0FFA3E0FE7593C8
:103D5C0000228B938A838982EDF0A3ECF07593009B
:103D6C00227F0C12389F9002B07401F0228B938A40
:103D7C00838982E0759300FF228B938A838982ED7D
:103D8C00F0759300229044C07401F0229044C874E2
:103D9C0001F022900169E0FF2212253A2212010063
:103DAC000200000008B4040120000005060001090F
:103DBC00026700020100C0020904000000010100BA
:103DCC000709240100011E0001010C24020101015C
:103DDC000001000000000924030201030001000996
:103DEC0004010000010200080904010101010200A4
:103DFC0009072401010002000E2402010101080040
:103E0C00007D00007D000905020DC00001000007C7
:103E1C002501010000000403090444034300790058
:103E2C007000720065007300730020005300650081
:103E3C006D00690063006F006E0064007500630024
:103E4C0074006F007200200043006F00720070005D
:103E5C006F0072006100740069006F006E001E0339
:103E6C0055005300420020004100750064006900B9
:103E7C006F002000440065006D006F0022034300BA
:103E8C006F006E00740072006F006C00200049001F
:103E9C006E00650072006600610063006500280317
:103EAC00530074007200650061006D0069006E00C3
:103EBC006700200049006E00740065007200660007
:103ECC006100630065002C034300790070007200F0
:103EDC006500730073002000530065006D006900DD
:103EEC0063006F006E0064007500630074006F0067
:103EFC0072002403430079007000720065007300A7
:103F0C007300200055005300420020004100750052
:103F1C00640069006F002803430079007000720090
:103F2C0065007300730041007500640069006F0048
:103F3C0043006F006E00740072006F006C001C0375
:103F4C005A00650072006F00420061006E00640050
:103F5C00770069006400740068002E03410075004E
:103F6C00640069006F00530074007200650061000A
:103F7C006D0069006E006700200053007000650042
:103F8C0061006B0065007200000101020D00C001B0
:103F9C00010101FF3DBB01FF3F9500000000000047
:103FAC00000000FF3F9C01FF3DA901FF3F9E01FF68
:103FBC003FB20000000000000000C000000B0B002E
:103FCC0000008000007F7F00000000000C00450115
:103FDC007E020052017C40011701EE02011901EE34
:103FEC000201400436403D80CC20CE20014102A588
:103FFC0040A640014202A540A640014302A540A6AE
:10400C00400147020F40C2040148052540A540AEBF
:10401C0040C820EE40014C01AF4001510200091094
:10402C0002005100001000513000400051C000103F
:10403C00010000100001140008000140000A0001FA
:09404C004C0002000150000020AC
:00000001FF
