:400000000080002011000000F5020000F502000080B500AF024A034B1B68136000F06EF9BC760040FA46004010B5054C237833B9044B13B10448AFF300800123237010BDC2
:400040003881FF1F0000000014340000084B10B51BB108480849AFF300800848036803B910BD074B002BFBD0BDE81040184700BF00000000143400003C81FF1F0881FF1F51
:400080000000000080B500AF104B1B889BB201339BB20E4A19461180092B02D90B4B00221A800A4B1B889AB2094B1B889BB29A420AD1084B1B78184602F0CCFD064B002276
:4000C0001A70064B00221A7080BD00BF5481FF1F5681FF1FAE82FF1F5881FF1F5981FF1F90B583B000AF0023BB7102F017FA764802F0CAFA02F058FB744802F09BFB744B23
:400100001B0C9BB2012001211A464FF4804302F087FA03461A466F4B1A700023FB7109E0FC7902F0A5FE03461A466B4B1A55FB790133FB71FB79092BF2D90023FB710FE0ED
:40014000FB79654AD15CFB790133634AD35C084620211A46052302F0B9FEFB790133FB71FB79082BECD95C4B5A7A5B4B1B78104620211A46052302F0A9FE0023FB7110E080
:40018000FB79554AD15CFB795B01514A13449BB20846194645F6813202F0D8FEFB790133FB71FB79092BEBD94A4B1A784A4B1B781046194602F0EEFD62B60020002100F0E3
:4001C000E5FA00BF00F072FC0346002BFAD000F079FC0346002B2AD000F068FC0346002B1ED0012000F088FC0346002B18D03B4B00221A803A4B00221A803A4B00221A7097
:40020000394B00221A700023BB71022000F0BCFD0120002102F0D8FA344802F00BFB06E00120002102F0D0FA314802F003FB022000F074FC0346012B31D1BB79002B1FD165
:40024000264B1B889BB25B01214A134402201946202200F00BFD214B1B889BB201339BB21E4A19461180092B02D91C4B00221A801D4B1B78DBB20133DAB21B4B1A7004E0C1
:40028000022000F081FD0023BB71154B1B889AB2124B1B889BB29A4201D10123BB71114B1B78DBB2002B0DD10F4B1B78DBB2042B08D9084B1B781846012102F085FC094B89
:4002C00001221A7083E700BF85000000183400006481FF1FAE82FF1FA482FF1F5681FF1F5481FF1F5881FF1F5981FF1F283400003834000080B400AFFEE700BF80B586B031
:4003000000AF214B7B61214B3B611F4B7B611F4B3B612FE03B691B68FB603B695B68BB603B699B683B6000237B600AE0BB681A1DBA60FA68111DF96012681A607B680433CA
:400340007B607A683B689A42F0D13B69DB683B6000237B6007E0BB681A1DBA6000221A607B6804337B607A683B689A42F3D13B6910333B617B695A1E7A61002BCAD103F07C
:400380000FF8FFF7ADFEFEE7010000005037000080B582B000AF184B184A1A60184A184B1B6843F40073136000237B600FE07B68032B04D8134A7B6852F8233000E0124B7A
:4003C00012497A6841F822307B6801337B607B682F2BECD90E4B1B78DAB20E4B1A700E4B0A4A1A6000F034F902F0C0FB0B4B00221A600837BD4680BD0CED00E00004FA05A8
:4004000014ED00E000000000F50200000080FF1FBC7600400481FF1F08ED00E00081FF1F80B582B000AF78603960786800213A6802F0E7FF0837BD4680BD00BF80B584B014
:4004400000AFF860B9607A60F868B9687A6802F0CDFF1037BD4680BD80B584B000AFF860B9607A60F868B9687A6802F0BFFF1037BD4680BD80B483B000AF0346FB71FEE72D
:4004800080B487B000AF7860396000233B6100237B6127E07B699B007A6813441B68BB60BB68FB73BB6823F0FF03BB6014E03B695B003A6813441B781A46BB6813441946FA
:4004C0003B695B003A6813445B780B703B6901333B61FB7B013BFB73FB7B002BE7D17B6901337B617B690B2BD4D91C37BD465DF8047B704780B582B000AF304B40F2ED225B
:400500001A802F4B19221A702E4B06221A702E4B52221A702D4B2E4A1278D2B21A702D4B40F618021A802C4B41F251221A800023FB7019237B6014E0FB785B00DAB2274B3A
:400540001B78DBB203F00103DBB21343DBB203F00303FB704FF4F07002F0B2FD7B68013B7B607B68002B02D0FB78032BE4D17B68002B02D10320FFF77DFF194B4FF480720D
:400580001A80174B07221A70164B00221A70164B48221A70124B00221A70144B00221A70134B02221A70134A124B1B78DBB243F00103DBB213700837BD4680BD804000406A
:4005C000824000400043004000420040A14600400F0100492242004020420040254200400440004006400040084000400940004001400040A243004080B483B000AF0E4B57
:400600001B78FB710D4AFB7903F00703DBB213700B4AFB791B09DBB213700A4B80221A70094B01221A70094B44221A700C37BD465DF8047B704700BFCF0100496E58004071
:400640006F5800401C5100408B5A00407658004080B582B000AF72B6394B01221A70FFF749FF384A374B1B78DBB243F00403DBB213700023FB7113E0FA7913465B00134478
:400680005B00314A13443B603B681A683B689B889BB210461946FFF7C3FEFB790133FB71FB79072BE8D929482949FFF7E9FE29480421FFF7B5FE28480421FFF7B1FE274AA9
:4006C000264B1B78DBB243F00203DBB21370244A234B1B78DBB243F00203DBB21370214A204B1B78DBB243F04003DBB213701E4A1D4B1B78DBB243F01003DBB213701B48B8
:400700001B490A22FFF7A8FE1A481B490822FFF7A3FE1A481A490822FFF79EFE194A194B1B78DBB243F00803DBB21370FFF764FF15480C490E22FFF781FE0837BD4680BD21
:4007400000480040E84600404434000074340000A434000000760040087600400350014013500140A0430040C2430040F0510040D434000012510040E03400002251004084
:40078000E834000022430040B043004080B582B000AF03460A46FB711346BB71084B1B78002B04D100F00EF8054B01221A70FA79BB791046194600F0D1F80837BD4680BD38
:4007C0005A81FF1F80B582B000AF02F081FC03467B71524A514B1B78DBB243F00103DBB213704F4A4E4B1B78DBB243F00103DBB213704C4B01221A704B4B02221A704B4AF1
:400800004A4B1B78DBB203F07F03DBB21370002002F0F8FB464A464B1B78DBB223F00603DBB21370434A434B1B78DBB223F02003DBB213703E4A3E4B1B78DBB243F0010323
:40084000DBB21370012002F0DDFB282002F0DAFB394A394B1B78DBB203F07F03DBB21370354A354B1B78DBB223F04003DBB213702F4A2F4B1B78DBB243F00203DBB21370E2
:40088000022002F0BFFB2A4A294B1B78DBB243F00403DBB21370294B00221A70284B00221A700023FB8006E0FB88264AFF21D154FB880133FB80FB88082BF5D97B79184615
:4008C00002F00AFC1720204902F0AEFB1720072102F0D2FB15201D4902F0A6FB1520072102F0CAFB18201A4902F09EFB1820072102F0C2FB0120174902F096FB01200721E3
:4009000002F0BAFB1620144902F08EFB1620002102F0B2FB0837BD4680BD00BFA5430040B54300409D60004009600040106000409443004012600040F85100408460004062
:4009400085600040BC82FF1F791400006D140000E90D0000191400008514000080B582B000AF03460A46FB711346BB71264B4FF400021A60244B4FF080721A60224B0222B1
:400980001A60224B02221A701F4B4FF480021A601F4B20221A701F4B00221A70BB79002B02D0012B04D007E01B4B02221A7007E0194B03221A7003E0174B02221A7000BFD5
:4009C000164AFB791370164B00221A70154B00221A70154B00221A70144B00221A70144B00221A70134B00221A70134B03221A70124B80221A70012002F062FB104B0422D4
:400A00001A700837BD4680BD00E100E09E6000409C600040E282FF1F09600040DC82FF1FE182FF1FDD82FF1FE082FF1FC882FF1FDF82FF1F5A83FF1F2860004008600040FB
:400A40001260004080B400AF0F4B00221A700F4B00221A700E4B00221A700E4B00221A700D4B00221A700D4B00221A700C4B00221A700C4B03221A700B4B80221A70BD4635
:400A80005DF8047B704700BFE282FF1FE182FF1FDD82FF1FE082FF1FC882FF1FDF82FF1F5A83FF1F286000400860004080B400AF034B1B78DBB21846BD465DF8047B70475D
:400AC000E182FF1F80B483B000AF0023FB71094B1B78DBB2002B05D0064B1B78FB71054B00221A70FB7918460C37BD465DF8047B704700BFE082FF1F80B483B000AF0346CF
:400B0000FB71FB79044AD35CDBB218460C37BD465DF8047B704700BFCC82FF1F80B483B000AF0346FB71FA79064913465B0013449B000B445B78DBB218460C37BD465DF896
:400B4000047B7047EC82FF1F80B485B000AF0346FB710023FB81FB79002B20D0FB79082B1DD8FB79013BDBB21B017B737A7B0F4B13441B78DBB29BB203F00F03FB81FB89BD
:400B80001B0299B27A7B0A4B13441B78DBB29BB20A4613439BB2FB81FB89023BFB81FB8918461437BD465DF8047B70470C6000400D60004090B585B000AF03463960FB7188
:400BC000FA79274913465B0013449B000B441B79DBB2DBB25BB2002B06DA3B681B0CFB814FF48043BB8105E04FF48043FB813B681B0CBB81FB79013B072B1FD801A252F89C
:400C000023F000BF3D0C0000250C00003D0C00003D0C00003D0C00003D0C00003D0C00003D0C0000FC79FA89BB890020002101F069FF03461A460B4B1A5500E000BFFB795B
:400C4000002B09D0FB79082B06D8FC7902F010F903461A46044B1A551437BD4690BD00BFEC82FF1FB082FF1FBC82FF1F80B586B000AF03463960FB711346BB80FB79002BE7
:400C800074D0FB79082B71D83B68002B6ED0FB79013BDBB21B01FB75FA7D384B13443B61FB791846FFF750FF0346FB81BA88FB899A4201D9FB89BB80FB79314AD35CFF2BDF
:400CC00004D1FB7918463968FFF774FFFB792D4AD35C184601F0BEFFFB79294AD25CBB8810461946FE22122302F0F0F8FB79244AD15C3B699AB23B689BB2084611461A46ED
:400D000002F024F9FB791F4AD15CFB791C4AD35C0846194602F03EF8FB791A4AD35C1846012101F051FFFB7D03F1804303F5C1431A46FB7D03F1804303F5C1431B78DBB21E
:400D400043F00203DBB21370FB7D03F1804303F5C1431A46FB7D03F1804303F5C1431B78DBB223F00203DBB2137001E00023BB80BB8818461837BD4680BD00BF88600040D7
:400D8000BC82FF1FB082FF1F80B485B000AF0346FB71FB79002B1ED0FB79082B1BD8FB79013BDBB21B01FB73FA790D4913465B0013449B000B4400225A70FA7B094B134402
:400DC0001846FA79064913465B0013449B000B445B79DBB203701437BD465DF8047B7047EC82FF1F0E60004080B582B000AF374B1B78BB71BB7903F01003002B63D00123E4
:400E0000FB71BB795BB2002B13DABB7903F00F03012B02D00023FB711DE000F061F82C4B1B78DBB2DBB25BB2002B14DA0023FB7111E0BB7903F04003002B02D000F094F834
:400E400009E0BB7903F02003002B02D000F0B2F801E00023FB71FB79002B34D01B4B1B78BB71BB795BB2002B2DDB1A4B1B78DAB2194B1B78DBB21343BB71184ABB79137059
:400E8000164B1B78DBB2BA799A421CD1104B1B78FB710E4B1B78DBB223F07F03BB71BB79002B0AD1094B0A4A1278D2B21A70074B1B78DBB203F00F03FB71054B1B78DBB254
:400EC000FA799A42E2D10837BD4680BD28600040C982FF1FDE82FF1F5B83FF1F2960004080B582B000AF1D4B1B78FB711B4AFB7913701A4B1B78FB71FB795BB2002B03DA37
:400F0000174AFB79137025E0022000F04BFA154B1B78DBB203F06003202B08D0402B0BD0002B0ED100F040FB0346FB710CE002F0D7F80346FB7107E001F0A4FA0346FB7147
:400F400002E00023FB7100BFFB79002B02D1044B03221A700837BD4680BD00BF28600040C982FF1F0060004080B500AF104B1B78DBB2062B19D801A252F823F0AB0F000087
:400F8000AB0F0000990F0000AB0F00009F0F0000AB0F0000A50F000000F0FEF806E000F0B1F903E000F0DAF900E000BF80BD00BFE282FF1F80B500AF124B1B78DBB2062B3E
:400FC0001DD801A252F823F0FF0F0000FF0F0000E50F0000FF0F0000EB0F0000FF0F0000F10F000000F0DEF80AE000F02FF907E0032000F0D7F9044B03221A7000E000BFA7
:4010000080BD00BFE282FF1FC982FF1F80B483B000AF0023FB712B4B1B78DBB29AB22A4B1B889BB213449AB2274B1A8019E0FB7903F1804303F5C0431A46244B5B681B78EA
:40104000DBB21370214B5B680133204A5360FB790133FB711D4B1B889BB2013B9AB21B4B1A801A4B1B889BB2002B02D0FB79072BDDD9144B1B78DBB2082B02D0FB79002B1B
:401080000FD0134B1B78DBB283F07F03DB43DAB20F4B1A700F4B0F221A700F4B02221A7005E00C4B02221A700B4B02221A70054AFB791370094AFB7913700C37BD465DF81A
:4010C000047B70475A83FF1F5C83FF1FD082FF1FDE82FF1FC982FF1FE282FF1F5B83FF1F80B582B000AF164B1B889BB2002B02D100F030F81EE0134B02221A70124B0022E7
:401100001A7000F06FF9114B1B78DBB21B029AB20F4B1B78DBB29BB213439BB2FB80084B1B889BB2FA889A4202D2054AFB881380FFF76CFF012318460837BD4680BD00BF08
:40114000D082FF1FE282FF1FDE82FF1F076000400660004080B400AF0A4B02221A700A4B80221A70094B0F221A70094B00221A70084B00221A7001231846BD465DF8047BE4
:40118000704700BFE282FF1FDE82FF1FC982FF1F5A83FF1F5B83FF1F80B500AFFFF736FF80BD00BF80B500AF0A4B1B78DBB29AB2094B1B889BB213449AB2074B1A80074B84
:4011C00000221A70012000F0EDF8054B03221A7080BD00BF5A83FF1F5C83FF1FE282FF1FC982FF1F80B582B000AF124B04221A70114B80221A7000F0F5F8104B1B78DBB26C
:401200001B029AB20E4B1B78DBB29BB213439BB2FB800C4B1B889BB2FA889A4202D2094AFB881380084B0B221A70012318460837BD4680BDE282FF1FDE82FF1F07600040CD
:4012400006600040D082FF1FC982FF1F80B483B000AF0023BB71254B1B78DBB203F00F03DBB2023BFB71FB799AB2214B1B889BB213449AB21E4B1A801BE01E4B5A68BB79A3
:4012800003F1804303F5C0431B78DBB21370194B5B680133174A5360BB790133BB71FB79013BFB71134B1B889BB2013B9AB2114B1A80104B1B889BB2002B02D0FB79002B07
:4012C000DBD10D4AFB7913700C4B1B78DBB283F07F03DB43DAB2094B1A70094B0B221A700C37BD465DF8047B704700BF296000405C83FF1FD082FF1F5B83FF1FDE82FF1FB5
:40130000C982FF1F80B500AF044B00221A70012000F048F8024B03221A7080BDE282FF1FC982FF1F80B400AF084B06221A70084B06221A70074B80221A70074B00221A7087
:4013400001231846BD465DF8047B7047E282FF1FC982FF1FDE82FF1F5B83FF1F80B500AF0C4B1B78DBB2002B0AD00B4A094B1B78DBB263F07F03DBB21370064B00221A70ED
:40138000064B00221A70012000F00CF8044B03221A7080BDC882FF1F08600040E282FF1FC982FF1F80B483B000AF0346FB710B4B9B68002B0CD0094B9B68FA791A70074B14
:4013C0009B68074A128892B25A80044B00229A600C37BD465DF8047B704700BFD082FF1F5C83FF1F80B400AF094B00221A80094B9B68002B07D0074B9B6800221A70054BDC
:401400009B6800225A80BD465DF8047B704700BF5C83FF1FD082FF1F80B400AF104B1B78104B1B7EDBB203F00303012B08D00D4BDB7EDBB283F07F03DB43DAB2094BDA7623
:40144000084B01225A76084A074B1B78DBB223F00203DBB21370BD465DF8047B704700BF1E600040EC82FF1F0B60004080B400AFBD465DF8047B704780B500AFFFF7E2FAD1
:4014800080BD00BF80B483B000AF0123BB7100237B71414B1B78FB713F4AFB79137072E0FB7903F00103002B64D07A793B4B13441B783B713B7903F00103002B2BD0BA7981
:4014C000374913465B0013449B000B441B79DBB2DBB25BB2002B1EDA7B7903F1804303F5C1431A467B7903F1804303F5C1431B78DBB223F00103DBB213707A79294B1344E6
:401500001846BA79264913465B0013449B000B445B79DBB203703B7903F00203002B23D0BA791F4913465B0013449B000B441B79DBB2DBB25BB2002B16DBBA7918491346C4
:401540005B0013449B000B4400225A707A79154B13441846BA79124913465B0013449B000B445B79DBB203707A790C4B13441A463B7913707B7910337B71BB790133BB7195
:40158000FB795B08FB71FB79002B89D10C37BD465DF8047B704700BF9F60004082600040EC82FF1F0E60004080B586B000AF0023FB7500233B61A74B00221A80A64B1B7826
:4015C000DBB2DBB25BB2002B80F2EE80A34B1B78DBB20A2B00F2E68001A252F823F000BFF9160000A5170000A5170000A5170000A5170000A51700000D160000A5170000C5
:401600006F170000A517000085170000944B1B78DBB2012B0ED100F0AFFDB860BB685B688C4A53608B4B12221A80FFF759FD0346FB7560E08A4B1B78DBB2022B24D1894BCB
:401640001B78DBB2184600F06DFDB860BB68002B51D0BB685B687F4A53607E4B5B6803331B78DBB21B029AB27A4B5B6802331B78DBB29BB213439BB29AB2764B1A80FFF7F4
:401680002FFD0346FB758EE0754B1B78DBB2032B2CD10023FB73744B3B6109E03B691B78FB71FB793A6913443B61FB7B0133FB736C4B1B78DBB2FA7B9A4204D23B691B78FD
:4016C000DBB2002BEAD13B691B78DBB2002B12D03B691B78DBB29AB25E4B1A805D4A3B695360FFF7FDFC0346FB755CE001F0F8FC0346FB7557E056E0574B1B78DBB203F0B1
:401700000303002B1FD0022B00D02FE0514B02221A80564B1B78DBB203F07F02544913465B0013449B000B449B78DAB2514B1A70504B00225A70474B4E4A5A60FFF7D0FC6A
:401740000346FB7512E0434B02221A804A4B1B78DAB2484B1A70474B00225A703D4B454A5A60FFF7BDFC0346FB7500BF1BE0394B01221A80374B414A5A60FFF7B1FC03463C
:40178000FB7510E0334B01221A80384B1B78DBB21A463B4B13442F4A5360FFF7A1FC0346FB7500E000BF1DE12C4B1B78DBB2013B0A2B00F2168101A252F823F0C718000029
:4017C000E319000055190000E3190000E9170000E3190000E3190000E3190000FD170000E31900008D1800001E4B1B78DAB2254B1A70FFF797FD0346FB75F3E0194B1B784B
:40180000BB71BB79002B06D0BB79013BDBB2184600F088FCB860BB79002B02D0BB68002B02D1BB79002B13D1144B1B78DBB2BA799A4208D0114ABB791370134B01221A7048
:40184000012000F0ADF9FFF76DFD0346FB75C9E0C8E000BFD082FF1F006000400160004003600040026000406C35000004600040EC82FF1F5C81FF1FDF82FF1FE182FF1FC6
:40188000CC82FF1FC882FF1FE082FF1F00F0BEFD0346002B16D0564B1B787B71554A7B791370554B01221A7000F0FEFA7B797A7952498A5CD1B2524AD154FFF733FD034649
:4018C000FB758FE08EE04F4B1B78DBB203F00303012B22D0012B0DD3022B00D039E04A4B1B78DBB2002B04D100F0EEFC0346FB752FE02EE0444B1B78DBB2012B0CD1434BFD
:401900001B78DBB223F00203DAB2404B1A70FFF709FD0346FB751CE01BE0354B1B78DBB2012B15D8384B1B78DBB2DB43DBB2304A1278D2B211461046354A125CD2B2134022
:40194000DAB2334B5A54FFF7EDFC0346FB75FFE700BF47E02B4B1B78DBB203F00303012B22D0012B0DD3022B00D039E0264B1B78DBB2002B04D100F037FC0346FB752FE000
:401980002EE0214B1B78DBB2012B0CD11F4B1B78DBB243F00203DAB21C4B1A70FFF7C2FC0346FB751CE01BE0114B1B78DBB2012B15D8154B1B78DBB2DB43DBB20C4A127841
:4019C000D2B211461046124A125CD2B21340DAB20F4B5A54FFF7A6FC0346FB75FFE700BF00E000BFFB7D18461837BD4680BD00BF04600040DD82FF1FE082FF1FCC82FF1FBB
:401A00005883FF1F0060004002600040DF82FF1FE482FF1F80B483B000AF0123FB710023BB719CE0BB7903F1804303F5C1430C221A70BA79504B13441F221A70FA794F495D
:401A400013465B0013449B000B445B79DBB2002B18D0FA79494913465B0013449B000B441B79DBB2DBB25BB2002B05DABA79444B13440C221A700AE0BA79414B1344082243
:401A80001A7004E0BA793E4B134480221A70BA793C4B13441846FA79384913465B0013449B000B4408331B889BB21B0A9BB2DBB20370BA79344B13441846FA792F491346D9
:401AC0005B0013449B000B4408331B889BB2DBB20370BA792D4B13441846FA79274913465B0013449B000B44DB889BB2DBB20370BA79274B13441846FA79204913465B004D
:401B000013449B000B44DB889BB21B0A9BB2DBB20370BA791F4B13441846FA79174913465B0013449B000B44DB889BB2DBB20370BA79194B13441846FA79104913465B00AC
:401B400013449B000B44DB889BB21B0A9BB2DBB20370FB790133FB71BB791033BB71BB795BB2002BBFF65EAF0C4BFF221A700C37BD465DF8047B704781600040EC82FF1F9D
:401B80000E6000400C6000400D600040866000408760004084600040856000400A60004080B588B000AF0346FB7100237B830023FB7743E0FA7FA44913465B0013449B0028
:401BC0000B4400221A70FA7F9F4913465B0013449B000B4400229A70FA7F9B4913465B0013449B000B4400225A70FA7F964913465B0013449B000B440022DA70FA7F92491D
:401C000013465B0013449B000B4400225A71FA7F8D4913465B0013449B000B44083300221A80FA7F884913465B0013449B000B44083300229A70FB7F0133FB77FB7F082B14
:401C4000B8D9FB79002B10D000237B770AE07B7F7E4A0021D1547B7F7D4A0021D1547B7F01337B777B7F012BF1D97A4B1B78DBB2002B00F01381774B1B78DBB2013BDBB2F7
:401C8000184600F04FFA38613B695B68FB60FB6807331B7803F04003002B08D06E4B1B78DBB243F00103DAB26B4B1A7007E06A4B1B78DBB223F00103DAB2674B1A703B69AE
:401CC00008333B613B691B78FB7701237B7790E03B695B687B610023BB7782E07A7F7B699B7803F07F039A4275D17A7F564913465B0013449B000B4408331B889AB27B69C2
:401D00009B889A420BD27A7F7B6998884E4913465B0013449B000B44083302461A807B691B781A46494B9B5CDAB27B695B789A4251D17B69DB7803F00303FB727B699B78EA
:401D4000DBB25BB2002B18DA7A7F3F4913465B0013449B000B4401225A707A7FFB7A012B01D1072000E00D20374913465B0013449B000B4402465A7117E07A7F324913465D
:401D80005B0013449B000B4400225A707A7FFB7A012B01D1052000E009202B4913465B0013449B000B4402465A717A7F7B699878254913465B0013449B000B4402461A7162
:401DC0007A7F7B69D878204913465B0013449B000B4402461A707B6908337B61BB7F0133BB77BA7FFB7F9A42FFF478AF7B7F01337B777B7F082B7FF66BAF3B695B687B6123
:401E000000237B7714E07B699B7803F07F027B6918780D4913465B0013449B000B44083302469A707B6908337B617B7F01337B777A7FFB7F9A42E6D300F0B0F90246074B8C
:401E40001A600123FB7724E0EC82FF1FCC82FF1F5883FF1FE182FF1FDF82FF1FE882FF1FFA7F104913465B0013449B000B447A8BDA80FA7F0B4913465B0013449B000B44ED
:401E800008331B889AB27B8B13447B83FB7F0133FB77FB7F082BE3D9FFF7BCFD2037BD4680BD00BFEC82FF1F80B584B000AF914B1B78DBB2002B00F01A818E4B1B78DBB2C0
:401EC000013BDBB2184600F02DF978607B6808337B607B681B78FB707B685B68BB600023FB73FFE0BB681B781A46834B9B5CDAB2BB681B781946814B5B5CDBB29A4200F06A
:401F0000EB80BB681B781A467B4B9B5CDAB2BB685B789A4240F0E080BB681A78784B1B78DBB29A4240F0D880BB689B7803F07F03BB70BB78013BDBB21B017B70BB68DB782A
:401F400003F003033B70BB689B78DBB25BB2002B18DABA786B4913465B0013449B000B4401225A70BA783B78012B01D1072000E00D20644913465B0013449B000B44024607
:401F80005A7117E0BA785F4913465B0013449B000B4400225A70BA783B78012B01D1052000E00920574913465B0013449B000B4402465A717A78544B134401221A70BA7824
:401FC000BB6898884F4913465B0013449B000B44083302461A80BA78BB689878494913465B0013449B000B4402461A71BA78BB68D878444913465B0013449B000B440246C6
:402000001A70BA783F4913465B0013449B000B440022DA707A783D4B13441846BA78394913465B0013449B000B4408331B889BB21B0A9BB2DBB203707A78354B134418465F
:40204000BA78304913465B0013449B000B4408331B889BB2DBB203707A782E4B13441846BA78284913465B0013449B000B44DB889BB2DBB203707A78274B13441846BA78E2
:40208000204913465B0013449B000B44DB889BB21B0A9BB2DBB203707A78204B13441846BA78184913465B0013449B000B44DB889BB2DBB203707A78194B13441846BA7819
:4020C000104913465B0013449B000B44DB889BB21B0A9BB2DBB20370BB680833BB60FB7B0133FB73FA7BFB789A42FFF4FBAE1037BD4680BDE182FF1FCC82FF1F5883FF1F12
:4021000004600040EC82FF1F0E6000400C6000400D6000408660004087600040846000408560004080B485B000AF0346FB71104B1B78DBB20F4ADB0013445B68FB60FB687E
:402140000833FB60FB681B78FA799A4202D30023FB6005E0FB79DB00FA6813445B68FB60FB6818461437BD465DF8047B704700BFDC82FF1F2437000080B400AF054B1B7830
:40218000DBB2054ADB0013445B681846BD465DF8047B7047DC82FF1F2437000080B584B000AF104B1B78DBB2013BDBB21846FFF7B9FFB860BB68002B0DD0BB685B681B7966
:4021C000FB71FB790233DB00BA681344BB60BB685B68FB6001E00023FB60FB6818461037BD4680BDE182FF1F80B582B000AF0023FB71324B1B78DBB203F07F03BB71BB79DB
:40220000013BDBB21B017B71BB79002B51D0BB79082B4ED8BA79B97929480B465B000B449B0003449B78DBB243F00103D8B2244913465B0013449B000B4402469A70BA79C5
:402240001F4913465B0013449B000B440022DA70BA79B9791A480B465B000B449B0003445B78DBB243F00203D8B2154913465B0013449B000B4402465A70BA791049134685
:402280005B0013449B000B441B79DBB2DBB25BB2002B05DA7A790B4B13448D221A7004E07A79084B134489221A70FFF73BF80346FB71FB7918460837BD4680BD046000405B
:4022C000EC82FF1F0E60004080B582B000AF0023FB714A4B1B78DBB203F07F03BB71BB79013BDBB21B017B71BB79002B00F08180BB79082B7DD8BA79B97941480B465B00FE
:402300000B449B0003449B78DBB223F00103D8B23B4913465B0013449B000B4402469A70BA79374913465B0013449B000B440022DA707A79334B134419467A79314B13445F
:402340001B78DBB203F07F03DBB20B70BA79B9792B480B465B000B449B0003445B78DBB223F00203D8B2264913465B0013449B000B4402465A70BA79214913465B001344EB
:402380009B000B441B79DBB2DBB25BB2002B16DABA791B4913465B0013449B000B445B78DBB2012B05D17A79174B13440C221A701BE07A79144B13440D221A7015E0BA7986
:4023C0000F4913465B0013449B000B445B78DBB2012B05D17A790C4B134408221A7004E07A79094B134409221A70FEF79BFF0346FB71FB7918460837BD4680BD0460004069
:40240000EC82FF1F0C6000400E60004080B584B000AF0123FB73164B1B78BB73154B1B78DBB2013BDBB21846FFF77CFEB860BB685B681B79FB71BA7BFB799A4202D2BB7B46
:40244000012B02D90023FB730CE0BB7BBA7B0A498A5CD1B2094AD154BB7B094A1278D1B2054AD154FB7B18461037BD4680BD00BF04600040E182FF1FCC82FF1F5883FF1F8B
:402480000260004080B483B000AF0023FB710A4B1B78DBB2DBB25BB2002B06DA074B1B78DBB2012B00D000E000BFFB7918460C37BD465DF8047B70470060004001600040CA
:4024C00080B500AF064B00221A70064B00221A70042000F057F8002000F034F880BD00BF245800402558004080B400AF094A094B1B78DBB243F00203DBB21370064A064B57
:402500001B78DBB243F00203DBB21370BD465DF8047B7047A8430040B843004080B500AF074B1B78002B04D1FFF7CAFF044B01221A70FFF7D9FF642000F044F880BD00BF41
:402540006081FF1F80B483B000AF0346FB710C4A0B4B1B78DBB223F00203DBB213700849074B1B78DAB2FB7903F00203DBB21343DBB20B700C37BD465DF8047B704700BFF4
:402580002458004080B582B000AF0346FB710C4A0B4B1B78DBB223F00C03DBB213700849074B1B78DAB2FB7903F00C03DBB21343DBB20B7000F016F80837BD4680BD00BF37
:4025C0002458004080B483B000AF0346FB71044AFB7913700C37BD465DF8047B704700BF815B004080B483B000AF0B4B1B78DBB203F00C039B08DBB20633FB71074AFB793B
:4026000003F1924303F598731B78DBB213700C37BD465DF8047B7047245800400946004090B585B002AF0446084611461A462346FB710346BB710B46BB8013467B80114B0F
:4026400000221A700F4B1878F979BA790023009300230193002300F0BBFB0A4B1978BA887B88084611461A4600F056FB054B1B781846072100F020FB024B1B7818460C3783
:40268000BD4690BD0C81FF1F80B582B000AF786000F03CF8786800F009F8002000F018F800F028F80837BD4680BD00BF80B485B000AF7860054B1B68FB60FB6840337A68F8
:4026C0001A601437BD465DF8047B704708ED00E080B483B000AF0346FB71054AFB795B01DBB213700C37BD465DF8047B704700BF00E400E080B400AF034B01221A60BD4693
:402700005DF8047B704700BF00E100E080B400AF034B01221A60BD465DF8047B704700BF80E100E080B500AF282000F049FC032000F0B8F9052000F043FC032000F0B2F9FB
:402740000F2000F03DFC032000F0ACF9012000F037FC022000F0A6F9052000F031FC062000F09EF80E2000F09BF82C2000F098F8082000F095F8012000F092F80C2000F08D
:402780008FF8032000F08CF8052000F019FC80BD80B500AF0C2000F083F8024B01221A7080BD00BF6181FF1F80B500AF054B1B78002B04D1FFF7B6FF024B01221A70FFF7C1
:4027C000E7FF80BD6281FF1F80B582B000AF03460A46FB711346BB71FB79032B26D801A252F823F0F527000003280000112800001F280000BB79803BDBB2184600F050F89C
:4028000015E0BB79403BDBB2184600F049F80EE0BB796C3BDBB2184600F042F807E0BB792C3BDBB2184600F03BF800E000BF0837BD4680BD80B584B000AF78600123FB73CA
:402840007B681B78BB730BE0BB7B184600F00EF8FB7B7A6813441B78BB73FB7B0133FB73BB7B002BF0D11037BD4680BD80B584B000AF0346FB7100F02DF8FB791B09FB7326
:40288000FB7B184600F0D2F8FB7903F00F03FB73FB7B184600F0CAF81037BD4680BD00BF80B584B000AF0346FB7100F013F8FB791B09FB73FB7B184600F0F4F8FB7903F0F2
:4028C0000F03FB73FB7B184600F0ECF81037BD4680BD00BF80B582B000AF4F4A4E4B1B78DBB223F07F03DBB213704C4B1B78DBB223F00F03FB71494AFB7943F00F03DBB23C
:402900001370474B1B78DBB223F00F03FB71444AFB791370434B1B78DBB223F00F03FB71404AFB7913703C4A3B4B1B78DBB223F02003DBB21370384A374B1B78DBB243F0C3
:402940004003DBB21370002000F05CFB324A324B1B78DBB243F01003DBB21370012000F051FB314B1B78FB712B4A2B4B1B78DBB223F01003DBB21370002000F043FBFB7953
:4029800003F00803FB71244A234B1B78DBB243F01003DBB21370012000F034FB1E4A1E4B1B78DBB223F01003DBB21370FB79002BC9D1194A184B1B78DBB223F04003DBB2F2
:4029C0001370154A144B1B78DBB223F07F03DBB21370124A114B1B78DBB223F00F03DBB213700F4B1B78DBB223F00F03FB710C4AFB7943F00F03DBB213700A4B1B78DBB225
:402A000023F00F03FB71074AFB7943F00F03DBB213700837BD4680BD205100402251004023510040245100402151004080B582B000AF0346FB711A4A194B1B78DBB243F007
:402A40002003DBB21370164A154B1B78DBB223F04003DBB21370002000F0D4FA104A104B1B78DBB223F00F03DBB213700C490C4B1B78DAB2FB791343DBB243F01003DBB200
:402A80000B70012000F0BEFA054A054B1B78DBB223F01003DBB213700837BD4680BD00BF2051004080B582B000AF0346FB71144A134B1B78DBB223F06003DBB21370104A67
:402AC0000F4B1B78DBB223F00F03DBB213700C490B4B1B78DAB2FB791343DBB243F01003DBB20B70012000F08DFA054A044B1B78DBB223F01003DBB213700837BD4680BDAD
:402B00002051004090B585B002AF0446084611461A462346FB710346BB710B46BB8013467B80114B01221A700F4B1878F979BA790023009300230193002300F049F90A4B91
:402B40001978BA887B88084611461A4600F0E4F8054B1B781846022100F0AEF8024B1B7818460C37BD4690BD0D81FF1F80B483B000AF134B7F221A70124B80221A707F236D
:402B8000FB710CE0FB79DB0003F1804303F5F043FA79013AD2B21A70FB79013BFB71FB79002BEFD1FB79DB0003F1804303F5F04300221A700C37BD465DF8047B704700BFE8
:402BC0001181FF1F1081FF1F80B485B000AF03460A46FB711346BB710123FB60FB79172B2FD8BB79002B0ED0FB791A01184B1344FA791101164A0A441278D2B242F020027D
:402C0000D2B21A700DE0FB791A01114B1344FA7911010F4A0A441278D2B222F02002D2B21A70FB791A010A4B1344FA791101084A0A441278D2B242F00102D2B21A70002307
:402C4000FB60FB6818461437BD465DF8047B70471070004080B485B000AF0346FB710123FB60FB79172B1DD8FB791A01114B1344FA7911010F4A0A441278D2B222F0010217
:402C8000D2B21A70FB791A010A4B1344FA791101084A0A441278D2B222F02002D2B21A700023FB60FB6818461437BD465DF8047B704700BF1070004080B485B000AF03465E
:402CC0000A46FB711346BB710123FB60FB79172B18D8FB791A010F4B13441B78DBB223F00E03FB72FB791A010A4B1344BA7902F00702D2B25200D1B2FA7A0A43D2B21A70EC
:402D00000023FB60FB6818461437BD465DF8047B704700BF1070004080B485B000AF0346FB710B46BB8013467B800123FB60BB8841F6FF72934202D14FF40053BB807B8869
:402D400041F6FF72934202D14FF400537B80FB79172B17D8FB79DB0003F1804303F5EC430433BB60BB68BA881A80FB79DB0003F1804303F5EC430633BB60BB687A881A800F
:402D80000023FB60FB6818461437BD465DF8047B704700BF80B485B000AF03460A46FB711346BB710123FB60FB79172B07D8FB791A01064B1344BA795A720023FB60FB686F
:402DC00018461437BD465DF8047B70471070004090B484B000AF0446084611461A462346FB710346BB710B467B7113463B710123FB60FB79172B34D8FB79DB0003F1804393
:402E000003F5EC43BA7902F07F02D1B27A79D201D2B20A43D2B21A70FB79DB0003F1804303F5EC433A7E1201D1B23A7902F00F02D2B20A43D2B25A70FB79DB0003F1804347
:402E400003F5EC433A7F02F00F02D2B29A70FB79DB0003F1804303F5EC430022DA700023FB60FB6818461037BD4690BC704700BF80B582B000AFFF23FB7100F029F90346FE
:402E8000BB71104B1B78182B12D90F4B1B78FB710C4B1B78013BDAB20A4B1A70FB79DB0003F1804303F5F0431B78DAB2064B1A70BB79184600F010F9FB7918460837BD4616
:402EC00080BD00BF1081FF1F1181FF1F90B484B000AF0446084611461A462346FB710346BB800B46BB711346FB700123FB60FB795BB2002B23DBBB8823F47F6323F00F03DD
:402F00009BB2002B1BD1FB79DB0003F1804303F5F043BB60BB68BA881A80FB79DB0003F1804303F5F043BA799A70FB79DB0003F1804303F5F043FA78DA700023FB60FB68A6
:402F400018461037BD4690BC704700BF80B485B000AF0346FB710B46BB8013467B800123FB60FB795BB2002B17DBFB79DB0003F1804303F5F0430433BB60BB68BA881A809B
:402F8000FB79DB0003F1804303F5F0430633BB60BB687A881A800023FB60FB6818461437BD465DF8047B704780B483B000AF0346FB7101BE0C37BD465DF8047B704700BF9B
:402FC00080B582B000AF786008E00C4B1B68184600F076F87B68A3F500437B607B68B3F5004FF2D8064B1B687A6802FB03F3184600F066F80837BD4680BD00BF2481FF1FD2
:403000001C81FF1F80B582B000AF0346FB80FB88044A127802FB03F3184600F051F80837BD4680BD2081FF1F80B584B000AF03463960FB710F4B1B68FB60FB791F2B02D9A1
:403040000020FFF7B1FFFB7903F01F0310339B00FA6813441B68BB60FB7903F01F0310339B00FA6813443A681A60BB6818461037BD4680BD08ED00E080B582B000AF034654
:403080000A46FB711346BB71BB79072B02D90020FFF78AFFFB791F2B02D90020FFF784FFFB7903F01F0303F1604303F56443BA795201D2B21A700837BD4680BD00000000EB
:4030C0000230800803D000BF01380046FCD17047EFF3108072B6704780F31088704700BF80B582B000AF0023FB710023BB711B4B1B78DBB203F00303012B02D0022B04D03D
:4031000012E0174B1B78BB710EE0154B1B78DBB203F07F02134913465B0013449B000B4408339B78BB7100BF0F4B1A68BB7913441B78022B09D0032B09D0012B00D007E026
:4031400000F014F80346FB7102E000BF00E000BFFB7918460837BD4680BD00BF0060004004600040EC82FF1FE882FF1F80B582B000AF0023FB717E4B1B78BB717D4B1B786E
:40318000DBB203F07F037B71BB795BB2002B80F29580BB7903F00303022B1CD1764B1B78DBB2812B00D015E0744B1B78DBB2012B0FD1734B03221A807A7913465B0013442F
:4031C000704A13446E4A5360FDF78AFF0346FB71FFE700BFC6E0BB7903F00303012B40F0C180654B1B78DBB2832B3CD0832B04DC812B07D0822B25D05FE0842B44D0FF2BA3
:4032000053D05AE05D4B1B78DBB2012B0AD15C4B01221A805A4B5C4A5A60FDF761FF0346FB710EE0554B1B78DBB2022B09D1544B02221A80524B554A5A60FDF751FF03465B
:40324000FB713AE04D4B1B78DBB2022B0AD14C4B02221A804A4B4E4A5A60FDF741FF0346FB712AE029E0454B1B78DBB2022B0AD1434B02221A80424B464A5A60FDF730FFD2
:403280000346FB7119E018E03C4B1B78DBB2022B0AD13B4B02221A80394B3F4A5A60FDF71FFF0346FB7108E007E0354B00221A80FDF798FF0346FB7100BF53E0BB795BB269
:4032C000002B4FDBBB7903F00303022B1FD12A4B1B78DBB2012B00D018E0284B1B78DBB2012B12D1264B03221A807A7913465B001344244A1344224A5360FDF773FF034643
:40330000FB71264A7B791370FFE700BF2AE0BB7903F00303012B25D1174B1B78DBB2012B00D01FE0154B1B78DBB2012B0AD1144B01221A80124B144A5A60FDF753FF034618
:40334000FB710EE00D4B1B78DBB2022B09D10C4B02221A800A4B0D4A5A60FDF743FF0346FB7100BFFB7918460837BD4680BD00BF00600040046000400160004003600040B7
:40338000D082FF1F6483FF1F8083FF1F6083FF1F2881FF1F2C81FF1F3081FF1F7F83FF1F0E4B70B51E460E4C0025E41AA410A54204D056F8253098470135F8E700F0B6F9F1
:4033C000084B094C1E46E41AA4100025A54204D056F8253098470135F8E770BD3837000038370000383700004037000010B5431E0A44914204D011F8014B03F8014FF8E70D
:4034000010BD03460244934202D003F8011BFAE7704700000000000050657069746F20536F756E640000000053797374656D3A204269737465637300417564696F204F46ED
:4034400046000000005100401000305100404000C0510040100000000140001000140140000800400140000A004C0140000200500140200001450040015200400117014018
:4034800001190140044001400241014002420140024301400247014005480140014C0140025101407E027C40EE02EE0236403D80CC20CE20A540A640A540A640A540A640D9
:4034C0000F40C2042540A540AE40C820EE40AF40000910020000000000000000C0000000000B0B0000008000007F7F00000000001201000200000008B4040120000005060A
:403500000001000009026700020100C00209040000000101000709240100011E0001010C24020101010001000000000924030201030001000904010000010200080904015A
:40354000010101020009072401010002000E24020101010800007D00007D000905020DC0000100000725010100000000040309044403430079007000720065007300730085
:403580002000530065006D00690063006F006E0064007500630074006F007200200043006F00720070006F0072006100740069006F006E001E035500530042002000410070
:4035C0007500640069006F002000440065006D006F00220343006F006E00740072006F006C00200049006E0065007200660061006300650028035300740072006500610008
:403600006D0069006E006700200049006E0074006500720066006100630065002C0343007900700072006500730073002000530065006D00690063006F006E00640075004F
:40364000630074006F007200240343007900700072006500730073002000550053004200200041007500640069006F0028034300790070007200650073007300410075009C
:40368000640069006F0043006F006E00740072006F006C001C035A00650072006F00420061006E006400770069006400740068002E0341007500640069006F0053007400AF
:4036C0007200650061006D0069006E006700200053007000650061006B006500720000000101020DC000010001010000010000000435000001000000E036000000000000D7
:4037000000000000000000000000000000000000E836000001000000F034000001000000EC3600000100000014370000F8B500BFF8BC08BC9E4670474D0000009103000077
:40374000F8B500BFF8BC08BC9E46704729000000603700000881FF1F300000005002000000000000FFFF0000807F0000030000000090D00300FA0000400000000000007DC7
:4037800001800000FF7F0000010000000000000000000000000000000000000000000000000000000000000000000000000000000000000000000000000000000000000009
:4037C00000000000000000000000000000000000000000000000000000000000000000000000000000000000000000000000000000000000000000000000000000000000C9
:403800000000000000000000000000000000000000000000000000000000000000000000000000000000000000000000000000000000000000000000000000000000000088
:403840000000000000000000000000000000000000000000000000000000000000000000000000000000000000000000000000000000000000000000000000000000000048
:403880000000000000000000000000000000000000000000000000000000000000000000000000000000000000000000000000000000000000000000000000000000000008
:0200000480007A
:0200000490006A
:0400000000004005B7
:0200000490105A
:04000000BC90ACAF55
:0200000490303A
:02000000E270AC
:0200000490402A
:4000000000000000000000000000000000000000000000000000000000000000000000000000000000000000000000000000000000000000000000000000000000000000C0
:400040000000000000000000000000000000000000000000000000000000000000000000000000000000000000000000000000000000000000000000000000000000000080
:400080000000000000000000000000000000000000000000000000000000000000000000000000000000000000000000000000000000000000000000000000000000000040
:4000C0000000000000000000000000000000000000000000000000000000000000000000000000000000000000000000000000000000000000000000000000000000000000
:0200000490501A
:0C00000000012E12006900012E26E2D93A
:00000001FF